{
	"contracts/Mapping.sol": {
		"Mapping": {
			"abi": [
				{
					"inputs": [
						{
							"internalType": "int256",
							"name": "",
							"type": "int256"
						}
					],
					"name": "data",
					"outputs": [
						{
							"internalType": "string",
							"name": "name",
							"type": "string"
						},
						{
							"internalType": "int256",
							"name": "class",
							"type": "int256"
						}
					],
					"stateMutability": "view",
					"type": "function"
				},
				{
					"inputs": [
						{
							"internalType": "int256",
							"name": "_roll",
							"type": "int256"
						},
						{
							"internalType": "int256",
							"name": "_class",
							"type": "int256"
						},
						{
							"internalType": "string",
							"name": "_name",
							"type": "string"
						}
					],
					"name": "setter",
					"outputs": [],
					"stateMutability": "nonpayable",
					"type": "function"
				}
			],
			"devdoc": {
				"kind": "dev",
				"methods": {},
				"version": 1
			},
			"evm": {
				"assembly": "    /* \"contracts/Mapping.sol\":120:684  contract Mapping {... */\n  mstore(0x40, 0x80)\n  callvalue\n  dup1\n  iszero\n  tag_1\n  jumpi\n  0x00\n  dup1\n  revert\ntag_1:\n  pop\n  dataSize(sub_0)\n  dup1\n  dataOffset(sub_0)\n  0x00\n  codecopy\n  0x00\n  return\nstop\n\nsub_0: assembly {\n        /* \"contracts/Mapping.sol\":120:684  contract Mapping {... */\n      mstore(0x40, 0x80)\n      callvalue\n      dup1\n      iszero\n      tag_1\n      jumpi\n      0x00\n      dup1\n      revert\n    tag_1:\n      pop\n      jumpi(tag_2, lt(calldatasize, 0x04))\n      shr(0xe0, calldataload(0x00))\n      dup1\n      0x9398e0cd\n      eq\n      tag_3\n      jumpi\n      dup1\n      0x998b6548\n      eq\n      tag_4\n      jumpi\n    tag_2:\n      0x00\n      dup1\n      revert\n        /* \"contracts/Mapping.sol\":217:252  mapping(int => Student) public data */\n    tag_3:\n      tag_5\n      0x04\n      dup1\n      calldatasize\n      sub\n      dup2\n      add\n      swap1\n      tag_6\n      swap2\n      swap1\n      tag_7\n      jump\t// in\n    tag_6:\n      tag_8\n      jump\t// in\n    tag_5:\n      mload(0x40)\n      tag_9\n      swap3\n      swap2\n      swap1\n      tag_10\n      jump\t// in\n    tag_9:\n      mload(0x40)\n      dup1\n      swap2\n      sub\n      swap1\n      return\n        /* \"contracts/Mapping.sol\":261:384  function setter(int _roll, int _class, string memory _name) public  {... */\n    tag_4:\n      tag_11\n      0x04\n      dup1\n      calldatasize\n      sub\n      dup2\n      add\n      swap1\n      tag_12\n      swap2\n      swap1\n      tag_13\n      jump\t// in\n    tag_12:\n      tag_14\n      jump\t// in\n    tag_11:\n      stop\n        /* \"contracts/Mapping.sol\":217:252  mapping(int => Student) public data */\n    tag_8:\n      mstore(0x20, 0x00)\n      dup1\n      0x00\n      mstore\n      keccak256(0x00, 0x40)\n      0x00\n      swap2\n      pop\n      swap1\n      pop\n      dup1\n      0x00\n      add\n      dup1\n      sload\n      tag_15\n      swap1\n      tag_16\n      jump\t// in\n    tag_15:\n      dup1\n      0x1f\n      add\n      0x20\n      dup1\n      swap2\n      div\n      mul\n      0x20\n      add\n      mload(0x40)\n      swap1\n      dup2\n      add\n      0x40\n      mstore\n      dup1\n      swap3\n      swap2\n      swap1\n      dup2\n      dup2\n      mstore\n      0x20\n      add\n      dup3\n      dup1\n      sload\n      tag_17\n      swap1\n      tag_16\n      jump\t// in\n    tag_17:\n      dup1\n      iszero\n      tag_18\n      jumpi\n      dup1\n      0x1f\n      lt\n      tag_19\n      jumpi\n      0x0100\n      dup1\n      dup4\n      sload\n      div\n      mul\n      dup4\n      mstore\n      swap2\n      0x20\n      add\n      swap2\n      jump(tag_18)\n    tag_19:\n      dup3\n      add\n      swap2\n      swap1\n      0x00\n      mstore\n      keccak256(0x00, 0x20)\n      swap1\n    tag_20:\n      dup2\n      sload\n      dup2\n      mstore\n      swap1\n      0x01\n      add\n      swap1\n      0x20\n      add\n      dup1\n      dup4\n      gt\n      tag_20\n      jumpi\n      dup3\n      swap1\n      sub\n      0x1f\n      and\n      dup3\n      add\n      swap2\n    tag_18:\n      pop\n      pop\n      pop\n      pop\n      pop\n      swap1\n      dup1\n      0x01\n      add\n      sload\n      swap1\n      pop\n      dup3\n      jump\t// out\n        /* \"contracts/Mapping.sol\":261:384  function setter(int _roll, int _class, string memory _name) public  {... */\n    tag_14:\n        /* \"contracts/Mapping.sol\":354:376  Student(_name, _class) */\n      mload(0x40)\n      dup1\n      0x40\n      add\n      0x40\n      mstore\n      dup1\n        /* \"contracts/Mapping.sol\":362:367  _name */\n      dup3\n        /* \"contracts/Mapping.sol\":354:376  Student(_name, _class) */\n      dup2\n      mstore\n      0x20\n      add\n        /* \"contracts/Mapping.sol\":369:375  _class */\n      dup4\n        /* \"contracts/Mapping.sol\":354:376  Student(_name, _class) */\n      dup2\n      mstore\n      pop\n        /* \"contracts/Mapping.sol\":340:344  data */\n      0x00\n        /* \"contracts/Mapping.sol\":340:351  data[_roll] */\n      dup1\n        /* \"contracts/Mapping.sol\":345:350  _roll */\n      dup6\n        /* \"contracts/Mapping.sol\":340:351  data[_roll] */\n      dup2\n      mstore\n      0x20\n      add\n      swap1\n      dup2\n      mstore\n      0x20\n      add\n      0x00\n      keccak256\n        /* \"contracts/Mapping.sol\":340:376  data[_roll] = Student(_name, _class) */\n      0x00\n      dup3\n      add\n      mload\n      dup2\n      0x00\n      add\n      swap1\n      dup2\n      tag_22\n      swap2\n      swap1\n      tag_23\n      jump\t// in\n    tag_22:\n      pop\n      0x20\n      dup3\n      add\n      mload\n      dup2\n      0x01\n      add\n      sstore\n      swap1\n      pop\n      pop\n        /* \"contracts/Mapping.sol\":261:384  function setter(int _roll, int _class, string memory _name) public  {... */\n      pop\n      pop\n      pop\n      jump\t// out\n        /* \"#utility.yul\":7:82   */\n    tag_24:\n        /* \"#utility.yul\":40:46   */\n      0x00\n        /* \"#utility.yul\":73:75   */\n      0x40\n        /* \"#utility.yul\":67:76   */\n      mload\n        /* \"#utility.yul\":57:76   */\n      swap1\n      pop\n        /* \"#utility.yul\":7:82   */\n      swap1\n      jump\t// out\n        /* \"#utility.yul\":88:205   */\n    tag_25:\n        /* \"#utility.yul\":197:198   */\n      0x00\n        /* \"#utility.yul\":194:195   */\n      dup1\n        /* \"#utility.yul\":187:199   */\n      revert\n        /* \"#utility.yul\":211:328   */\n    tag_26:\n        /* \"#utility.yul\":320:321   */\n      0x00\n        /* \"#utility.yul\":317:318   */\n      dup1\n        /* \"#utility.yul\":310:322   */\n      revert\n        /* \"#utility.yul\":334:410   */\n    tag_27:\n        /* \"#utility.yul\":370:377   */\n      0x00\n        /* \"#utility.yul\":399:404   */\n      dup2\n        /* \"#utility.yul\":388:404   */\n      swap1\n      pop\n        /* \"#utility.yul\":334:410   */\n      swap2\n      swap1\n      pop\n      jump\t// out\n        /* \"#utility.yul\":416:536   */\n    tag_28:\n        /* \"#utility.yul\":488:511   */\n      tag_68\n        /* \"#utility.yul\":505:510   */\n      dup2\n        /* \"#utility.yul\":488:511   */\n      tag_27\n      jump\t// in\n    tag_68:\n        /* \"#utility.yul\":481:486   */\n      dup2\n        /* \"#utility.yul\":478:512   */\n      eq\n        /* \"#utility.yul\":468:530   */\n      tag_69\n      jumpi\n        /* \"#utility.yul\":526:527   */\n      0x00\n        /* \"#utility.yul\":523:524   */\n      dup1\n        /* \"#utility.yul\":516:528   */\n      revert\n        /* \"#utility.yul\":468:530   */\n    tag_69:\n        /* \"#utility.yul\":416:536   */\n      pop\n      jump\t// out\n        /* \"#utility.yul\":542:679   */\n    tag_29:\n        /* \"#utility.yul\":587:592   */\n      0x00\n        /* \"#utility.yul\":625:631   */\n      dup2\n        /* \"#utility.yul\":612:632   */\n      calldataload\n        /* \"#utility.yul\":603:632   */\n      swap1\n      pop\n        /* \"#utility.yul\":641:673   */\n      tag_71\n        /* \"#utility.yul\":667:672   */\n      dup2\n        /* \"#utility.yul\":641:673   */\n      tag_28\n      jump\t// in\n    tag_71:\n        /* \"#utility.yul\":542:679   */\n      swap3\n      swap2\n      pop\n      pop\n      jump\t// out\n        /* \"#utility.yul\":685:1012   */\n    tag_7:\n        /* \"#utility.yul\":743:749   */\n      0x00\n        /* \"#utility.yul\":792:794   */\n      0x20\n        /* \"#utility.yul\":780:789   */\n      dup3\n        /* \"#utility.yul\":771:778   */\n      dup5\n        /* \"#utility.yul\":767:790   */\n      sub\n        /* \"#utility.yul\":763:795   */\n      slt\n        /* \"#utility.yul\":760:879   */\n      iszero\n      tag_73\n      jumpi\n        /* \"#utility.yul\":798:877   */\n      tag_74\n      tag_25\n      jump\t// in\n    tag_74:\n        /* \"#utility.yul\":760:879   */\n    tag_73:\n        /* \"#utility.yul\":918:919   */\n      0x00\n        /* \"#utility.yul\":943:995   */\n      tag_75\n        /* \"#utility.yul\":987:994   */\n      dup5\n        /* \"#utility.yul\":978:984   */\n      dup3\n        /* \"#utility.yul\":967:976   */\n      dup6\n        /* \"#utility.yul\":963:985   */\n      add\n        /* \"#utility.yul\":943:995   */\n      tag_29\n      jump\t// in\n    tag_75:\n        /* \"#utility.yul\":933:995   */\n      swap2\n      pop\n        /* \"#utility.yul\":889:1005   */\n      pop\n        /* \"#utility.yul\":685:1012   */\n      swap3\n      swap2\n      pop\n      pop\n      jump\t// out\n        /* \"#utility.yul\":1018:1117   */\n    tag_30:\n        /* \"#utility.yul\":1070:1076   */\n      0x00\n        /* \"#utility.yul\":1104:1109   */\n      dup2\n        /* \"#utility.yul\":1098:1110   */\n      mload\n        /* \"#utility.yul\":1088:1110   */\n      swap1\n      pop\n        /* \"#utility.yul\":1018:1117   */\n      swap2\n      swap1\n      pop\n      jump\t// out\n        /* \"#utility.yul\":1123:1292   */\n    tag_31:\n        /* \"#utility.yul\":1207:1218   */\n      0x00\n        /* \"#utility.yul\":1241:1247   */\n      dup3\n        /* \"#utility.yul\":1236:1239   */\n      dup3\n        /* \"#utility.yul\":1229:1248   */\n      mstore\n        /* \"#utility.yul\":1281:1285   */\n      0x20\n        /* \"#utility.yul\":1276:1279   */\n      dup3\n        /* \"#utility.yul\":1272:1286   */\n      add\n        /* \"#utility.yul\":1257:1286   */\n      swap1\n      pop\n        /* \"#utility.yul\":1123:1292   */\n      swap3\n      swap2\n      pop\n      pop\n      jump\t// out\n        /* \"#utility.yul\":1298:1544   */\n    tag_32:\n        /* \"#utility.yul\":1379:1380   */\n      0x00\n        /* \"#utility.yul\":1389:1502   */\n    tag_79:\n        /* \"#utility.yul\":1403:1409   */\n      dup4\n        /* \"#utility.yul\":1400:1401   */\n      dup2\n        /* \"#utility.yul\":1397:1410   */\n      lt\n        /* \"#utility.yul\":1389:1502   */\n      iszero\n      tag_81\n      jumpi\n        /* \"#utility.yul\":1488:1489   */\n      dup1\n        /* \"#utility.yul\":1483:1486   */\n      dup3\n        /* \"#utility.yul\":1479:1490   */\n      add\n        /* \"#utility.yul\":1473:1491   */\n      mload\n        /* \"#utility.yul\":1469:1470   */\n      dup2\n        /* \"#utility.yul\":1464:1467   */\n      dup5\n        /* \"#utility.yul\":1460:1471   */\n      add\n        /* \"#utility.yul\":1453:1492   */\n      mstore\n        /* \"#utility.yul\":1425:1427   */\n      0x20\n        /* \"#utility.yul\":1422:1423   */\n      dup2\n        /* \"#utility.yul\":1418:1428   */\n      add\n        /* \"#utility.yul\":1413:1428   */\n      swap1\n      pop\n        /* \"#utility.yul\":1389:1502   */\n      jump(tag_79)\n    tag_81:\n        /* \"#utility.yul\":1536:1537   */\n      0x00\n        /* \"#utility.yul\":1527:1533   */\n      dup5\n        /* \"#utility.yul\":1522:1525   */\n      dup5\n        /* \"#utility.yul\":1518:1534   */\n      add\n        /* \"#utility.yul\":1511:1538   */\n      mstore\n        /* \"#utility.yul\":1360:1544   */\n      pop\n        /* \"#utility.yul\":1298:1544   */\n      pop\n      pop\n      pop\n      jump\t// out\n        /* \"#utility.yul\":1550:1652   */\n    tag_33:\n        /* \"#utility.yul\":1591:1597   */\n      0x00\n        /* \"#utility.yul\":1642:1644   */\n      0x1f\n        /* \"#utility.yul\":1638:1645   */\n      not\n        /* \"#utility.yul\":1633:1635   */\n      0x1f\n        /* \"#utility.yul\":1626:1631   */\n      dup4\n        /* \"#utility.yul\":1622:1636   */\n      add\n        /* \"#utility.yul\":1618:1646   */\n      and\n        /* \"#utility.yul\":1608:1646   */\n      swap1\n      pop\n        /* \"#utility.yul\":1550:1652   */\n      swap2\n      swap1\n      pop\n      jump\t// out\n        /* \"#utility.yul\":1658:2035   */\n    tag_34:\n        /* \"#utility.yul\":1746:1749   */\n      0x00\n        /* \"#utility.yul\":1774:1813   */\n      tag_84\n        /* \"#utility.yul\":1807:1812   */\n      dup3\n        /* \"#utility.yul\":1774:1813   */\n      tag_30\n      jump\t// in\n    tag_84:\n        /* \"#utility.yul\":1829:1900   */\n      tag_85\n        /* \"#utility.yul\":1893:1899   */\n      dup2\n        /* \"#utility.yul\":1888:1891   */\n      dup6\n        /* \"#utility.yul\":1829:1900   */\n      tag_31\n      jump\t// in\n    tag_85:\n        /* \"#utility.yul\":1822:1900   */\n      swap4\n      pop\n        /* \"#utility.yul\":1909:1974   */\n      tag_86\n        /* \"#utility.yul\":1967:1973   */\n      dup2\n        /* \"#utility.yul\":1962:1965   */\n      dup6\n        /* \"#utility.yul\":1955:1959   */\n      0x20\n        /* \"#utility.yul\":1948:1953   */\n      dup7\n        /* \"#utility.yul\":1944:1960   */\n      add\n        /* \"#utility.yul\":1909:1974   */\n      tag_32\n      jump\t// in\n    tag_86:\n        /* \"#utility.yul\":1999:2028   */\n      tag_87\n        /* \"#utility.yul\":2021:2027   */\n      dup2\n        /* \"#utility.yul\":1999:2028   */\n      tag_33\n      jump\t// in\n    tag_87:\n        /* \"#utility.yul\":1994:1997   */\n      dup5\n        /* \"#utility.yul\":1990:2029   */\n      add\n        /* \"#utility.yul\":1983:2029   */\n      swap2\n      pop\n        /* \"#utility.yul\":1750:2035   */\n      pop\n        /* \"#utility.yul\":1658:2035   */\n      swap3\n      swap2\n      pop\n      pop\n      jump\t// out\n        /* \"#utility.yul\":2041:2156   */\n    tag_35:\n        /* \"#utility.yul\":2126:2149   */\n      tag_89\n        /* \"#utility.yul\":2143:2148   */\n      dup2\n        /* \"#utility.yul\":2126:2149   */\n      tag_27\n      jump\t// in\n    tag_89:\n        /* \"#utility.yul\":2121:2124   */\n      dup3\n        /* \"#utility.yul\":2114:2150   */\n      mstore\n        /* \"#utility.yul\":2041:2156   */\n      pop\n      pop\n      jump\t// out\n        /* \"#utility.yul\":2162:2581   */\n    tag_10:\n        /* \"#utility.yul\":2301:2305   */\n      0x00\n        /* \"#utility.yul\":2339:2341   */\n      0x40\n        /* \"#utility.yul\":2328:2337   */\n      dup3\n        /* \"#utility.yul\":2324:2342   */\n      add\n        /* \"#utility.yul\":2316:2342   */\n      swap1\n      pop\n        /* \"#utility.yul\":2388:2397   */\n      dup2\n        /* \"#utility.yul\":2382:2386   */\n      dup2\n        /* \"#utility.yul\":2378:2398   */\n      sub\n        /* \"#utility.yul\":2374:2375   */\n      0x00\n        /* \"#utility.yul\":2363:2372   */\n      dup4\n        /* \"#utility.yul\":2359:2376   */\n      add\n        /* \"#utility.yul\":2352:2399   */\n      mstore\n        /* \"#utility.yul\":2416:2494   */\n      tag_91\n        /* \"#utility.yul\":2489:2493   */\n      dup2\n        /* \"#utility.yul\":2480:2486   */\n      dup6\n        /* \"#utility.yul\":2416:2494   */\n      tag_34\n      jump\t// in\n    tag_91:\n        /* \"#utility.yul\":2408:2494   */\n      swap1\n      pop\n        /* \"#utility.yul\":2504:2574   */\n      tag_92\n        /* \"#utility.yul\":2570:2572   */\n      0x20\n        /* \"#utility.yul\":2559:2568   */\n      dup4\n        /* \"#utility.yul\":2555:2573   */\n      add\n        /* \"#utility.yul\":2546:2552   */\n      dup5\n        /* \"#utility.yul\":2504:2574   */\n      tag_35\n      jump\t// in\n    tag_92:\n        /* \"#utility.yul\":2162:2581   */\n      swap4\n      swap3\n      pop\n      pop\n      pop\n      jump\t// out\n        /* \"#utility.yul\":2587:2704   */\n    tag_36:\n        /* \"#utility.yul\":2696:2697   */\n      0x00\n        /* \"#utility.yul\":2693:2694   */\n      dup1\n        /* \"#utility.yul\":2686:2698   */\n      revert\n        /* \"#utility.yul\":2710:2827   */\n    tag_37:\n        /* \"#utility.yul\":2819:2820   */\n      0x00\n        /* \"#utility.yul\":2816:2817   */\n      dup1\n        /* \"#utility.yul\":2809:2821   */\n      revert\n        /* \"#utility.yul\":2833:3013   */\n    tag_38:\n        /* \"#utility.yul\":2881:2958   */\n      0x4e487b7100000000000000000000000000000000000000000000000000000000\n        /* \"#utility.yul\":2878:2879   */\n      0x00\n        /* \"#utility.yul\":2871:2959   */\n      mstore\n        /* \"#utility.yul\":2978:2982   */\n      0x41\n        /* \"#utility.yul\":2975:2976   */\n      0x04\n        /* \"#utility.yul\":2968:2983   */\n      mstore\n        /* \"#utility.yul\":3002:3006   */\n      0x24\n        /* \"#utility.yul\":2999:3000   */\n      0x00\n        /* \"#utility.yul\":2992:3007   */\n      revert\n        /* \"#utility.yul\":3019:3300   */\n    tag_39:\n        /* \"#utility.yul\":3102:3129   */\n      tag_97\n        /* \"#utility.yul\":3124:3128   */\n      dup3\n        /* \"#utility.yul\":3102:3129   */\n      tag_33\n      jump\t// in\n    tag_97:\n        /* \"#utility.yul\":3094:3100   */\n      dup2\n        /* \"#utility.yul\":3090:3130   */\n      add\n        /* \"#utility.yul\":3232:3238   */\n      dup2\n        /* \"#utility.yul\":3220:3230   */\n      dup2\n        /* \"#utility.yul\":3217:3239   */\n      lt\n        /* \"#utility.yul\":3196:3214   */\n      0xffffffffffffffff\n        /* \"#utility.yul\":3184:3194   */\n      dup3\n        /* \"#utility.yul\":3181:3215   */\n      gt\n        /* \"#utility.yul\":3178:3240   */\n      or\n        /* \"#utility.yul\":3175:3263   */\n      iszero\n      tag_98\n      jumpi\n        /* \"#utility.yul\":3243:3261   */\n      tag_99\n      tag_38\n      jump\t// in\n    tag_99:\n        /* \"#utility.yul\":3175:3263   */\n    tag_98:\n        /* \"#utility.yul\":3283:3293   */\n      dup1\n        /* \"#utility.yul\":3279:3281   */\n      0x40\n        /* \"#utility.yul\":3272:3294   */\n      mstore\n        /* \"#utility.yul\":3062:3300   */\n      pop\n        /* \"#utility.yul\":3019:3300   */\n      pop\n      pop\n      jump\t// out\n        /* \"#utility.yul\":3306:3435   */\n    tag_40:\n        /* \"#utility.yul\":3340:3346   */\n      0x00\n        /* \"#utility.yul\":3367:3387   */\n      tag_101\n      tag_24\n      jump\t// in\n    tag_101:\n        /* \"#utility.yul\":3357:3387   */\n      swap1\n      pop\n        /* \"#utility.yul\":3396:3429   */\n      tag_102\n        /* \"#utility.yul\":3424:3428   */\n      dup3\n        /* \"#utility.yul\":3416:3422   */\n      dup3\n        /* \"#utility.yul\":3396:3429   */\n      tag_39\n      jump\t// in\n    tag_102:\n        /* \"#utility.yul\":3306:3435   */\n      swap2\n      swap1\n      pop\n      jump\t// out\n        /* \"#utility.yul\":3441:3749   */\n    tag_41:\n        /* \"#utility.yul\":3503:3507   */\n      0x00\n        /* \"#utility.yul\":3593:3611   */\n      0xffffffffffffffff\n        /* \"#utility.yul\":3585:3591   */\n      dup3\n        /* \"#utility.yul\":3582:3612   */\n      gt\n        /* \"#utility.yul\":3579:3635   */\n      iszero\n      tag_104\n      jumpi\n        /* \"#utility.yul\":3615:3633   */\n      tag_105\n      tag_38\n      jump\t// in\n    tag_105:\n        /* \"#utility.yul\":3579:3635   */\n    tag_104:\n        /* \"#utility.yul\":3653:3682   */\n      tag_106\n        /* \"#utility.yul\":3675:3681   */\n      dup3\n        /* \"#utility.yul\":3653:3682   */\n      tag_33\n      jump\t// in\n    tag_106:\n        /* \"#utility.yul\":3645:3682   */\n      swap1\n      pop\n        /* \"#utility.yul\":3737:3741   */\n      0x20\n        /* \"#utility.yul\":3731:3735   */\n      dup2\n        /* \"#utility.yul\":3727:3742   */\n      add\n        /* \"#utility.yul\":3719:3742   */\n      swap1\n      pop\n        /* \"#utility.yul\":3441:3749   */\n      swap2\n      swap1\n      pop\n      jump\t// out\n        /* \"#utility.yul\":3755:3901   */\n    tag_42:\n        /* \"#utility.yul\":3852:3858   */\n      dup3\n        /* \"#utility.yul\":3847:3850   */\n      dup2\n        /* \"#utility.yul\":3842:3845   */\n      dup4\n        /* \"#utility.yul\":3829:3859   */\n      calldatacopy\n        /* \"#utility.yul\":3893:3894   */\n      0x00\n        /* \"#utility.yul\":3884:3890   */\n      dup4\n        /* \"#utility.yul\":3879:3882   */\n      dup4\n        /* \"#utility.yul\":3875:3891   */\n      add\n        /* \"#utility.yul\":3868:3895   */\n      mstore\n        /* \"#utility.yul\":3755:3901   */\n      pop\n      pop\n      pop\n      jump\t// out\n        /* \"#utility.yul\":3907:4332   */\n    tag_43:\n        /* \"#utility.yul\":3985:3990   */\n      0x00\n        /* \"#utility.yul\":4010:4076   */\n      tag_109\n        /* \"#utility.yul\":4026:4075   */\n      tag_110\n        /* \"#utility.yul\":4068:4074   */\n      dup5\n        /* \"#utility.yul\":4026:4075   */\n      tag_41\n      jump\t// in\n    tag_110:\n        /* \"#utility.yul\":4010:4076   */\n      tag_40\n      jump\t// in\n    tag_109:\n        /* \"#utility.yul\":4001:4076   */\n      swap1\n      pop\n        /* \"#utility.yul\":4099:4105   */\n      dup3\n        /* \"#utility.yul\":4092:4097   */\n      dup2\n        /* \"#utility.yul\":4085:4106   */\n      mstore\n        /* \"#utility.yul\":4137:4141   */\n      0x20\n        /* \"#utility.yul\":4130:4135   */\n      dup2\n        /* \"#utility.yul\":4126:4142   */\n      add\n        /* \"#utility.yul\":4175:4178   */\n      dup5\n        /* \"#utility.yul\":4166:4172   */\n      dup5\n        /* \"#utility.yul\":4161:4164   */\n      dup5\n        /* \"#utility.yul\":4157:4173   */\n      add\n        /* \"#utility.yul\":4154:4179   */\n      gt\n        /* \"#utility.yul\":4151:4263   */\n      iszero\n      tag_111\n      jumpi\n        /* \"#utility.yul\":4182:4261   */\n      tag_112\n      tag_37\n      jump\t// in\n    tag_112:\n        /* \"#utility.yul\":4151:4263   */\n    tag_111:\n        /* \"#utility.yul\":4272:4326   */\n      tag_113\n        /* \"#utility.yul\":4319:4325   */\n      dup5\n        /* \"#utility.yul\":4314:4317   */\n      dup3\n        /* \"#utility.yul\":4309:4312   */\n      dup6\n        /* \"#utility.yul\":4272:4326   */\n      tag_42\n      jump\t// in\n    tag_113:\n        /* \"#utility.yul\":3991:4332   */\n      pop\n        /* \"#utility.yul\":3907:4332   */\n      swap4\n      swap3\n      pop\n      pop\n      pop\n      jump\t// out\n        /* \"#utility.yul\":4352:4692   */\n    tag_44:\n        /* \"#utility.yul\":4408:4413   */\n      0x00\n        /* \"#utility.yul\":4457:4460   */\n      dup3\n        /* \"#utility.yul\":4450:4454   */\n      0x1f\n        /* \"#utility.yul\":4442:4448   */\n      dup4\n        /* \"#utility.yul\":4438:4455   */\n      add\n        /* \"#utility.yul\":4434:4461   */\n      slt\n        /* \"#utility.yul\":4424:4546   */\n      tag_115\n      jumpi\n        /* \"#utility.yul\":4465:4544   */\n      tag_116\n      tag_36\n      jump\t// in\n    tag_116:\n        /* \"#utility.yul\":4424:4546   */\n    tag_115:\n        /* \"#utility.yul\":4582:4588   */\n      dup2\n        /* \"#utility.yul\":4569:4589   */\n      calldataload\n        /* \"#utility.yul\":4607:4686   */\n      tag_117\n        /* \"#utility.yul\":4682:4685   */\n      dup5\n        /* \"#utility.yul\":4674:4680   */\n      dup3\n        /* \"#utility.yul\":4667:4671   */\n      0x20\n        /* \"#utility.yul\":4659:4665   */\n      dup7\n        /* \"#utility.yul\":4655:4672   */\n      add\n        /* \"#utility.yul\":4607:4686   */\n      tag_43\n      jump\t// in\n    tag_117:\n        /* \"#utility.yul\":4598:4686   */\n      swap2\n      pop\n        /* \"#utility.yul\":4414:4692   */\n      pop\n        /* \"#utility.yul\":4352:4692   */\n      swap3\n      swap2\n      pop\n      pop\n      jump\t// out\n        /* \"#utility.yul\":4698:5493   */\n    tag_13:\n        /* \"#utility.yul\":4783:4789   */\n      0x00\n        /* \"#utility.yul\":4791:4797   */\n      dup1\n        /* \"#utility.yul\":4799:4805   */\n      0x00\n        /* \"#utility.yul\":4848:4850   */\n      0x60\n        /* \"#utility.yul\":4836:4845   */\n      dup5\n        /* \"#utility.yul\":4827:4834   */\n      dup7\n        /* \"#utility.yul\":4823:4846   */\n      sub\n        /* \"#utility.yul\":4819:4851   */\n      slt\n        /* \"#utility.yul\":4816:4935   */\n      iszero\n      tag_119\n      jumpi\n        /* \"#utility.yul\":4854:4933   */\n      tag_120\n      tag_25\n      jump\t// in\n    tag_120:\n        /* \"#utility.yul\":4816:4935   */\n    tag_119:\n        /* \"#utility.yul\":4974:4975   */\n      0x00\n        /* \"#utility.yul\":4999:5051   */\n      tag_121\n        /* \"#utility.yul\":5043:5050   */\n      dup7\n        /* \"#utility.yul\":5034:5040   */\n      dup3\n        /* \"#utility.yul\":5023:5032   */\n      dup8\n        /* \"#utility.yul\":5019:5041   */\n      add\n        /* \"#utility.yul\":4999:5051   */\n      tag_29\n      jump\t// in\n    tag_121:\n        /* \"#utility.yul\":4989:5051   */\n      swap4\n      pop\n        /* \"#utility.yul\":4945:5061   */\n      pop\n        /* \"#utility.yul\":5100:5102   */\n      0x20\n        /* \"#utility.yul\":5126:5178   */\n      tag_122\n        /* \"#utility.yul\":5170:5177   */\n      dup7\n        /* \"#utility.yul\":5161:5167   */\n      dup3\n        /* \"#utility.yul\":5150:5159   */\n      dup8\n        /* \"#utility.yul\":5146:5168   */\n      add\n        /* \"#utility.yul\":5126:5178   */\n      tag_29\n      jump\t// in\n    tag_122:\n        /* \"#utility.yul\":5116:5178   */\n      swap3\n      pop\n        /* \"#utility.yul\":5071:5188   */\n      pop\n        /* \"#utility.yul\":5255:5257   */\n      0x40\n        /* \"#utility.yul\":5244:5253   */\n      dup5\n        /* \"#utility.yul\":5240:5258   */\n      add\n        /* \"#utility.yul\":5227:5259   */\n      calldataload\n        /* \"#utility.yul\":5286:5304   */\n      0xffffffffffffffff\n        /* \"#utility.yul\":5278:5284   */\n      dup2\n        /* \"#utility.yul\":5275:5305   */\n      gt\n        /* \"#utility.yul\":5272:5389   */\n      iszero\n      tag_123\n      jumpi\n        /* \"#utility.yul\":5308:5387   */\n      tag_124\n      tag_26\n      jump\t// in\n    tag_124:\n        /* \"#utility.yul\":5272:5389   */\n    tag_123:\n        /* \"#utility.yul\":5413:5476   */\n      tag_125\n        /* \"#utility.yul\":5468:5475   */\n      dup7\n        /* \"#utility.yul\":5459:5465   */\n      dup3\n        /* \"#utility.yul\":5448:5457   */\n      dup8\n        /* \"#utility.yul\":5444:5466   */\n      add\n        /* \"#utility.yul\":5413:5476   */\n      tag_44\n      jump\t// in\n    tag_125:\n        /* \"#utility.yul\":5403:5476   */\n      swap2\n      pop\n        /* \"#utility.yul\":5198:5486   */\n      pop\n        /* \"#utility.yul\":4698:5493   */\n      swap3\n      pop\n      swap3\n      pop\n      swap3\n      jump\t// out\n        /* \"#utility.yul\":5499:5679   */\n    tag_45:\n        /* \"#utility.yul\":5547:5624   */\n      0x4e487b7100000000000000000000000000000000000000000000000000000000\n        /* \"#utility.yul\":5544:5545   */\n      0x00\n        /* \"#utility.yul\":5537:5625   */\n      mstore\n        /* \"#utility.yul\":5644:5648   */\n      0x22\n        /* \"#utility.yul\":5641:5642   */\n      0x04\n        /* \"#utility.yul\":5634:5649   */\n      mstore\n        /* \"#utility.yul\":5668:5672   */\n      0x24\n        /* \"#utility.yul\":5665:5666   */\n      0x00\n        /* \"#utility.yul\":5658:5673   */\n      revert\n        /* \"#utility.yul\":5685:6005   */\n    tag_16:\n        /* \"#utility.yul\":5729:5735   */\n      0x00\n        /* \"#utility.yul\":5766:5767   */\n      0x02\n        /* \"#utility.yul\":5760:5764   */\n      dup3\n        /* \"#utility.yul\":5756:5768   */\n      div\n        /* \"#utility.yul\":5746:5768   */\n      swap1\n      pop\n        /* \"#utility.yul\":5813:5814   */\n      0x01\n        /* \"#utility.yul\":5807:5811   */\n      dup3\n        /* \"#utility.yul\":5803:5815   */\n      and\n        /* \"#utility.yul\":5834:5852   */\n      dup1\n        /* \"#utility.yul\":5824:5905   */\n      tag_128\n      jumpi\n        /* \"#utility.yul\":5890:5894   */\n      0x7f\n        /* \"#utility.yul\":5882:5888   */\n      dup3\n        /* \"#utility.yul\":5878:5895   */\n      and\n        /* \"#utility.yul\":5868:5895   */\n      swap2\n      pop\n        /* \"#utility.yul\":5824:5905   */\n    tag_128:\n        /* \"#utility.yul\":5952:5954   */\n      0x20\n        /* \"#utility.yul\":5944:5950   */\n      dup3\n        /* \"#utility.yul\":5941:5955   */\n      lt\n        /* \"#utility.yul\":5921:5939   */\n      dup2\n        /* \"#utility.yul\":5918:5956   */\n      sub\n        /* \"#utility.yul\":5915:5999   */\n      tag_129\n      jumpi\n        /* \"#utility.yul\":5971:5989   */\n      tag_130\n      tag_45\n      jump\t// in\n    tag_130:\n        /* \"#utility.yul\":5915:5999   */\n    tag_129:\n        /* \"#utility.yul\":5736:6005   */\n      pop\n        /* \"#utility.yul\":5685:6005   */\n      swap2\n      swap1\n      pop\n      jump\t// out\n        /* \"#utility.yul\":6011:6152   */\n    tag_46:\n        /* \"#utility.yul\":6060:6064   */\n      0x00\n        /* \"#utility.yul\":6083:6086   */\n      dup2\n        /* \"#utility.yul\":6075:6086   */\n      swap1\n      pop\n        /* \"#utility.yul\":6106:6109   */\n      dup2\n        /* \"#utility.yul\":6103:6104   */\n      0x00\n        /* \"#utility.yul\":6096:6110   */\n      mstore\n        /* \"#utility.yul\":6140:6144   */\n      0x20\n        /* \"#utility.yul\":6137:6138   */\n      0x00\n        /* \"#utility.yul\":6127:6145   */\n      keccak256\n        /* \"#utility.yul\":6119:6145   */\n      swap1\n      pop\n        /* \"#utility.yul\":6011:6152   */\n      swap2\n      swap1\n      pop\n      jump\t// out\n        /* \"#utility.yul\":6158:6251   */\n    tag_47:\n        /* \"#utility.yul\":6195:6201   */\n      0x00\n        /* \"#utility.yul\":6242:6244   */\n      0x20\n        /* \"#utility.yul\":6237:6239   */\n      0x1f\n        /* \"#utility.yul\":6230:6235   */\n      dup4\n        /* \"#utility.yul\":6226:6240   */\n      add\n        /* \"#utility.yul\":6222:6245   */\n      div\n        /* \"#utility.yul\":6212:6245   */\n      swap1\n      pop\n        /* \"#utility.yul\":6158:6251   */\n      swap2\n      swap1\n      pop\n      jump\t// out\n        /* \"#utility.yul\":6257:6364   */\n    tag_48:\n        /* \"#utility.yul\":6301:6309   */\n      0x00\n        /* \"#utility.yul\":6351:6356   */\n      dup3\n        /* \"#utility.yul\":6345:6349   */\n      dup3\n        /* \"#utility.yul\":6341:6357   */\n      shl\n        /* \"#utility.yul\":6320:6357   */\n      swap1\n      pop\n        /* \"#utility.yul\":6257:6364   */\n      swap3\n      swap2\n      pop\n      pop\n      jump\t// out\n        /* \"#utility.yul\":6370:6763   */\n    tag_49:\n        /* \"#utility.yul\":6439:6445   */\n      0x00\n        /* \"#utility.yul\":6489:6490   */\n      0x08\n        /* \"#utility.yul\":6477:6487   */\n      dup4\n        /* \"#utility.yul\":6473:6491   */\n      mul\n        /* \"#utility.yul\":6512:6609   */\n      tag_135\n        /* \"#utility.yul\":6542:6608   */\n      0xffffffffffffffffffffffffffffffffffffffffffffffffffffffffffffffff\n        /* \"#utility.yul\":6531:6540   */\n      dup3\n        /* \"#utility.yul\":6512:6609   */\n      tag_48\n      jump\t// in\n    tag_135:\n        /* \"#utility.yul\":6630:6669   */\n      tag_136\n        /* \"#utility.yul\":6660:6668   */\n      dup7\n        /* \"#utility.yul\":6649:6658   */\n      dup4\n        /* \"#utility.yul\":6630:6669   */\n      tag_48\n      jump\t// in\n    tag_136:\n        /* \"#utility.yul\":6618:6669   */\n      swap6\n      pop\n        /* \"#utility.yul\":6702:6706   */\n      dup1\n        /* \"#utility.yul\":6698:6707   */\n      not\n        /* \"#utility.yul\":6691:6696   */\n      dup5\n        /* \"#utility.yul\":6687:6708   */\n      and\n        /* \"#utility.yul\":6678:6708   */\n      swap4\n      pop\n        /* \"#utility.yul\":6751:6755   */\n      dup1\n        /* \"#utility.yul\":6741:6749   */\n      dup7\n        /* \"#utility.yul\":6737:6756   */\n      and\n        /* \"#utility.yul\":6730:6735   */\n      dup5\n        /* \"#utility.yul\":6727:6757   */\n      or\n        /* \"#utility.yul\":6717:6757   */\n      swap3\n      pop\n        /* \"#utility.yul\":6446:6763   */\n      pop\n      pop\n        /* \"#utility.yul\":6370:6763   */\n      swap4\n      swap3\n      pop\n      pop\n      pop\n      jump\t// out\n        /* \"#utility.yul\":6769:6846   */\n    tag_50:\n        /* \"#utility.yul\":6806:6813   */\n      0x00\n        /* \"#utility.yul\":6835:6840   */\n      dup2\n        /* \"#utility.yul\":6824:6840   */\n      swap1\n      pop\n        /* \"#utility.yul\":6769:6846   */\n      swap2\n      swap1\n      pop\n      jump\t// out\n        /* \"#utility.yul\":6852:6912   */\n    tag_51:\n        /* \"#utility.yul\":6880:6883   */\n      0x00\n        /* \"#utility.yul\":6901:6906   */\n      dup2\n        /* \"#utility.yul\":6894:6906   */\n      swap1\n      pop\n        /* \"#utility.yul\":6852:6912   */\n      swap2\n      swap1\n      pop\n      jump\t// out\n        /* \"#utility.yul\":6918:7060   */\n    tag_52:\n        /* \"#utility.yul\":6968:6977   */\n      0x00\n        /* \"#utility.yul\":7001:7054   */\n      tag_140\n        /* \"#utility.yul\":7019:7053   */\n      tag_141\n        /* \"#utility.yul\":7028:7052   */\n      tag_142\n        /* \"#utility.yul\":7046:7051   */\n      dup5\n        /* \"#utility.yul\":7028:7052   */\n      tag_50\n      jump\t// in\n    tag_142:\n        /* \"#utility.yul\":7019:7053   */\n      tag_51\n      jump\t// in\n    tag_141:\n        /* \"#utility.yul\":7001:7054   */\n      tag_50\n      jump\t// in\n    tag_140:\n        /* \"#utility.yul\":6988:7054   */\n      swap1\n      pop\n        /* \"#utility.yul\":6918:7060   */\n      swap2\n      swap1\n      pop\n      jump\t// out\n        /* \"#utility.yul\":7066:7141   */\n    tag_53:\n        /* \"#utility.yul\":7109:7112   */\n      0x00\n        /* \"#utility.yul\":7130:7135   */\n      dup2\n        /* \"#utility.yul\":7123:7135   */\n      swap1\n      pop\n        /* \"#utility.yul\":7066:7141   */\n      swap2\n      swap1\n      pop\n      jump\t// out\n        /* \"#utility.yul\":7147:7416   */\n    tag_54:\n        /* \"#utility.yul\":7257:7296   */\n      tag_145\n        /* \"#utility.yul\":7288:7295   */\n      dup4\n        /* \"#utility.yul\":7257:7296   */\n      tag_52\n      jump\t// in\n    tag_145:\n        /* \"#utility.yul\":7318:7409   */\n      tag_146\n        /* \"#utility.yul\":7367:7408   */\n      tag_147\n        /* \"#utility.yul\":7391:7407   */\n      dup3\n        /* \"#utility.yul\":7367:7408   */\n      tag_53\n      jump\t// in\n    tag_147:\n        /* \"#utility.yul\":7359:7365   */\n      dup5\n        /* \"#utility.yul\":7352:7356   */\n      dup5\n        /* \"#utility.yul\":7346:7357   */\n      sload\n        /* \"#utility.yul\":7318:7409   */\n      tag_49\n      jump\t// in\n    tag_146:\n        /* \"#utility.yul\":7312:7316   */\n      dup3\n        /* \"#utility.yul\":7305:7410   */\n      sstore\n        /* \"#utility.yul\":7223:7416   */\n      pop\n        /* \"#utility.yul\":7147:7416   */\n      pop\n      pop\n      pop\n      jump\t// out\n        /* \"#utility.yul\":7422:7495   */\n    tag_55:\n        /* \"#utility.yul\":7467:7470   */\n      0x00\n        /* \"#utility.yul\":7422:7495   */\n      swap1\n      jump\t// out\n        /* \"#utility.yul\":7501:7690   */\n    tag_56:\n        /* \"#utility.yul\":7578:7610   */\n      tag_150\n      tag_55\n      jump\t// in\n    tag_150:\n        /* \"#utility.yul\":7619:7684   */\n      tag_151\n        /* \"#utility.yul\":7677:7683   */\n      dup2\n        /* \"#utility.yul\":7669:7675   */\n      dup5\n        /* \"#utility.yul\":7663:7667   */\n      dup5\n        /* \"#utility.yul\":7619:7684   */\n      tag_54\n      jump\t// in\n    tag_151:\n        /* \"#utility.yul\":7554:7690   */\n      pop\n        /* \"#utility.yul\":7501:7690   */\n      pop\n      pop\n      jump\t// out\n        /* \"#utility.yul\":7696:7882   */\n    tag_57:\n        /* \"#utility.yul\":7756:7876   */\n    tag_153:\n        /* \"#utility.yul\":7773:7776   */\n      dup2\n        /* \"#utility.yul\":7766:7771   */\n      dup2\n        /* \"#utility.yul\":7763:7777   */\n      lt\n        /* \"#utility.yul\":7756:7876   */\n      iszero\n      tag_155\n      jumpi\n        /* \"#utility.yul\":7827:7866   */\n      tag_156\n        /* \"#utility.yul\":7864:7865   */\n      0x00\n        /* \"#utility.yul\":7857:7862   */\n      dup3\n        /* \"#utility.yul\":7827:7866   */\n      tag_56\n      jump\t// in\n    tag_156:\n        /* \"#utility.yul\":7800:7801   */\n      0x01\n        /* \"#utility.yul\":7793:7798   */\n      dup2\n        /* \"#utility.yul\":7789:7802   */\n      add\n        /* \"#utility.yul\":7780:7802   */\n      swap1\n      pop\n        /* \"#utility.yul\":7756:7876   */\n      jump(tag_153)\n    tag_155:\n        /* \"#utility.yul\":7696:7882   */\n      pop\n      pop\n      jump\t// out\n        /* \"#utility.yul\":7888:8431   */\n    tag_58:\n        /* \"#utility.yul\":7989:7991   */\n      0x1f\n        /* \"#utility.yul\":7984:7987   */\n      dup3\n        /* \"#utility.yul\":7981:7992   */\n      gt\n        /* \"#utility.yul\":7978:8424   */\n      iszero\n      tag_158\n      jumpi\n        /* \"#utility.yul\":8023:8061   */\n      tag_159\n        /* \"#utility.yul\":8055:8060   */\n      dup2\n        /* \"#utility.yul\":8023:8061   */\n      tag_46\n      jump\t// in\n    tag_159:\n        /* \"#utility.yul\":8107:8136   */\n      tag_160\n        /* \"#utility.yul\":8125:8135   */\n      dup5\n        /* \"#utility.yul\":8107:8136   */\n      tag_47\n      jump\t// in\n    tag_160:\n        /* \"#utility.yul\":8097:8105   */\n      dup2\n        /* \"#utility.yul\":8093:8137   */\n      add\n        /* \"#utility.yul\":8290:8292   */\n      0x20\n        /* \"#utility.yul\":8278:8288   */\n      dup6\n        /* \"#utility.yul\":8275:8293   */\n      lt\n        /* \"#utility.yul\":8272:8321   */\n      iszero\n      tag_161\n      jumpi\n        /* \"#utility.yul\":8311:8319   */\n      dup2\n        /* \"#utility.yul\":8296:8319   */\n      swap1\n      pop\n        /* \"#utility.yul\":8272:8321   */\n    tag_161:\n        /* \"#utility.yul\":8334:8414   */\n      tag_162\n        /* \"#utility.yul\":8390:8412   */\n      tag_163\n        /* \"#utility.yul\":8408:8411   */\n      dup6\n        /* \"#utility.yul\":8390:8412   */\n      tag_47\n      jump\t// in\n    tag_163:\n        /* \"#utility.yul\":8380:8388   */\n      dup4\n        /* \"#utility.yul\":8376:8413   */\n      add\n        /* \"#utility.yul\":8363:8374   */\n      dup3\n        /* \"#utility.yul\":8334:8414   */\n      tag_57\n      jump\t// in\n    tag_162:\n        /* \"#utility.yul\":7993:8424   */\n      pop\n      pop\n        /* \"#utility.yul\":7978:8424   */\n    tag_158:\n        /* \"#utility.yul\":7888:8431   */\n      pop\n      pop\n      pop\n      jump\t// out\n        /* \"#utility.yul\":8437:8554   */\n    tag_59:\n        /* \"#utility.yul\":8491:8499   */\n      0x00\n        /* \"#utility.yul\":8541:8546   */\n      dup3\n        /* \"#utility.yul\":8535:8539   */\n      dup3\n        /* \"#utility.yul\":8531:8547   */\n      shr\n        /* \"#utility.yul\":8510:8547   */\n      swap1\n      pop\n        /* \"#utility.yul\":8437:8554   */\n      swap3\n      swap2\n      pop\n      pop\n      jump\t// out\n        /* \"#utility.yul\":8560:8729   */\n    tag_60:\n        /* \"#utility.yul\":8604:8610   */\n      0x00\n        /* \"#utility.yul\":8637:8688   */\n      tag_166\n        /* \"#utility.yul\":8685:8686   */\n      0x00\n        /* \"#utility.yul\":8681:8687   */\n      not\n        /* \"#utility.yul\":8673:8678   */\n      dup5\n        /* \"#utility.yul\":8670:8671   */\n      0x08\n        /* \"#utility.yul\":8666:8679   */\n      mul\n        /* \"#utility.yul\":8637:8688   */\n      tag_59\n      jump\t// in\n    tag_166:\n        /* \"#utility.yul\":8633:8689   */\n      not\n        /* \"#utility.yul\":8718:8722   */\n      dup1\n        /* \"#utility.yul\":8712:8716   */\n      dup4\n        /* \"#utility.yul\":8708:8723   */\n      and\n        /* \"#utility.yul\":8698:8723   */\n      swap2\n      pop\n        /* \"#utility.yul\":8611:8729   */\n      pop\n        /* \"#utility.yul\":8560:8729   */\n      swap3\n      swap2\n      pop\n      pop\n      jump\t// out\n        /* \"#utility.yul\":8734:9029   */\n    tag_61:\n        /* \"#utility.yul\":8810:8814   */\n      0x00\n        /* \"#utility.yul\":8956:8985   */\n      tag_168\n        /* \"#utility.yul\":8981:8984   */\n      dup4\n        /* \"#utility.yul\":8975:8979   */\n      dup4\n        /* \"#utility.yul\":8956:8985   */\n      tag_60\n      jump\t// in\n    tag_168:\n        /* \"#utility.yul\":8948:8985   */\n      swap2\n      pop\n        /* \"#utility.yul\":9018:9021   */\n      dup3\n        /* \"#utility.yul\":9015:9016   */\n      0x02\n        /* \"#utility.yul\":9011:9022   */\n      mul\n        /* \"#utility.yul\":9005:9009   */\n      dup3\n        /* \"#utility.yul\":9002:9023   */\n      or\n        /* \"#utility.yul\":8994:9023   */\n      swap1\n      pop\n        /* \"#utility.yul\":8734:9029   */\n      swap3\n      swap2\n      pop\n      pop\n      jump\t// out\n        /* \"#utility.yul\":9034:10429   */\n    tag_23:\n        /* \"#utility.yul\":9151:9188   */\n      tag_170\n        /* \"#utility.yul\":9184:9187   */\n      dup3\n        /* \"#utility.yul\":9151:9188   */\n      tag_30\n      jump\t// in\n    tag_170:\n        /* \"#utility.yul\":9253:9271   */\n      0xffffffffffffffff\n        /* \"#utility.yul\":9245:9251   */\n      dup2\n        /* \"#utility.yul\":9242:9272   */\n      gt\n        /* \"#utility.yul\":9239:9295   */\n      iszero\n      tag_171\n      jumpi\n        /* \"#utility.yul\":9275:9293   */\n      tag_172\n      tag_38\n      jump\t// in\n    tag_172:\n        /* \"#utility.yul\":9239:9295   */\n    tag_171:\n        /* \"#utility.yul\":9319:9357   */\n      tag_173\n        /* \"#utility.yul\":9351:9355   */\n      dup3\n        /* \"#utility.yul\":9345:9356   */\n      sload\n        /* \"#utility.yul\":9319:9357   */\n      tag_16\n      jump\t// in\n    tag_173:\n        /* \"#utility.yul\":9404:9471   */\n      tag_174\n        /* \"#utility.yul\":9464:9470   */\n      dup3\n        /* \"#utility.yul\":9456:9462   */\n      dup3\n        /* \"#utility.yul\":9450:9454   */\n      dup6\n        /* \"#utility.yul\":9404:9471   */\n      tag_58\n      jump\t// in\n    tag_174:\n        /* \"#utility.yul\":9498:9499   */\n      0x00\n        /* \"#utility.yul\":9522:9526   */\n      0x20\n        /* \"#utility.yul\":9509:9526   */\n      swap1\n      pop\n        /* \"#utility.yul\":9554:9556   */\n      0x1f\n        /* \"#utility.yul\":9546:9552   */\n      dup4\n        /* \"#utility.yul\":9543:9557   */\n      gt\n        /* \"#utility.yul\":9571:9572   */\n      0x01\n        /* \"#utility.yul\":9566:10184   */\n      dup2\n      eq\n      tag_176\n      jumpi\n        /* \"#utility.yul\":10228:10229   */\n      0x00\n        /* \"#utility.yul\":10245:10251   */\n      dup5\n        /* \"#utility.yul\":10242:10319   */\n      iszero\n      tag_177\n      jumpi\n        /* \"#utility.yul\":10294:10303   */\n      dup3\n        /* \"#utility.yul\":10289:10292   */\n      dup8\n        /* \"#utility.yul\":10285:10304   */\n      add\n        /* \"#utility.yul\":10279:10305   */\n      mload\n        /* \"#utility.yul\":10270:10305   */\n      swap1\n      pop\n        /* \"#utility.yul\":10242:10319   */\n    tag_177:\n        /* \"#utility.yul\":10345:10412   */\n      tag_178\n        /* \"#utility.yul\":10405:10411   */\n      dup6\n        /* \"#utility.yul\":10398:10403   */\n      dup3\n        /* \"#utility.yul\":10345:10412   */\n      tag_61\n      jump\t// in\n    tag_178:\n        /* \"#utility.yul\":10339:10343   */\n      dup7\n        /* \"#utility.yul\":10332:10413   */\n      sstore\n        /* \"#utility.yul\":10201:10423   */\n      pop\n        /* \"#utility.yul\":9536:10423   */\n      jump(tag_175)\n        /* \"#utility.yul\":9566:10184   */\n    tag_176:\n        /* \"#utility.yul\":9618:9622   */\n      0x1f\n        /* \"#utility.yul\":9614:9623   */\n      not\n        /* \"#utility.yul\":9606:9612   */\n      dup5\n        /* \"#utility.yul\":9602:9624   */\n      and\n        /* \"#utility.yul\":9652:9689   */\n      tag_179\n        /* \"#utility.yul\":9684:9688   */\n      dup7\n        /* \"#utility.yul\":9652:9689   */\n      tag_46\n      jump\t// in\n    tag_179:\n        /* \"#utility.yul\":9711:9712   */\n      0x00\n        /* \"#utility.yul\":9725:9933   */\n    tag_180:\n        /* \"#utility.yul\":9739:9746   */\n      dup3\n        /* \"#utility.yul\":9736:9737   */\n      dup2\n        /* \"#utility.yul\":9733:9747   */\n      lt\n        /* \"#utility.yul\":9725:9933   */\n      iszero\n      tag_182\n      jumpi\n        /* \"#utility.yul\":9818:9827   */\n      dup5\n        /* \"#utility.yul\":9813:9816   */\n      dup10\n        /* \"#utility.yul\":9809:9828   */\n      add\n        /* \"#utility.yul\":9803:9829   */\n      mload\n        /* \"#utility.yul\":9795:9801   */\n      dup3\n        /* \"#utility.yul\":9788:9830   */\n      sstore\n        /* \"#utility.yul\":9869:9870   */\n      0x01\n        /* \"#utility.yul\":9861:9867   */\n      dup3\n        /* \"#utility.yul\":9857:9871   */\n      add\n        /* \"#utility.yul\":9847:9871   */\n      swap2\n      pop\n        /* \"#utility.yul\":9916:9918   */\n      0x20\n        /* \"#utility.yul\":9905:9914   */\n      dup6\n        /* \"#utility.yul\":9901:9919   */\n      add\n        /* \"#utility.yul\":9888:9919   */\n      swap5\n      pop\n        /* \"#utility.yul\":9762:9766   */\n      0x20\n        /* \"#utility.yul\":9759:9760   */\n      dup2\n        /* \"#utility.yul\":9755:9767   */\n      add\n        /* \"#utility.yul\":9750:9767   */\n      swap1\n      pop\n        /* \"#utility.yul\":9725:9933   */\n      jump(tag_180)\n    tag_182:\n        /* \"#utility.yul\":9961:9967   */\n      dup7\n        /* \"#utility.yul\":9952:9959   */\n      dup4\n        /* \"#utility.yul\":9949:9968   */\n      lt\n        /* \"#utility.yul\":9946:10125   */\n      iszero\n      tag_183\n      jumpi\n        /* \"#utility.yul\":10019:10028   */\n      dup5\n        /* \"#utility.yul\":10014:10017   */\n      dup10\n        /* \"#utility.yul\":10010:10029   */\n      add\n        /* \"#utility.yul\":10004:10030   */\n      mload\n        /* \"#utility.yul\":10062:10110   */\n      tag_184\n        /* \"#utility.yul\":10104:10108   */\n      0x1f\n        /* \"#utility.yul\":10096:10102   */\n      dup10\n        /* \"#utility.yul\":10092:10109   */\n      and\n        /* \"#utility.yul\":10081:10090   */\n      dup3\n        /* \"#utility.yul\":10062:10110   */\n      tag_60\n      jump\t// in\n    tag_184:\n        /* \"#utility.yul\":10054:10060   */\n      dup4\n        /* \"#utility.yul\":10047:10111   */\n      sstore\n        /* \"#utility.yul\":9969:10125   */\n      pop\n        /* \"#utility.yul\":9946:10125   */\n    tag_183:\n        /* \"#utility.yul\":10171:10172   */\n      0x01\n        /* \"#utility.yul\":10167:10168   */\n      0x02\n        /* \"#utility.yul\":10159:10165   */\n      dup9\n        /* \"#utility.yul\":10155:10169   */\n      mul\n        /* \"#utility.yul\":10151:10173   */\n      add\n        /* \"#utility.yul\":10145:10149   */\n      dup9\n        /* \"#utility.yul\":10138:10174   */\n      sstore\n        /* \"#utility.yul\":9573:10184   */\n      pop\n      pop\n      pop\n        /* \"#utility.yul\":9536:10423   */\n    tag_175:\n      pop\n        /* \"#utility.yul\":9126:10429   */\n      pop\n      pop\n      pop\n        /* \"#utility.yul\":9034:10429   */\n      pop\n      pop\n      jump\t// out\n\n    auxdata: 0xa26469706673582212203028943e550727232c18e6504e068a02ae62d8ee9a28b4dcdcfd1bd033cade3e64736f6c63430008160033\n}\n",
				"bytecode": {
					"linkReferences": {},
					"object": "608060405234801561000f575f80fd5b5061074b8061001d5f395ff3fe608060405234801561000f575f80fd5b5060043610610034575f3560e01c80639398e0cd14610038578063998b654814610069575b5f80fd5b610052600480360381019061004d91906101b9565b610085565b60405161006092919061027d565b60405180910390f35b610083600480360381019061007e91906103d7565b61012a565b005b5f602052805f5260405f205f91509050805f0180546100a390610470565b80601f01602080910402602001604051908101604052809291908181526020018280546100cf90610470565b801561011a5780601f106100f15761010080835404028352916020019161011a565b820191905f5260205f20905b8154815290600101906020018083116100fd57829003601f168201915b5050505050908060010154905082565b6040518060400160405280828152602001838152505f808581526020019081526020015f205f820151815f0190816101629190610646565b5060208201518160010155905050505050565b5f604051905090565b5f80fd5b5f80fd5b5f819050919050565b61019881610186565b81146101a2575f80fd5b50565b5f813590506101b38161018f565b92915050565b5f602082840312156101ce576101cd61017e565b5b5f6101db848285016101a5565b91505092915050565b5f81519050919050565b5f82825260208201905092915050565b5f5b8381101561021b578082015181840152602081019050610200565b5f8484015250505050565b5f601f19601f8301169050919050565b5f610240826101e4565b61024a81856101ee565b935061025a8185602086016101fe565b61026381610226565b840191505092915050565b61027781610186565b82525050565b5f6040820190508181035f8301526102958185610236565b90506102a4602083018461026e565b9392505050565b5f80fd5b5f80fd5b7f4e487b71000000000000000000000000000000000000000000000000000000005f52604160045260245ffd5b6102e982610226565b810181811067ffffffffffffffff82111715610308576103076102b3565b5b80604052505050565b5f61031a610175565b905061032682826102e0565b919050565b5f67ffffffffffffffff821115610345576103446102b3565b5b61034e82610226565b9050602081019050919050565b828183375f83830152505050565b5f61037b6103768461032b565b610311565b905082815260208101848484011115610397576103966102af565b5b6103a284828561035b565b509392505050565b5f82601f8301126103be576103bd6102ab565b5b81356103ce848260208601610369565b91505092915050565b5f805f606084860312156103ee576103ed61017e565b5b5f6103fb868287016101a5565b935050602061040c868287016101a5565b925050604084013567ffffffffffffffff81111561042d5761042c610182565b5b610439868287016103aa565b9150509250925092565b7f4e487b71000000000000000000000000000000000000000000000000000000005f52602260045260245ffd5b5f600282049050600182168061048757607f821691505b60208210810361049a57610499610443565b5b50919050565b5f819050815f5260205f209050919050565b5f6020601f8301049050919050565b5f82821b905092915050565b5f600883026104fc7fffffffffffffffffffffffffffffffffffffffffffffffffffffffffffffffff826104c1565b61050686836104c1565b95508019841693508086168417925050509392505050565b5f819050919050565b5f819050919050565b5f61054a6105456105408461051e565b610527565b61051e565b9050919050565b5f819050919050565b61056383610530565b61057761056f82610551565b8484546104cd565b825550505050565b5f90565b61058b61057f565b61059681848461055a565b505050565b5b818110156105b9576105ae5f82610583565b60018101905061059c565b5050565b601f8211156105fe576105cf816104a0565b6105d8846104b2565b810160208510156105e7578190505b6105fb6105f3856104b2565b83018261059b565b50505b505050565b5f82821c905092915050565b5f61061e5f1984600802610603565b1980831691505092915050565b5f610636838361060f565b9150826002028217905092915050565b61064f826101e4565b67ffffffffffffffff811115610668576106676102b3565b5b6106728254610470565b61067d8282856105bd565b5f60209050601f8311600181146106ae575f841561069c578287015190505b6106a6858261062b565b86555061070d565b601f1984166106bc866104a0565b5f5b828110156106e3578489015182556001820191506020850194506020810190506106be565b8683101561070057848901516106fc601f89168261060f565b8355505b6001600288020188555050505b50505050505056fea26469706673582212203028943e550727232c18e6504e068a02ae62d8ee9a28b4dcdcfd1bd033cade3e64736f6c63430008160033",
					"opcodes": "PUSH1 0x80 PUSH1 0x40 MSTORE CALLVALUE DUP1 ISZERO PUSH2 0xF JUMPI PUSH0 DUP1 REVERT JUMPDEST POP PUSH2 0x74B DUP1 PUSH2 0x1D PUSH0 CODECOPY PUSH0 RETURN INVALID PUSH1 0x80 PUSH1 0x40 MSTORE CALLVALUE DUP1 ISZERO PUSH2 0xF JUMPI PUSH0 DUP1 REVERT JUMPDEST POP PUSH1 0x4 CALLDATASIZE LT PUSH2 0x34 JUMPI PUSH0 CALLDATALOAD PUSH1 0xE0 SHR DUP1 PUSH4 0x9398E0CD EQ PUSH2 0x38 JUMPI DUP1 PUSH4 0x998B6548 EQ PUSH2 0x69 JUMPI JUMPDEST PUSH0 DUP1 REVERT JUMPDEST PUSH2 0x52 PUSH1 0x4 DUP1 CALLDATASIZE SUB DUP2 ADD SWAP1 PUSH2 0x4D SWAP2 SWAP1 PUSH2 0x1B9 JUMP JUMPDEST PUSH2 0x85 JUMP JUMPDEST PUSH1 0x40 MLOAD PUSH2 0x60 SWAP3 SWAP2 SWAP1 PUSH2 0x27D JUMP JUMPDEST PUSH1 0x40 MLOAD DUP1 SWAP2 SUB SWAP1 RETURN JUMPDEST PUSH2 0x83 PUSH1 0x4 DUP1 CALLDATASIZE SUB DUP2 ADD SWAP1 PUSH2 0x7E SWAP2 SWAP1 PUSH2 0x3D7 JUMP JUMPDEST PUSH2 0x12A JUMP JUMPDEST STOP JUMPDEST PUSH0 PUSH1 0x20 MSTORE DUP1 PUSH0 MSTORE PUSH1 0x40 PUSH0 KECCAK256 PUSH0 SWAP2 POP SWAP1 POP DUP1 PUSH0 ADD DUP1 SLOAD PUSH2 0xA3 SWAP1 PUSH2 0x470 JUMP JUMPDEST DUP1 PUSH1 0x1F ADD PUSH1 0x20 DUP1 SWAP2 DIV MUL PUSH1 0x20 ADD PUSH1 0x40 MLOAD SWAP1 DUP2 ADD PUSH1 0x40 MSTORE DUP1 SWAP3 SWAP2 SWAP1 DUP2 DUP2 MSTORE PUSH1 0x20 ADD DUP3 DUP1 SLOAD PUSH2 0xCF SWAP1 PUSH2 0x470 JUMP JUMPDEST DUP1 ISZERO PUSH2 0x11A JUMPI DUP1 PUSH1 0x1F LT PUSH2 0xF1 JUMPI PUSH2 0x100 DUP1 DUP4 SLOAD DIV MUL DUP4 MSTORE SWAP2 PUSH1 0x20 ADD SWAP2 PUSH2 0x11A JUMP JUMPDEST DUP3 ADD SWAP2 SWAP1 PUSH0 MSTORE PUSH1 0x20 PUSH0 KECCAK256 SWAP1 JUMPDEST DUP2 SLOAD DUP2 MSTORE SWAP1 PUSH1 0x1 ADD SWAP1 PUSH1 0x20 ADD DUP1 DUP4 GT PUSH2 0xFD JUMPI DUP3 SWAP1 SUB PUSH1 0x1F AND DUP3 ADD SWAP2 JUMPDEST POP POP POP POP POP SWAP1 DUP1 PUSH1 0x1 ADD SLOAD SWAP1 POP DUP3 JUMP JUMPDEST PUSH1 0x40 MLOAD DUP1 PUSH1 0x40 ADD PUSH1 0x40 MSTORE DUP1 DUP3 DUP2 MSTORE PUSH1 0x20 ADD DUP4 DUP2 MSTORE POP PUSH0 DUP1 DUP6 DUP2 MSTORE PUSH1 0x20 ADD SWAP1 DUP2 MSTORE PUSH1 0x20 ADD PUSH0 KECCAK256 PUSH0 DUP3 ADD MLOAD DUP2 PUSH0 ADD SWAP1 DUP2 PUSH2 0x162 SWAP2 SWAP1 PUSH2 0x646 JUMP JUMPDEST POP PUSH1 0x20 DUP3 ADD MLOAD DUP2 PUSH1 0x1 ADD SSTORE SWAP1 POP POP POP POP POP JUMP JUMPDEST PUSH0 PUSH1 0x40 MLOAD SWAP1 POP SWAP1 JUMP JUMPDEST PUSH0 DUP1 REVERT JUMPDEST PUSH0 DUP1 REVERT JUMPDEST PUSH0 DUP2 SWAP1 POP SWAP2 SWAP1 POP JUMP JUMPDEST PUSH2 0x198 DUP2 PUSH2 0x186 JUMP JUMPDEST DUP2 EQ PUSH2 0x1A2 JUMPI PUSH0 DUP1 REVERT JUMPDEST POP JUMP JUMPDEST PUSH0 DUP2 CALLDATALOAD SWAP1 POP PUSH2 0x1B3 DUP2 PUSH2 0x18F JUMP JUMPDEST SWAP3 SWAP2 POP POP JUMP JUMPDEST PUSH0 PUSH1 0x20 DUP3 DUP5 SUB SLT ISZERO PUSH2 0x1CE JUMPI PUSH2 0x1CD PUSH2 0x17E JUMP JUMPDEST JUMPDEST PUSH0 PUSH2 0x1DB DUP5 DUP3 DUP6 ADD PUSH2 0x1A5 JUMP JUMPDEST SWAP2 POP POP SWAP3 SWAP2 POP POP JUMP JUMPDEST PUSH0 DUP2 MLOAD SWAP1 POP SWAP2 SWAP1 POP JUMP JUMPDEST PUSH0 DUP3 DUP3 MSTORE PUSH1 0x20 DUP3 ADD SWAP1 POP SWAP3 SWAP2 POP POP JUMP JUMPDEST PUSH0 JUMPDEST DUP4 DUP2 LT ISZERO PUSH2 0x21B JUMPI DUP1 DUP3 ADD MLOAD DUP2 DUP5 ADD MSTORE PUSH1 0x20 DUP2 ADD SWAP1 POP PUSH2 0x200 JUMP JUMPDEST PUSH0 DUP5 DUP5 ADD MSTORE POP POP POP POP JUMP JUMPDEST PUSH0 PUSH1 0x1F NOT PUSH1 0x1F DUP4 ADD AND SWAP1 POP SWAP2 SWAP1 POP JUMP JUMPDEST PUSH0 PUSH2 0x240 DUP3 PUSH2 0x1E4 JUMP JUMPDEST PUSH2 0x24A DUP2 DUP6 PUSH2 0x1EE JUMP JUMPDEST SWAP4 POP PUSH2 0x25A DUP2 DUP6 PUSH1 0x20 DUP7 ADD PUSH2 0x1FE JUMP JUMPDEST PUSH2 0x263 DUP2 PUSH2 0x226 JUMP JUMPDEST DUP5 ADD SWAP2 POP POP SWAP3 SWAP2 POP POP JUMP JUMPDEST PUSH2 0x277 DUP2 PUSH2 0x186 JUMP JUMPDEST DUP3 MSTORE POP POP JUMP JUMPDEST PUSH0 PUSH1 0x40 DUP3 ADD SWAP1 POP DUP2 DUP2 SUB PUSH0 DUP4 ADD MSTORE PUSH2 0x295 DUP2 DUP6 PUSH2 0x236 JUMP JUMPDEST SWAP1 POP PUSH2 0x2A4 PUSH1 0x20 DUP4 ADD DUP5 PUSH2 0x26E JUMP JUMPDEST SWAP4 SWAP3 POP POP POP JUMP JUMPDEST PUSH0 DUP1 REVERT JUMPDEST PUSH0 DUP1 REVERT JUMPDEST PUSH32 0x4E487B7100000000000000000000000000000000000000000000000000000000 PUSH0 MSTORE PUSH1 0x41 PUSH1 0x4 MSTORE PUSH1 0x24 PUSH0 REVERT JUMPDEST PUSH2 0x2E9 DUP3 PUSH2 0x226 JUMP JUMPDEST DUP2 ADD DUP2 DUP2 LT PUSH8 0xFFFFFFFFFFFFFFFF DUP3 GT OR ISZERO PUSH2 0x308 JUMPI PUSH2 0x307 PUSH2 0x2B3 JUMP JUMPDEST JUMPDEST DUP1 PUSH1 0x40 MSTORE POP POP POP JUMP JUMPDEST PUSH0 PUSH2 0x31A PUSH2 0x175 JUMP JUMPDEST SWAP1 POP PUSH2 0x326 DUP3 DUP3 PUSH2 0x2E0 JUMP JUMPDEST SWAP2 SWAP1 POP JUMP JUMPDEST PUSH0 PUSH8 0xFFFFFFFFFFFFFFFF DUP3 GT ISZERO PUSH2 0x345 JUMPI PUSH2 0x344 PUSH2 0x2B3 JUMP JUMPDEST JUMPDEST PUSH2 0x34E DUP3 PUSH2 0x226 JUMP JUMPDEST SWAP1 POP PUSH1 0x20 DUP2 ADD SWAP1 POP SWAP2 SWAP1 POP JUMP JUMPDEST DUP3 DUP2 DUP4 CALLDATACOPY PUSH0 DUP4 DUP4 ADD MSTORE POP POP POP JUMP JUMPDEST PUSH0 PUSH2 0x37B PUSH2 0x376 DUP5 PUSH2 0x32B JUMP JUMPDEST PUSH2 0x311 JUMP JUMPDEST SWAP1 POP DUP3 DUP2 MSTORE PUSH1 0x20 DUP2 ADD DUP5 DUP5 DUP5 ADD GT ISZERO PUSH2 0x397 JUMPI PUSH2 0x396 PUSH2 0x2AF JUMP JUMPDEST JUMPDEST PUSH2 0x3A2 DUP5 DUP3 DUP6 PUSH2 0x35B JUMP JUMPDEST POP SWAP4 SWAP3 POP POP POP JUMP JUMPDEST PUSH0 DUP3 PUSH1 0x1F DUP4 ADD SLT PUSH2 0x3BE JUMPI PUSH2 0x3BD PUSH2 0x2AB JUMP JUMPDEST JUMPDEST DUP2 CALLDATALOAD PUSH2 0x3CE DUP5 DUP3 PUSH1 0x20 DUP7 ADD PUSH2 0x369 JUMP JUMPDEST SWAP2 POP POP SWAP3 SWAP2 POP POP JUMP JUMPDEST PUSH0 DUP1 PUSH0 PUSH1 0x60 DUP5 DUP7 SUB SLT ISZERO PUSH2 0x3EE JUMPI PUSH2 0x3ED PUSH2 0x17E JUMP JUMPDEST JUMPDEST PUSH0 PUSH2 0x3FB DUP7 DUP3 DUP8 ADD PUSH2 0x1A5 JUMP JUMPDEST SWAP4 POP POP PUSH1 0x20 PUSH2 0x40C DUP7 DUP3 DUP8 ADD PUSH2 0x1A5 JUMP JUMPDEST SWAP3 POP POP PUSH1 0x40 DUP5 ADD CALLDATALOAD PUSH8 0xFFFFFFFFFFFFFFFF DUP2 GT ISZERO PUSH2 0x42D JUMPI PUSH2 0x42C PUSH2 0x182 JUMP JUMPDEST JUMPDEST PUSH2 0x439 DUP7 DUP3 DUP8 ADD PUSH2 0x3AA JUMP JUMPDEST SWAP2 POP POP SWAP3 POP SWAP3 POP SWAP3 JUMP JUMPDEST PUSH32 0x4E487B7100000000000000000000000000000000000000000000000000000000 PUSH0 MSTORE PUSH1 0x22 PUSH1 0x4 MSTORE PUSH1 0x24 PUSH0 REVERT JUMPDEST PUSH0 PUSH1 0x2 DUP3 DIV SWAP1 POP PUSH1 0x1 DUP3 AND DUP1 PUSH2 0x487 JUMPI PUSH1 0x7F DUP3 AND SWAP2 POP JUMPDEST PUSH1 0x20 DUP3 LT DUP2 SUB PUSH2 0x49A JUMPI PUSH2 0x499 PUSH2 0x443 JUMP JUMPDEST JUMPDEST POP SWAP2 SWAP1 POP JUMP JUMPDEST PUSH0 DUP2 SWAP1 POP DUP2 PUSH0 MSTORE PUSH1 0x20 PUSH0 KECCAK256 SWAP1 POP SWAP2 SWAP1 POP JUMP JUMPDEST PUSH0 PUSH1 0x20 PUSH1 0x1F DUP4 ADD DIV SWAP1 POP SWAP2 SWAP1 POP JUMP JUMPDEST PUSH0 DUP3 DUP3 SHL SWAP1 POP SWAP3 SWAP2 POP POP JUMP JUMPDEST PUSH0 PUSH1 0x8 DUP4 MUL PUSH2 0x4FC PUSH32 0xFFFFFFFFFFFFFFFFFFFFFFFFFFFFFFFFFFFFFFFFFFFFFFFFFFFFFFFFFFFFFFFF DUP3 PUSH2 0x4C1 JUMP JUMPDEST PUSH2 0x506 DUP7 DUP4 PUSH2 0x4C1 JUMP JUMPDEST SWAP6 POP DUP1 NOT DUP5 AND SWAP4 POP DUP1 DUP7 AND DUP5 OR SWAP3 POP POP POP SWAP4 SWAP3 POP POP POP JUMP JUMPDEST PUSH0 DUP2 SWAP1 POP SWAP2 SWAP1 POP JUMP JUMPDEST PUSH0 DUP2 SWAP1 POP SWAP2 SWAP1 POP JUMP JUMPDEST PUSH0 PUSH2 0x54A PUSH2 0x545 PUSH2 0x540 DUP5 PUSH2 0x51E JUMP JUMPDEST PUSH2 0x527 JUMP JUMPDEST PUSH2 0x51E JUMP JUMPDEST SWAP1 POP SWAP2 SWAP1 POP JUMP JUMPDEST PUSH0 DUP2 SWAP1 POP SWAP2 SWAP1 POP JUMP JUMPDEST PUSH2 0x563 DUP4 PUSH2 0x530 JUMP JUMPDEST PUSH2 0x577 PUSH2 0x56F DUP3 PUSH2 0x551 JUMP JUMPDEST DUP5 DUP5 SLOAD PUSH2 0x4CD JUMP JUMPDEST DUP3 SSTORE POP POP POP POP JUMP JUMPDEST PUSH0 SWAP1 JUMP JUMPDEST PUSH2 0x58B PUSH2 0x57F JUMP JUMPDEST PUSH2 0x596 DUP2 DUP5 DUP5 PUSH2 0x55A JUMP JUMPDEST POP POP POP JUMP JUMPDEST JUMPDEST DUP2 DUP2 LT ISZERO PUSH2 0x5B9 JUMPI PUSH2 0x5AE PUSH0 DUP3 PUSH2 0x583 JUMP JUMPDEST PUSH1 0x1 DUP2 ADD SWAP1 POP PUSH2 0x59C JUMP JUMPDEST POP POP JUMP JUMPDEST PUSH1 0x1F DUP3 GT ISZERO PUSH2 0x5FE JUMPI PUSH2 0x5CF DUP2 PUSH2 0x4A0 JUMP JUMPDEST PUSH2 0x5D8 DUP5 PUSH2 0x4B2 JUMP JUMPDEST DUP2 ADD PUSH1 0x20 DUP6 LT ISZERO PUSH2 0x5E7 JUMPI DUP2 SWAP1 POP JUMPDEST PUSH2 0x5FB PUSH2 0x5F3 DUP6 PUSH2 0x4B2 JUMP JUMPDEST DUP4 ADD DUP3 PUSH2 0x59B JUMP JUMPDEST POP POP JUMPDEST POP POP POP JUMP JUMPDEST PUSH0 DUP3 DUP3 SHR SWAP1 POP SWAP3 SWAP2 POP POP JUMP JUMPDEST PUSH0 PUSH2 0x61E PUSH0 NOT DUP5 PUSH1 0x8 MUL PUSH2 0x603 JUMP JUMPDEST NOT DUP1 DUP4 AND SWAP2 POP POP SWAP3 SWAP2 POP POP JUMP JUMPDEST PUSH0 PUSH2 0x636 DUP4 DUP4 PUSH2 0x60F JUMP JUMPDEST SWAP2 POP DUP3 PUSH1 0x2 MUL DUP3 OR SWAP1 POP SWAP3 SWAP2 POP POP JUMP JUMPDEST PUSH2 0x64F DUP3 PUSH2 0x1E4 JUMP JUMPDEST PUSH8 0xFFFFFFFFFFFFFFFF DUP2 GT ISZERO PUSH2 0x668 JUMPI PUSH2 0x667 PUSH2 0x2B3 JUMP JUMPDEST JUMPDEST PUSH2 0x672 DUP3 SLOAD PUSH2 0x470 JUMP JUMPDEST PUSH2 0x67D DUP3 DUP3 DUP6 PUSH2 0x5BD JUMP JUMPDEST PUSH0 PUSH1 0x20 SWAP1 POP PUSH1 0x1F DUP4 GT PUSH1 0x1 DUP2 EQ PUSH2 0x6AE JUMPI PUSH0 DUP5 ISZERO PUSH2 0x69C JUMPI DUP3 DUP8 ADD MLOAD SWAP1 POP JUMPDEST PUSH2 0x6A6 DUP6 DUP3 PUSH2 0x62B JUMP JUMPDEST DUP7 SSTORE POP PUSH2 0x70D JUMP JUMPDEST PUSH1 0x1F NOT DUP5 AND PUSH2 0x6BC DUP7 PUSH2 0x4A0 JUMP JUMPDEST PUSH0 JUMPDEST DUP3 DUP2 LT ISZERO PUSH2 0x6E3 JUMPI DUP5 DUP10 ADD MLOAD DUP3 SSTORE PUSH1 0x1 DUP3 ADD SWAP2 POP PUSH1 0x20 DUP6 ADD SWAP5 POP PUSH1 0x20 DUP2 ADD SWAP1 POP PUSH2 0x6BE JUMP JUMPDEST DUP7 DUP4 LT ISZERO PUSH2 0x700 JUMPI DUP5 DUP10 ADD MLOAD PUSH2 0x6FC PUSH1 0x1F DUP10 AND DUP3 PUSH2 0x60F JUMP JUMPDEST DUP4 SSTORE POP JUMPDEST PUSH1 0x1 PUSH1 0x2 DUP9 MUL ADD DUP9 SSTORE POP POP POP JUMPDEST POP POP POP POP POP POP JUMP INVALID LOG2 PUSH5 0x6970667358 0x22 SLT KECCAK256 ADDRESS 0x28 SWAP5 RETURNDATACOPY SSTORE SMOD 0x27 0x23 0x2C XOR 0xE6 POP 0x4E MOD DUP11 MUL 0xAE PUSH3 0xD8EE9A 0x28 0xB4 0xDC 0xDC REVERT SHL 0xD0 CALLER 0xCA 0xDE RETURNDATACOPY PUSH5 0x736F6C6343 STOP ADDMOD AND STOP CALLER "
				},
				"gasEstimates": {
					"creation": {
						"codeDepositCost": "373400",
						"executionCost": "409",
						"totalCost": "373809"
					},
					"external": {
						"data(int256)": "infinite",
						"setter(int256,int256,string)": "infinite"
					}
				},
				"methodIdentifiers": {
					"data(int256)": "9398e0cd",
					"setter(int256,int256,string)": "998b6548"
				}
			},
			"storageLayout": {
				"storage": [
					{
						"astId": 11,
						"contract": "contracts/Mapping.sol:Mapping",
						"label": "data",
						"offset": 0,
						"slot": "0",
						"type": "t_mapping(t_int256,t_struct(Student)6_storage)"
					}
				],
				"types": {
					"t_int256": {
						"encoding": "inplace",
						"label": "int256",
						"numberOfBytes": "32"
					},
					"t_mapping(t_int256,t_struct(Student)6_storage)": {
						"encoding": "mapping",
						"key": "t_int256",
						"label": "mapping(int256 => struct Mapping.Student)",
						"numberOfBytes": "32",
						"value": "t_struct(Student)6_storage"
					},
					"t_string_storage": {
						"encoding": "bytes",
						"label": "string",
						"numberOfBytes": "32"
					},
					"t_struct(Student)6_storage": {
						"encoding": "inplace",
						"label": "struct Mapping.Student",
						"members": [
							{
								"astId": 3,
								"contract": "contracts/Mapping.sol:Mapping",
								"label": "name",
								"offset": 0,
								"slot": "0",
								"type": "t_string_storage"
							},
							{
								"astId": 5,
								"contract": "contracts/Mapping.sol:Mapping",
								"label": "class",
								"offset": 0,
								"slot": "1",
								"type": "t_int256"
							}
						],
						"numberOfBytes": "64"
					}
				}
			},
			"userdoc": {
				"kind": "user",
				"methods": {},
				"version": 1
			}
		}
	}
}