{
	"contracts/Storage.sol": {
		"Storage": {
			"abi": [
				{
					"inputs": [],
					"name": "demo",
					"outputs": [
						{
							"internalType": "uint256",
							"name": "block_no",
							"type": "uint256"
						},
						{
							"internalType": "uint256",
							"name": "timestamp",
							"type": "uint256"
						},
						{
							"internalType": "address",
							"name": "msgSender",
							"type": "address"
						}
					],
					"stateMutability": "view",
					"type": "function"
				},
				{
					"inputs": [],
					"name": "memo",
					"outputs": [],
					"stateMutability": "view",
					"type": "function"
				},
				{
					"inputs": [],
					"name": "store",
					"outputs": [],
					"stateMutability": "nonpayable",
					"type": "function"
				},
				{
					"inputs": [
						{
							"internalType": "uint256",
							"name": "",
							"type": "uint256"
						}
					],
					"name": "student",
					"outputs": [
						{
							"internalType": "string",
							"name": "",
							"type": "string"
						}
					],
					"stateMutability": "view",
					"type": "function"
				}
			],
			"devdoc": {
				"kind": "dev",
				"methods": {},
				"version": 1
			},
			"evm": {
				"assembly": "    /* \"contracts/Storage.sol\":383:854  contract Storage {... */\n  mstore(0x40, 0x80)\n    /* \"contracts/Storage.sol\":407:469  string[] public student = ['Tommy', 'Carl', 'Niko', 'Michael'] */\n  mload(0x40)\n  dup1\n  0x80\n  add\n  0x40\n  mstore\n  dup1\n  mload(0x40)\n  dup1\n  0x40\n  add\n  0x40\n  mstore\n  dup1\n  0x05\n  dup2\n  mstore\n  0x20\n  add\n  0x546f6d6d79000000000000000000000000000000000000000000000000000000\n  dup2\n  mstore\n  pop\n  dup2\n  mstore\n  0x20\n  add\n  mload(0x40)\n  dup1\n  0x40\n  add\n  0x40\n  mstore\n  dup1\n  0x04\n  dup2\n  mstore\n  0x20\n  add\n  0x4361726c00000000000000000000000000000000000000000000000000000000\n  dup2\n  mstore\n  pop\n  dup2\n  mstore\n  0x20\n  add\n  mload(0x40)\n  dup1\n  0x40\n  add\n  0x40\n  mstore\n  dup1\n  0x04\n  dup2\n  mstore\n  0x20\n  add\n  0x4e696b6f00000000000000000000000000000000000000000000000000000000\n  dup2\n  mstore\n  pop\n  dup2\n  mstore\n  0x20\n  add\n  mload(0x40)\n  dup1\n  0x40\n  add\n  0x40\n  mstore\n  dup1\n  0x07\n  dup2\n  mstore\n  0x20\n  add\n  0x4d69636861656c00000000000000000000000000000000000000000000000000\n  dup2\n  mstore\n  pop\n  dup2\n  mstore\n  pop\n  0x00\n  swap1\n  0x04\n  tag_1\n  swap3\n  swap2\n  swap1\n  tag_2\n  jump\t// in\ntag_1:\n  pop\n    /* \"contracts/Storage.sol\":383:854  contract Storage {... */\n  callvalue\n  dup1\n  iszero\n  tag_3\n  jumpi\n  0x00\n  dup1\n  revert\ntag_3:\n  pop\n  jump(tag_4)\ntag_2:\n  dup3\n  dup1\n  sload\n  dup3\n  dup3\n  sstore\n  swap1\n  0x00\n  mstore\n  keccak256(0x00, 0x20)\n  swap1\n  dup2\n  add\n  swap3\n  dup3\n  iszero\n  tag_5\n  jumpi\n  swap2\n  0x20\n  mul\n  dup3\n  add\ntag_6:\n  dup3\n  dup2\n  gt\n  iszero\n  tag_7\n  jumpi\n  dup3\n  mload\n  dup3\n  swap1\n  dup2\n  tag_8\n  swap2\n  swap1\n  tag_9\n  jump\t// in\ntag_8:\n  pop\n  swap2\n  0x20\n  add\n  swap2\n  swap1\n  0x01\n  add\n  swap1\n  jump(tag_6)\ntag_7:\ntag_5:\n  pop\n  swap1\n  pop\n  tag_10\n  swap2\n  swap1\n  tag_11\n  jump\t// in\ntag_10:\n  pop\n  swap1\n  jump\t// out\ntag_11:\ntag_12:\n  dup1\n  dup3\n  gt\n  iszero\n  tag_13\n  jumpi\n  0x00\n  dup2\n  dup2\n  tag_14\n  swap2\n  swap1\n  tag_15\n  jump\t// in\ntag_14:\n  pop\n  0x01\n  add\n  jump(tag_12)\ntag_13:\n  pop\n  swap1\n  jump\t// out\ntag_15:\n  pop\n  dup1\n  sload\n  tag_16\n  swap1\n  tag_17\n  jump\t// in\ntag_16:\n  0x00\n  dup3\n  sstore\n  dup1\n  0x1f\n  lt\n  tag_19\n  jumpi\n  pop\n  jump(tag_18)\ntag_19:\n  0x1f\n  add\n  0x20\n  swap1\n  div\n  swap1\n  0x00\n  mstore\n  keccak256(0x00, 0x20)\n  swap1\n  dup2\n  add\n  swap1\n  tag_20\n  swap2\n  swap1\n  tag_21\n  jump\t// in\ntag_20:\ntag_18:\n  pop\n  jump\t// out\ntag_21:\ntag_22:\n  dup1\n  dup3\n  gt\n  iszero\n  tag_23\n  jumpi\n  0x00\n  dup2\n  0x00\n  swap1\n  sstore\n  pop\n  0x01\n  add\n  jump(tag_22)\ntag_23:\n  pop\n  swap1\n  jump\t// out\n    /* \"#utility.yul\":7:106   */\ntag_24:\n    /* \"#utility.yul\":59:65   */\n  0x00\n    /* \"#utility.yul\":93:98   */\n  dup2\n    /* \"#utility.yul\":87:99   */\n  mload\n    /* \"#utility.yul\":77:99   */\n  swap1\n  pop\n    /* \"#utility.yul\":7:106   */\n  swap2\n  swap1\n  pop\n  jump\t// out\n    /* \"#utility.yul\":112:292   */\ntag_25:\n    /* \"#utility.yul\":160:237   */\n  0x4e487b7100000000000000000000000000000000000000000000000000000000\n    /* \"#utility.yul\":157:158   */\n  0x00\n    /* \"#utility.yul\":150:238   */\n  mstore\n    /* \"#utility.yul\":257:261   */\n  0x41\n    /* \"#utility.yul\":254:255   */\n  0x04\n    /* \"#utility.yul\":247:262   */\n  mstore\n    /* \"#utility.yul\":281:285   */\n  0x24\n    /* \"#utility.yul\":278:279   */\n  0x00\n    /* \"#utility.yul\":271:286   */\n  revert\n    /* \"#utility.yul\":298:478   */\ntag_26:\n    /* \"#utility.yul\":346:423   */\n  0x4e487b7100000000000000000000000000000000000000000000000000000000\n    /* \"#utility.yul\":343:344   */\n  0x00\n    /* \"#utility.yul\":336:424   */\n  mstore\n    /* \"#utility.yul\":443:447   */\n  0x22\n    /* \"#utility.yul\":440:441   */\n  0x04\n    /* \"#utility.yul\":433:448   */\n  mstore\n    /* \"#utility.yul\":467:471   */\n  0x24\n    /* \"#utility.yul\":464:465   */\n  0x00\n    /* \"#utility.yul\":457:472   */\n  revert\n    /* \"#utility.yul\":484:804   */\ntag_17:\n    /* \"#utility.yul\":528:534   */\n  0x00\n    /* \"#utility.yul\":565:566   */\n  0x02\n    /* \"#utility.yul\":559:563   */\n  dup3\n    /* \"#utility.yul\":555:567   */\n  div\n    /* \"#utility.yul\":545:567   */\n  swap1\n  pop\n    /* \"#utility.yul\":612:613   */\n  0x01\n    /* \"#utility.yul\":606:610   */\n  dup3\n    /* \"#utility.yul\":602:614   */\n  and\n    /* \"#utility.yul\":633:651   */\n  dup1\n    /* \"#utility.yul\":623:704   */\n  tag_48\n  jumpi\n    /* \"#utility.yul\":689:693   */\n  0x7f\n    /* \"#utility.yul\":681:687   */\n  dup3\n    /* \"#utility.yul\":677:694   */\n  and\n    /* \"#utility.yul\":667:694   */\n  swap2\n  pop\n    /* \"#utility.yul\":623:704   */\ntag_48:\n    /* \"#utility.yul\":751:753   */\n  0x20\n    /* \"#utility.yul\":743:749   */\n  dup3\n    /* \"#utility.yul\":740:754   */\n  lt\n    /* \"#utility.yul\":720:738   */\n  dup2\n    /* \"#utility.yul\":717:755   */\n  sub\n    /* \"#utility.yul\":714:798   */\n  tag_49\n  jumpi\n    /* \"#utility.yul\":770:788   */\n  tag_50\n  tag_26\n  jump\t// in\ntag_50:\n    /* \"#utility.yul\":714:798   */\ntag_49:\n    /* \"#utility.yul\":535:804   */\n  pop\n    /* \"#utility.yul\":484:804   */\n  swap2\n  swap1\n  pop\n  jump\t// out\n    /* \"#utility.yul\":810:951   */\ntag_27:\n    /* \"#utility.yul\":859:863   */\n  0x00\n    /* \"#utility.yul\":882:885   */\n  dup2\n    /* \"#utility.yul\":874:885   */\n  swap1\n  pop\n    /* \"#utility.yul\":905:908   */\n  dup2\n    /* \"#utility.yul\":902:903   */\n  0x00\n    /* \"#utility.yul\":895:909   */\n  mstore\n    /* \"#utility.yul\":939:943   */\n  0x20\n    /* \"#utility.yul\":936:937   */\n  0x00\n    /* \"#utility.yul\":926:944   */\n  keccak256\n    /* \"#utility.yul\":918:944   */\n  swap1\n  pop\n    /* \"#utility.yul\":810:951   */\n  swap2\n  swap1\n  pop\n  jump\t// out\n    /* \"#utility.yul\":957:1050   */\ntag_28:\n    /* \"#utility.yul\":994:1000   */\n  0x00\n    /* \"#utility.yul\":1041:1043   */\n  0x20\n    /* \"#utility.yul\":1036:1038   */\n  0x1f\n    /* \"#utility.yul\":1029:1034   */\n  dup4\n    /* \"#utility.yul\":1025:1039   */\n  add\n    /* \"#utility.yul\":1021:1044   */\n  div\n    /* \"#utility.yul\":1011:1044   */\n  swap1\n  pop\n    /* \"#utility.yul\":957:1050   */\n  swap2\n  swap1\n  pop\n  jump\t// out\n    /* \"#utility.yul\":1056:1163   */\ntag_29:\n    /* \"#utility.yul\":1100:1108   */\n  0x00\n    /* \"#utility.yul\":1150:1155   */\n  dup3\n    /* \"#utility.yul\":1144:1148   */\n  dup3\n    /* \"#utility.yul\":1140:1156   */\n  shl\n    /* \"#utility.yul\":1119:1156   */\n  swap1\n  pop\n    /* \"#utility.yul\":1056:1163   */\n  swap3\n  swap2\n  pop\n  pop\n  jump\t// out\n    /* \"#utility.yul\":1169:1562   */\ntag_30:\n    /* \"#utility.yul\":1238:1244   */\n  0x00\n    /* \"#utility.yul\":1288:1289   */\n  0x08\n    /* \"#utility.yul\":1276:1286   */\n  dup4\n    /* \"#utility.yul\":1272:1290   */\n  mul\n    /* \"#utility.yul\":1311:1408   */\n  tag_55\n    /* \"#utility.yul\":1341:1407   */\n  0xffffffffffffffffffffffffffffffffffffffffffffffffffffffffffffffff\n    /* \"#utility.yul\":1330:1339   */\n  dup3\n    /* \"#utility.yul\":1311:1408   */\n  tag_29\n  jump\t// in\ntag_55:\n    /* \"#utility.yul\":1429:1468   */\n  tag_56\n    /* \"#utility.yul\":1459:1467   */\n  dup7\n    /* \"#utility.yul\":1448:1457   */\n  dup4\n    /* \"#utility.yul\":1429:1468   */\n  tag_29\n  jump\t// in\ntag_56:\n    /* \"#utility.yul\":1417:1468   */\n  swap6\n  pop\n    /* \"#utility.yul\":1501:1505   */\n  dup1\n    /* \"#utility.yul\":1497:1506   */\n  not\n    /* \"#utility.yul\":1490:1495   */\n  dup5\n    /* \"#utility.yul\":1486:1507   */\n  and\n    /* \"#utility.yul\":1477:1507   */\n  swap4\n  pop\n    /* \"#utility.yul\":1550:1554   */\n  dup1\n    /* \"#utility.yul\":1540:1548   */\n  dup7\n    /* \"#utility.yul\":1536:1555   */\n  and\n    /* \"#utility.yul\":1529:1534   */\n  dup5\n    /* \"#utility.yul\":1526:1556   */\n  or\n    /* \"#utility.yul\":1516:1556   */\n  swap3\n  pop\n    /* \"#utility.yul\":1245:1562   */\n  pop\n  pop\n    /* \"#utility.yul\":1169:1562   */\n  swap4\n  swap3\n  pop\n  pop\n  pop\n  jump\t// out\n    /* \"#utility.yul\":1568:1645   */\ntag_31:\n    /* \"#utility.yul\":1605:1612   */\n  0x00\n    /* \"#utility.yul\":1634:1639   */\n  dup2\n    /* \"#utility.yul\":1623:1639   */\n  swap1\n  pop\n    /* \"#utility.yul\":1568:1645   */\n  swap2\n  swap1\n  pop\n  jump\t// out\n    /* \"#utility.yul\":1651:1711   */\ntag_32:\n    /* \"#utility.yul\":1679:1682   */\n  0x00\n    /* \"#utility.yul\":1700:1705   */\n  dup2\n    /* \"#utility.yul\":1693:1705   */\n  swap1\n  pop\n    /* \"#utility.yul\":1651:1711   */\n  swap2\n  swap1\n  pop\n  jump\t// out\n    /* \"#utility.yul\":1717:1859   */\ntag_33:\n    /* \"#utility.yul\":1767:1776   */\n  0x00\n    /* \"#utility.yul\":1800:1853   */\n  tag_60\n    /* \"#utility.yul\":1818:1852   */\n  tag_61\n    /* \"#utility.yul\":1827:1851   */\n  tag_62\n    /* \"#utility.yul\":1845:1850   */\n  dup5\n    /* \"#utility.yul\":1827:1851   */\n  tag_31\n  jump\t// in\ntag_62:\n    /* \"#utility.yul\":1818:1852   */\n  tag_32\n  jump\t// in\ntag_61:\n    /* \"#utility.yul\":1800:1853   */\n  tag_31\n  jump\t// in\ntag_60:\n    /* \"#utility.yul\":1787:1853   */\n  swap1\n  pop\n    /* \"#utility.yul\":1717:1859   */\n  swap2\n  swap1\n  pop\n  jump\t// out\n    /* \"#utility.yul\":1865:1940   */\ntag_34:\n    /* \"#utility.yul\":1908:1911   */\n  0x00\n    /* \"#utility.yul\":1929:1934   */\n  dup2\n    /* \"#utility.yul\":1922:1934   */\n  swap1\n  pop\n    /* \"#utility.yul\":1865:1940   */\n  swap2\n  swap1\n  pop\n  jump\t// out\n    /* \"#utility.yul\":1946:2215   */\ntag_35:\n    /* \"#utility.yul\":2056:2095   */\n  tag_65\n    /* \"#utility.yul\":2087:2094   */\n  dup4\n    /* \"#utility.yul\":2056:2095   */\n  tag_33\n  jump\t// in\ntag_65:\n    /* \"#utility.yul\":2117:2208   */\n  tag_66\n    /* \"#utility.yul\":2166:2207   */\n  tag_67\n    /* \"#utility.yul\":2190:2206   */\n  dup3\n    /* \"#utility.yul\":2166:2207   */\n  tag_34\n  jump\t// in\ntag_67:\n    /* \"#utility.yul\":2158:2164   */\n  dup5\n    /* \"#utility.yul\":2151:2155   */\n  dup5\n    /* \"#utility.yul\":2145:2156   */\n  sload\n    /* \"#utility.yul\":2117:2208   */\n  tag_30\n  jump\t// in\ntag_66:\n    /* \"#utility.yul\":2111:2115   */\n  dup3\n    /* \"#utility.yul\":2104:2209   */\n  sstore\n    /* \"#utility.yul\":2022:2215   */\n  pop\n    /* \"#utility.yul\":1946:2215   */\n  pop\n  pop\n  pop\n  jump\t// out\n    /* \"#utility.yul\":2221:2294   */\ntag_36:\n    /* \"#utility.yul\":2266:2269   */\n  0x00\n    /* \"#utility.yul\":2221:2294   */\n  swap1\n  jump\t// out\n    /* \"#utility.yul\":2300:2489   */\ntag_37:\n    /* \"#utility.yul\":2377:2409   */\n  tag_70\n  tag_36\n  jump\t// in\ntag_70:\n    /* \"#utility.yul\":2418:2483   */\n  tag_71\n    /* \"#utility.yul\":2476:2482   */\n  dup2\n    /* \"#utility.yul\":2468:2474   */\n  dup5\n    /* \"#utility.yul\":2462:2466   */\n  dup5\n    /* \"#utility.yul\":2418:2483   */\n  tag_35\n  jump\t// in\ntag_71:\n    /* \"#utility.yul\":2353:2489   */\n  pop\n    /* \"#utility.yul\":2300:2489   */\n  pop\n  pop\n  jump\t// out\n    /* \"#utility.yul\":2495:2681   */\ntag_38:\n    /* \"#utility.yul\":2555:2675   */\ntag_73:\n    /* \"#utility.yul\":2572:2575   */\n  dup2\n    /* \"#utility.yul\":2565:2570   */\n  dup2\n    /* \"#utility.yul\":2562:2576   */\n  lt\n    /* \"#utility.yul\":2555:2675   */\n  iszero\n  tag_75\n  jumpi\n    /* \"#utility.yul\":2626:2665   */\n  tag_76\n    /* \"#utility.yul\":2663:2664   */\n  0x00\n    /* \"#utility.yul\":2656:2661   */\n  dup3\n    /* \"#utility.yul\":2626:2665   */\n  tag_37\n  jump\t// in\ntag_76:\n    /* \"#utility.yul\":2599:2600   */\n  0x01\n    /* \"#utility.yul\":2592:2597   */\n  dup2\n    /* \"#utility.yul\":2588:2601   */\n  add\n    /* \"#utility.yul\":2579:2601   */\n  swap1\n  pop\n    /* \"#utility.yul\":2555:2675   */\n  jump(tag_73)\ntag_75:\n    /* \"#utility.yul\":2495:2681   */\n  pop\n  pop\n  jump\t// out\n    /* \"#utility.yul\":2687:3230   */\ntag_39:\n    /* \"#utility.yul\":2788:2790   */\n  0x1f\n    /* \"#utility.yul\":2783:2786   */\n  dup3\n    /* \"#utility.yul\":2780:2791   */\n  gt\n    /* \"#utility.yul\":2777:3223   */\n  iszero\n  tag_78\n  jumpi\n    /* \"#utility.yul\":2822:2860   */\n  tag_79\n    /* \"#utility.yul\":2854:2859   */\n  dup2\n    /* \"#utility.yul\":2822:2860   */\n  tag_27\n  jump\t// in\ntag_79:\n    /* \"#utility.yul\":2906:2935   */\n  tag_80\n    /* \"#utility.yul\":2924:2934   */\n  dup5\n    /* \"#utility.yul\":2906:2935   */\n  tag_28\n  jump\t// in\ntag_80:\n    /* \"#utility.yul\":2896:2904   */\n  dup2\n    /* \"#utility.yul\":2892:2936   */\n  add\n    /* \"#utility.yul\":3089:3091   */\n  0x20\n    /* \"#utility.yul\":3077:3087   */\n  dup6\n    /* \"#utility.yul\":3074:3092   */\n  lt\n    /* \"#utility.yul\":3071:3120   */\n  iszero\n  tag_81\n  jumpi\n    /* \"#utility.yul\":3110:3118   */\n  dup2\n    /* \"#utility.yul\":3095:3118   */\n  swap1\n  pop\n    /* \"#utility.yul\":3071:3120   */\ntag_81:\n    /* \"#utility.yul\":3133:3213   */\n  tag_82\n    /* \"#utility.yul\":3189:3211   */\n  tag_83\n    /* \"#utility.yul\":3207:3210   */\n  dup6\n    /* \"#utility.yul\":3189:3211   */\n  tag_28\n  jump\t// in\ntag_83:\n    /* \"#utility.yul\":3179:3187   */\n  dup4\n    /* \"#utility.yul\":3175:3212   */\n  add\n    /* \"#utility.yul\":3162:3173   */\n  dup3\n    /* \"#utility.yul\":3133:3213   */\n  tag_38\n  jump\t// in\ntag_82:\n    /* \"#utility.yul\":2792:3223   */\n  pop\n  pop\n    /* \"#utility.yul\":2777:3223   */\ntag_78:\n    /* \"#utility.yul\":2687:3230   */\n  pop\n  pop\n  pop\n  jump\t// out\n    /* \"#utility.yul\":3236:3353   */\ntag_40:\n    /* \"#utility.yul\":3290:3298   */\n  0x00\n    /* \"#utility.yul\":3340:3345   */\n  dup3\n    /* \"#utility.yul\":3334:3338   */\n  dup3\n    /* \"#utility.yul\":3330:3346   */\n  shr\n    /* \"#utility.yul\":3309:3346   */\n  swap1\n  pop\n    /* \"#utility.yul\":3236:3353   */\n  swap3\n  swap2\n  pop\n  pop\n  jump\t// out\n    /* \"#utility.yul\":3359:3528   */\ntag_41:\n    /* \"#utility.yul\":3403:3409   */\n  0x00\n    /* \"#utility.yul\":3436:3487   */\n  tag_86\n    /* \"#utility.yul\":3484:3485   */\n  0x00\n    /* \"#utility.yul\":3480:3486   */\n  not\n    /* \"#utility.yul\":3472:3477   */\n  dup5\n    /* \"#utility.yul\":3469:3470   */\n  0x08\n    /* \"#utility.yul\":3465:3478   */\n  mul\n    /* \"#utility.yul\":3436:3487   */\n  tag_40\n  jump\t// in\ntag_86:\n    /* \"#utility.yul\":3432:3488   */\n  not\n    /* \"#utility.yul\":3517:3521   */\n  dup1\n    /* \"#utility.yul\":3511:3515   */\n  dup4\n    /* \"#utility.yul\":3507:3522   */\n  and\n    /* \"#utility.yul\":3497:3522   */\n  swap2\n  pop\n    /* \"#utility.yul\":3410:3528   */\n  pop\n    /* \"#utility.yul\":3359:3528   */\n  swap3\n  swap2\n  pop\n  pop\n  jump\t// out\n    /* \"#utility.yul\":3533:3828   */\ntag_42:\n    /* \"#utility.yul\":3609:3613   */\n  0x00\n    /* \"#utility.yul\":3755:3784   */\n  tag_88\n    /* \"#utility.yul\":3780:3783   */\n  dup4\n    /* \"#utility.yul\":3774:3778   */\n  dup4\n    /* \"#utility.yul\":3755:3784   */\n  tag_41\n  jump\t// in\ntag_88:\n    /* \"#utility.yul\":3747:3784   */\n  swap2\n  pop\n    /* \"#utility.yul\":3817:3820   */\n  dup3\n    /* \"#utility.yul\":3814:3815   */\n  0x02\n    /* \"#utility.yul\":3810:3821   */\n  mul\n    /* \"#utility.yul\":3804:3808   */\n  dup3\n    /* \"#utility.yul\":3801:3822   */\n  or\n    /* \"#utility.yul\":3793:3822   */\n  swap1\n  pop\n    /* \"#utility.yul\":3533:3828   */\n  swap3\n  swap2\n  pop\n  pop\n  jump\t// out\n    /* \"#utility.yul\":3833:5228   */\ntag_9:\n    /* \"#utility.yul\":3950:3987   */\n  tag_90\n    /* \"#utility.yul\":3983:3986   */\n  dup3\n    /* \"#utility.yul\":3950:3987   */\n  tag_24\n  jump\t// in\ntag_90:\n    /* \"#utility.yul\":4052:4070   */\n  0xffffffffffffffff\n    /* \"#utility.yul\":4044:4050   */\n  dup2\n    /* \"#utility.yul\":4041:4071   */\n  gt\n    /* \"#utility.yul\":4038:4094   */\n  iszero\n  tag_91\n  jumpi\n    /* \"#utility.yul\":4074:4092   */\n  tag_92\n  tag_25\n  jump\t// in\ntag_92:\n    /* \"#utility.yul\":4038:4094   */\ntag_91:\n    /* \"#utility.yul\":4118:4156   */\n  tag_93\n    /* \"#utility.yul\":4150:4154   */\n  dup3\n    /* \"#utility.yul\":4144:4155   */\n  sload\n    /* \"#utility.yul\":4118:4156   */\n  tag_17\n  jump\t// in\ntag_93:\n    /* \"#utility.yul\":4203:4270   */\n  tag_94\n    /* \"#utility.yul\":4263:4269   */\n  dup3\n    /* \"#utility.yul\":4255:4261   */\n  dup3\n    /* \"#utility.yul\":4249:4253   */\n  dup6\n    /* \"#utility.yul\":4203:4270   */\n  tag_39\n  jump\t// in\ntag_94:\n    /* \"#utility.yul\":4297:4298   */\n  0x00\n    /* \"#utility.yul\":4321:4325   */\n  0x20\n    /* \"#utility.yul\":4308:4325   */\n  swap1\n  pop\n    /* \"#utility.yul\":4353:4355   */\n  0x1f\n    /* \"#utility.yul\":4345:4351   */\n  dup4\n    /* \"#utility.yul\":4342:4356   */\n  gt\n    /* \"#utility.yul\":4370:4371   */\n  0x01\n    /* \"#utility.yul\":4365:4983   */\n  dup2\n  eq\n  tag_96\n  jumpi\n    /* \"#utility.yul\":5027:5028   */\n  0x00\n    /* \"#utility.yul\":5044:5050   */\n  dup5\n    /* \"#utility.yul\":5041:5118   */\n  iszero\n  tag_97\n  jumpi\n    /* \"#utility.yul\":5093:5102   */\n  dup3\n    /* \"#utility.yul\":5088:5091   */\n  dup8\n    /* \"#utility.yul\":5084:5103   */\n  add\n    /* \"#utility.yul\":5078:5104   */\n  mload\n    /* \"#utility.yul\":5069:5104   */\n  swap1\n  pop\n    /* \"#utility.yul\":5041:5118   */\ntag_97:\n    /* \"#utility.yul\":5144:5211   */\n  tag_98\n    /* \"#utility.yul\":5204:5210   */\n  dup6\n    /* \"#utility.yul\":5197:5202   */\n  dup3\n    /* \"#utility.yul\":5144:5211   */\n  tag_42\n  jump\t// in\ntag_98:\n    /* \"#utility.yul\":5138:5142   */\n  dup7\n    /* \"#utility.yul\":5131:5212   */\n  sstore\n    /* \"#utility.yul\":5000:5222   */\n  pop\n    /* \"#utility.yul\":4335:5222   */\n  jump(tag_95)\n    /* \"#utility.yul\":4365:4983   */\ntag_96:\n    /* \"#utility.yul\":4417:4421   */\n  0x1f\n    /* \"#utility.yul\":4413:4422   */\n  not\n    /* \"#utility.yul\":4405:4411   */\n  dup5\n    /* \"#utility.yul\":4401:4423   */\n  and\n    /* \"#utility.yul\":4451:4488   */\n  tag_99\n    /* \"#utility.yul\":4483:4487   */\n  dup7\n    /* \"#utility.yul\":4451:4488   */\n  tag_27\n  jump\t// in\ntag_99:\n    /* \"#utility.yul\":4510:4511   */\n  0x00\n    /* \"#utility.yul\":4524:4732   */\ntag_100:\n    /* \"#utility.yul\":4538:4545   */\n  dup3\n    /* \"#utility.yul\":4535:4536   */\n  dup2\n    /* \"#utility.yul\":4532:4546   */\n  lt\n    /* \"#utility.yul\":4524:4732   */\n  iszero\n  tag_102\n  jumpi\n    /* \"#utility.yul\":4617:4626   */\n  dup5\n    /* \"#utility.yul\":4612:4615   */\n  dup10\n    /* \"#utility.yul\":4608:4627   */\n  add\n    /* \"#utility.yul\":4602:4628   */\n  mload\n    /* \"#utility.yul\":4594:4600   */\n  dup3\n    /* \"#utility.yul\":4587:4629   */\n  sstore\n    /* \"#utility.yul\":4668:4669   */\n  0x01\n    /* \"#utility.yul\":4660:4666   */\n  dup3\n    /* \"#utility.yul\":4656:4670   */\n  add\n    /* \"#utility.yul\":4646:4670   */\n  swap2\n  pop\n    /* \"#utility.yul\":4715:4717   */\n  0x20\n    /* \"#utility.yul\":4704:4713   */\n  dup6\n    /* \"#utility.yul\":4700:4718   */\n  add\n    /* \"#utility.yul\":4687:4718   */\n  swap5\n  pop\n    /* \"#utility.yul\":4561:4565   */\n  0x20\n    /* \"#utility.yul\":4558:4559   */\n  dup2\n    /* \"#utility.yul\":4554:4566   */\n  add\n    /* \"#utility.yul\":4549:4566   */\n  swap1\n  pop\n    /* \"#utility.yul\":4524:4732   */\n  jump(tag_100)\ntag_102:\n    /* \"#utility.yul\":4760:4766   */\n  dup7\n    /* \"#utility.yul\":4751:4758   */\n  dup4\n    /* \"#utility.yul\":4748:4767   */\n  lt\n    /* \"#utility.yul\":4745:4924   */\n  iszero\n  tag_103\n  jumpi\n    /* \"#utility.yul\":4818:4827   */\n  dup5\n    /* \"#utility.yul\":4813:4816   */\n  dup10\n    /* \"#utility.yul\":4809:4828   */\n  add\n    /* \"#utility.yul\":4803:4829   */\n  mload\n    /* \"#utility.yul\":4861:4909   */\n  tag_104\n    /* \"#utility.yul\":4903:4907   */\n  0x1f\n    /* \"#utility.yul\":4895:4901   */\n  dup10\n    /* \"#utility.yul\":4891:4908   */\n  and\n    /* \"#utility.yul\":4880:4889   */\n  dup3\n    /* \"#utility.yul\":4861:4909   */\n  tag_41\n  jump\t// in\ntag_104:\n    /* \"#utility.yul\":4853:4859   */\n  dup4\n    /* \"#utility.yul\":4846:4910   */\n  sstore\n    /* \"#utility.yul\":4768:4924   */\n  pop\n    /* \"#utility.yul\":4745:4924   */\ntag_103:\n    /* \"#utility.yul\":4970:4971   */\n  0x01\n    /* \"#utility.yul\":4966:4967   */\n  0x02\n    /* \"#utility.yul\":4958:4964   */\n  dup9\n    /* \"#utility.yul\":4954:4968   */\n  mul\n    /* \"#utility.yul\":4950:4972   */\n  add\n    /* \"#utility.yul\":4944:4948   */\n  dup9\n    /* \"#utility.yul\":4937:4973   */\n  sstore\n    /* \"#utility.yul\":4372:4983   */\n  pop\n  pop\n  pop\n    /* \"#utility.yul\":4335:5222   */\ntag_95:\n  pop\n    /* \"#utility.yul\":3925:5228   */\n  pop\n  pop\n  pop\n    /* \"#utility.yul\":3833:5228   */\n  pop\n  pop\n  jump\t// out\n    /* \"contracts/Storage.sol\":383:854  contract Storage {... */\ntag_4:\n  dataSize(sub_0)\n  dup1\n  dataOffset(sub_0)\n  0x00\n  codecopy\n  0x00\n  return\nstop\n\nsub_0: assembly {\n        /* \"contracts/Storage.sol\":383:854  contract Storage {... */\n      mstore(0x40, 0x80)\n      callvalue\n      dup1\n      iszero\n      tag_1\n      jumpi\n      0x00\n      dup1\n      revert\n    tag_1:\n      pop\n      jumpi(tag_2, lt(calldatasize, 0x04))\n      shr(0xe0, calldataload(0x00))\n      dup1\n      0x01725a0b\n      eq\n      tag_3\n      jumpi\n      dup1\n      0x35f34232\n      eq\n      tag_4\n      jumpi\n      dup1\n      0x58c3b870\n      eq\n      tag_5\n      jumpi\n      dup1\n      0x975057e7\n      eq\n      tag_6\n      jumpi\n    tag_2:\n      0x00\n      dup1\n      revert\n        /* \"contracts/Storage.sol\":697:851  function demo() public view returns(uint block_no, uint timestamp, address msgSender) {... */\n    tag_3:\n      tag_7\n      tag_8\n      jump\t// in\n    tag_7:\n      mload(0x40)\n      tag_9\n      swap4\n      swap3\n      swap2\n      swap1\n      tag_10\n      jump\t// in\n    tag_9:\n      mload(0x40)\n      dup1\n      swap2\n      sub\n      swap1\n      return\n        /* \"contracts/Storage.sol\":407:469  string[] public student = ['Tommy', 'Carl', 'Niko', 'Michael'] */\n    tag_4:\n      tag_11\n      0x04\n      dup1\n      calldatasize\n      sub\n      dup2\n      add\n      swap1\n      tag_12\n      swap2\n      swap1\n      tag_13\n      jump\t// in\n    tag_12:\n      tag_14\n      jump\t// in\n    tag_11:\n      mload(0x40)\n      tag_15\n      swap2\n      swap1\n      tag_16\n      jump\t// in\n    tag_15:\n      mload(0x40)\n      dup1\n      swap2\n      sub\n      swap1\n      return\n        /* \"contracts/Storage.sol\":478:582  function memo() public view {... */\n    tag_5:\n      tag_17\n      tag_18\n      jump\t// in\n    tag_17:\n      stop\n        /* \"contracts/Storage.sol\":590:689  function store() public {... */\n    tag_6:\n      tag_19\n      tag_20\n      jump\t// in\n    tag_19:\n      stop\n        /* \"contracts/Storage.sol\":697:851  function demo() public view returns(uint block_no, uint timestamp, address msgSender) {... */\n    tag_8:\n        /* \"contracts/Storage.sol\":733:746  uint block_no */\n      0x00\n        /* \"contracts/Storage.sol\":748:762  uint timestamp */\n      dup1\n        /* \"contracts/Storage.sol\":764:781  address msgSender */\n      0x00\n        /* \"contracts/Storage.sol\":801:813  block.number */\n      number\n        /* \"contracts/Storage.sol\":815:830  block.timestamp */\n      timestamp\n        /* \"contracts/Storage.sol\":832:842  msg.sender */\n      caller\n        /* \"contracts/Storage.sol\":794:843  return(block.number, block.timestamp, msg.sender) */\n      swap3\n      pop\n      swap3\n      pop\n      swap3\n      pop\n        /* \"contracts/Storage.sol\":697:851  function demo() public view returns(uint block_no, uint timestamp, address msgSender) {... */\n      swap1\n      swap2\n      swap3\n      jump\t// out\n        /* \"contracts/Storage.sol\":407:469  string[] public student = ['Tommy', 'Carl', 'Niko', 'Michael'] */\n    tag_14:\n      0x00\n      dup2\n      dup2\n      sload\n      dup2\n      lt\n      tag_22\n      jumpi\n      0x00\n      dup1\n      revert\n    tag_22:\n      swap1\n      0x00\n      mstore\n      keccak256(0x00, 0x20)\n      add\n      0x00\n      swap2\n      pop\n      swap1\n      pop\n      dup1\n      sload\n      tag_24\n      swap1\n      tag_25\n      jump\t// in\n    tag_24:\n      dup1\n      0x1f\n      add\n      0x20\n      dup1\n      swap2\n      div\n      mul\n      0x20\n      add\n      mload(0x40)\n      swap1\n      dup2\n      add\n      0x40\n      mstore\n      dup1\n      swap3\n      swap2\n      swap1\n      dup2\n      dup2\n      mstore\n      0x20\n      add\n      dup3\n      dup1\n      sload\n      tag_26\n      swap1\n      tag_25\n      jump\t// in\n    tag_26:\n      dup1\n      iszero\n      tag_27\n      jumpi\n      dup1\n      0x1f\n      lt\n      tag_28\n      jumpi\n      0x0100\n      dup1\n      dup4\n      sload\n      div\n      mul\n      dup4\n      mstore\n      swap2\n      0x20\n      add\n      swap2\n      jump(tag_27)\n    tag_28:\n      dup3\n      add\n      swap2\n      swap1\n      0x00\n      mstore\n      keccak256(0x00, 0x20)\n      swap1\n    tag_29:\n      dup2\n      sload\n      dup2\n      mstore\n      swap1\n      0x01\n      add\n      swap1\n      0x20\n      add\n      dup1\n      dup4\n      gt\n      tag_29\n      jumpi\n      dup3\n      swap1\n      sub\n      0x1f\n      and\n      dup3\n      add\n      swap2\n    tag_27:\n      pop\n      pop\n      pop\n      pop\n      pop\n      dup2\n      jump\t// out\n        /* \"contracts/Storage.sol\":478:582  function memo() public view {... */\n    tag_18:\n        /* \"contracts/Storage.sol\":517:535  string[] memory s1 */\n      0x00\n        /* \"contracts/Storage.sol\":538:545  student */\n      dup1\n        /* \"contracts/Storage.sol\":517:545  string[] memory s1 = student */\n      dup1\n      sload\n      dup1\n      0x20\n      mul\n      0x20\n      add\n      mload(0x40)\n      swap1\n      dup2\n      add\n      0x40\n      mstore\n      dup1\n      swap3\n      swap2\n      swap1\n      dup2\n      dup2\n      mstore\n      0x20\n      add\n      0x00\n      swap1\n    tag_31:\n      dup3\n      dup3\n      lt\n      iszero\n      tag_32\n      jumpi\n      dup4\n      dup3\n      swap1\n      0x00\n      mstore\n      keccak256(0x00, 0x20)\n      add\n      dup1\n      sload\n      tag_34\n      swap1\n      tag_25\n      jump\t// in\n    tag_34:\n      dup1\n      0x1f\n      add\n      0x20\n      dup1\n      swap2\n      div\n      mul\n      0x20\n      add\n      mload(0x40)\n      swap1\n      dup2\n      add\n      0x40\n      mstore\n      dup1\n      swap3\n      swap2\n      swap1\n      dup2\n      dup2\n      mstore\n      0x20\n      add\n      dup3\n      dup1\n      sload\n      tag_35\n      swap1\n      tag_25\n      jump\t// in\n    tag_35:\n      dup1\n      iszero\n      tag_36\n      jumpi\n      dup1\n      0x1f\n      lt\n      tag_37\n      jumpi\n      0x0100\n      dup1\n      dup4\n      sload\n      div\n      mul\n      dup4\n      mstore\n      swap2\n      0x20\n      add\n      swap2\n      jump(tag_36)\n    tag_37:\n      dup3\n      add\n      swap2\n      swap1\n      0x00\n      mstore\n      keccak256(0x00, 0x20)\n      swap1\n    tag_38:\n      dup2\n      sload\n      dup2\n      mstore\n      swap1\n      0x01\n      add\n      swap1\n      0x20\n      add\n      dup1\n      dup4\n      gt\n      tag_38\n      jumpi\n      dup3\n      swap1\n      sub\n      0x1f\n      and\n      dup3\n      add\n      swap2\n    tag_36:\n      pop\n      pop\n      pop\n      pop\n      pop\n      dup2\n      mstore\n      0x20\n      add\n      swap1\n      0x01\n      add\n      swap1\n      jump(tag_31)\n    tag_32:\n      pop\n      pop\n      pop\n      pop\n      swap1\n      pop\n        /* \"contracts/Storage.sol\":556:574  s1[3] = 'Franklin' */\n      mload(0x40)\n      dup1\n      0x40\n      add\n      0x40\n      mstore\n      dup1\n      0x08\n      dup2\n      mstore\n      0x20\n      add\n      0x4672616e6b6c696e000000000000000000000000000000000000000000000000\n      dup2\n      mstore\n      pop\n        /* \"contracts/Storage.sol\":556:558  s1 */\n      dup2\n        /* \"contracts/Storage.sol\":559:560  3 */\n      0x03\n        /* \"contracts/Storage.sol\":556:561  s1[3] */\n      dup2\n      mload\n      dup2\n      lt\n      tag_39\n      jumpi\n      tag_40\n      tag_41\n      jump\t// in\n    tag_40:\n    tag_39:\n      0x20\n      mul\n      0x20\n      add\n      add\n        /* \"contracts/Storage.sol\":556:574  s1[3] = 'Franklin' */\n      dup2\n      swap1\n      mstore\n      pop\n        /* \"contracts/Storage.sol\":506:582  {... */\n      pop\n        /* \"contracts/Storage.sol\":478:582  function memo() public view {... */\n      jump\t// out\n        /* \"contracts/Storage.sol\":590:689  function store() public {... */\n    tag_20:\n        /* \"contracts/Storage.sol\":625:644  string[] storage s1 */\n      0x00\n        /* \"contracts/Storage.sol\":665:681  s1[3] = 'Trevor' */\n      mload(0x40)\n      dup1\n      0x40\n      add\n      0x40\n      mstore\n      dup1\n      0x06\n      dup2\n      mstore\n      0x20\n      add\n      0x547265766f720000000000000000000000000000000000000000000000000000\n      dup2\n      mstore\n      pop\n        /* \"contracts/Storage.sol\":665:667  s1 */\n      dup2\n        /* \"contracts/Storage.sol\":668:669  3 */\n      0x03\n        /* \"contracts/Storage.sol\":665:670  s1[3] */\n      dup2\n      sload\n      dup2\n      lt\n      tag_43\n      jumpi\n      tag_44\n      tag_41\n      jump\t// in\n    tag_44:\n    tag_43:\n      swap1\n      0x00\n      mstore\n      keccak256(0x00, 0x20)\n      add\n        /* \"contracts/Storage.sol\":665:681  s1[3] = 'Trevor' */\n      swap1\n      dup2\n      tag_46\n      swap2\n      swap1\n      tag_47\n      jump\t// in\n    tag_46:\n      pop\n        /* \"contracts/Storage.sol\":614:689  {... */\n      pop\n        /* \"contracts/Storage.sol\":590:689  function store() public {... */\n      jump\t// out\n        /* \"#utility.yul\":7:84   */\n    tag_48:\n        /* \"#utility.yul\":44:51   */\n      0x00\n        /* \"#utility.yul\":73:78   */\n      dup2\n        /* \"#utility.yul\":62:78   */\n      swap1\n      pop\n        /* \"#utility.yul\":7:84   */\n      swap2\n      swap1\n      pop\n      jump\t// out\n        /* \"#utility.yul\":90:208   */\n    tag_49:\n        /* \"#utility.yul\":177:201   */\n      tag_83\n        /* \"#utility.yul\":195:200   */\n      dup2\n        /* \"#utility.yul\":177:201   */\n      tag_48\n      jump\t// in\n    tag_83:\n        /* \"#utility.yul\":172:175   */\n      dup3\n        /* \"#utility.yul\":165:202   */\n      mstore\n        /* \"#utility.yul\":90:208   */\n      pop\n      pop\n      jump\t// out\n        /* \"#utility.yul\":214:340   */\n    tag_50:\n        /* \"#utility.yul\":251:258   */\n      0x00\n        /* \"#utility.yul\":291:333   */\n      0xffffffffffffffffffffffffffffffffffffffff\n        /* \"#utility.yul\":284:289   */\n      dup3\n        /* \"#utility.yul\":280:334   */\n      and\n        /* \"#utility.yul\":269:334   */\n      swap1\n      pop\n        /* \"#utility.yul\":214:340   */\n      swap2\n      swap1\n      pop\n      jump\t// out\n        /* \"#utility.yul\":346:442   */\n    tag_51:\n        /* \"#utility.yul\":383:390   */\n      0x00\n        /* \"#utility.yul\":412:436   */\n      tag_86\n        /* \"#utility.yul\":430:435   */\n      dup3\n        /* \"#utility.yul\":412:436   */\n      tag_50\n      jump\t// in\n    tag_86:\n        /* \"#utility.yul\":401:436   */\n      swap1\n      pop\n        /* \"#utility.yul\":346:442   */\n      swap2\n      swap1\n      pop\n      jump\t// out\n        /* \"#utility.yul\":448:566   */\n    tag_52:\n        /* \"#utility.yul\":535:559   */\n      tag_88\n        /* \"#utility.yul\":553:558   */\n      dup2\n        /* \"#utility.yul\":535:559   */\n      tag_51\n      jump\t// in\n    tag_88:\n        /* \"#utility.yul\":530:533   */\n      dup3\n        /* \"#utility.yul\":523:560   */\n      mstore\n        /* \"#utility.yul\":448:566   */\n      pop\n      pop\n      jump\t// out\n        /* \"#utility.yul\":572:1014   */\n    tag_10:\n        /* \"#utility.yul\":721:725   */\n      0x00\n        /* \"#utility.yul\":759:761   */\n      0x60\n        /* \"#utility.yul\":748:757   */\n      dup3\n        /* \"#utility.yul\":744:762   */\n      add\n        /* \"#utility.yul\":736:762   */\n      swap1\n      pop\n        /* \"#utility.yul\":772:843   */\n      tag_90\n        /* \"#utility.yul\":840:841   */\n      0x00\n        /* \"#utility.yul\":829:838   */\n      dup4\n        /* \"#utility.yul\":825:842   */\n      add\n        /* \"#utility.yul\":816:822   */\n      dup7\n        /* \"#utility.yul\":772:843   */\n      tag_49\n      jump\t// in\n    tag_90:\n        /* \"#utility.yul\":853:925   */\n      tag_91\n        /* \"#utility.yul\":921:923   */\n      0x20\n        /* \"#utility.yul\":910:919   */\n      dup4\n        /* \"#utility.yul\":906:924   */\n      add\n        /* \"#utility.yul\":897:903   */\n      dup6\n        /* \"#utility.yul\":853:925   */\n      tag_49\n      jump\t// in\n    tag_91:\n        /* \"#utility.yul\":935:1007   */\n      tag_92\n        /* \"#utility.yul\":1003:1005   */\n      0x40\n        /* \"#utility.yul\":992:1001   */\n      dup4\n        /* \"#utility.yul\":988:1006   */\n      add\n        /* \"#utility.yul\":979:985   */\n      dup5\n        /* \"#utility.yul\":935:1007   */\n      tag_52\n      jump\t// in\n    tag_92:\n        /* \"#utility.yul\":572:1014   */\n      swap5\n      swap4\n      pop\n      pop\n      pop\n      pop\n      jump\t// out\n        /* \"#utility.yul\":1101:1218   */\n    tag_54:\n        /* \"#utility.yul\":1210:1211   */\n      0x00\n        /* \"#utility.yul\":1207:1208   */\n      dup1\n        /* \"#utility.yul\":1200:1212   */\n      revert\n        /* \"#utility.yul\":1347:1469   */\n    tag_56:\n        /* \"#utility.yul\":1420:1444   */\n      tag_97\n        /* \"#utility.yul\":1438:1443   */\n      dup2\n        /* \"#utility.yul\":1420:1444   */\n      tag_48\n      jump\t// in\n    tag_97:\n        /* \"#utility.yul\":1413:1418   */\n      dup2\n        /* \"#utility.yul\":1410:1445   */\n      eq\n        /* \"#utility.yul\":1400:1463   */\n      tag_98\n      jumpi\n        /* \"#utility.yul\":1459:1460   */\n      0x00\n        /* \"#utility.yul\":1456:1457   */\n      dup1\n        /* \"#utility.yul\":1449:1461   */\n      revert\n        /* \"#utility.yul\":1400:1463   */\n    tag_98:\n        /* \"#utility.yul\":1347:1469   */\n      pop\n      jump\t// out\n        /* \"#utility.yul\":1475:1614   */\n    tag_57:\n        /* \"#utility.yul\":1521:1526   */\n      0x00\n        /* \"#utility.yul\":1559:1565   */\n      dup2\n        /* \"#utility.yul\":1546:1566   */\n      calldataload\n        /* \"#utility.yul\":1537:1566   */\n      swap1\n      pop\n        /* \"#utility.yul\":1575:1608   */\n      tag_100\n        /* \"#utility.yul\":1602:1607   */\n      dup2\n        /* \"#utility.yul\":1575:1608   */\n      tag_56\n      jump\t// in\n    tag_100:\n        /* \"#utility.yul\":1475:1614   */\n      swap3\n      swap2\n      pop\n      pop\n      jump\t// out\n        /* \"#utility.yul\":1620:1949   */\n    tag_13:\n        /* \"#utility.yul\":1679:1685   */\n      0x00\n        /* \"#utility.yul\":1728:1730   */\n      0x20\n        /* \"#utility.yul\":1716:1725   */\n      dup3\n        /* \"#utility.yul\":1707:1714   */\n      dup5\n        /* \"#utility.yul\":1703:1726   */\n      sub\n        /* \"#utility.yul\":1699:1731   */\n      slt\n        /* \"#utility.yul\":1696:1815   */\n      iszero\n      tag_102\n      jumpi\n        /* \"#utility.yul\":1734:1813   */\n      tag_103\n      tag_54\n      jump\t// in\n    tag_103:\n        /* \"#utility.yul\":1696:1815   */\n    tag_102:\n        /* \"#utility.yul\":1854:1855   */\n      0x00\n        /* \"#utility.yul\":1879:1932   */\n      tag_104\n        /* \"#utility.yul\":1924:1931   */\n      dup5\n        /* \"#utility.yul\":1915:1921   */\n      dup3\n        /* \"#utility.yul\":1904:1913   */\n      dup6\n        /* \"#utility.yul\":1900:1922   */\n      add\n        /* \"#utility.yul\":1879:1932   */\n      tag_57\n      jump\t// in\n    tag_104:\n        /* \"#utility.yul\":1869:1932   */\n      swap2\n      pop\n        /* \"#utility.yul\":1825:1942   */\n      pop\n        /* \"#utility.yul\":1620:1949   */\n      swap3\n      swap2\n      pop\n      pop\n      jump\t// out\n        /* \"#utility.yul\":1955:2054   */\n    tag_58:\n        /* \"#utility.yul\":2007:2013   */\n      0x00\n        /* \"#utility.yul\":2041:2046   */\n      dup2\n        /* \"#utility.yul\":2035:2047   */\n      mload\n        /* \"#utility.yul\":2025:2047   */\n      swap1\n      pop\n        /* \"#utility.yul\":1955:2054   */\n      swap2\n      swap1\n      pop\n      jump\t// out\n        /* \"#utility.yul\":2060:2229   */\n    tag_59:\n        /* \"#utility.yul\":2144:2155   */\n      0x00\n        /* \"#utility.yul\":2178:2184   */\n      dup3\n        /* \"#utility.yul\":2173:2176   */\n      dup3\n        /* \"#utility.yul\":2166:2185   */\n      mstore\n        /* \"#utility.yul\":2218:2222   */\n      0x20\n        /* \"#utility.yul\":2213:2216   */\n      dup3\n        /* \"#utility.yul\":2209:2223   */\n      add\n        /* \"#utility.yul\":2194:2223   */\n      swap1\n      pop\n        /* \"#utility.yul\":2060:2229   */\n      swap3\n      swap2\n      pop\n      pop\n      jump\t// out\n        /* \"#utility.yul\":2235:2481   */\n    tag_60:\n        /* \"#utility.yul\":2316:2317   */\n      0x00\n        /* \"#utility.yul\":2326:2439   */\n    tag_108:\n        /* \"#utility.yul\":2340:2346   */\n      dup4\n        /* \"#utility.yul\":2337:2338   */\n      dup2\n        /* \"#utility.yul\":2334:2347   */\n      lt\n        /* \"#utility.yul\":2326:2439   */\n      iszero\n      tag_110\n      jumpi\n        /* \"#utility.yul\":2425:2426   */\n      dup1\n        /* \"#utility.yul\":2420:2423   */\n      dup3\n        /* \"#utility.yul\":2416:2427   */\n      add\n        /* \"#utility.yul\":2410:2428   */\n      mload\n        /* \"#utility.yul\":2406:2407   */\n      dup2\n        /* \"#utility.yul\":2401:2404   */\n      dup5\n        /* \"#utility.yul\":2397:2408   */\n      add\n        /* \"#utility.yul\":2390:2429   */\n      mstore\n        /* \"#utility.yul\":2362:2364   */\n      0x20\n        /* \"#utility.yul\":2359:2360   */\n      dup2\n        /* \"#utility.yul\":2355:2365   */\n      add\n        /* \"#utility.yul\":2350:2365   */\n      swap1\n      pop\n        /* \"#utility.yul\":2326:2439   */\n      jump(tag_108)\n    tag_110:\n        /* \"#utility.yul\":2473:2474   */\n      0x00\n        /* \"#utility.yul\":2464:2470   */\n      dup5\n        /* \"#utility.yul\":2459:2462   */\n      dup5\n        /* \"#utility.yul\":2455:2471   */\n      add\n        /* \"#utility.yul\":2448:2475   */\n      mstore\n        /* \"#utility.yul\":2297:2481   */\n      pop\n        /* \"#utility.yul\":2235:2481   */\n      pop\n      pop\n      pop\n      jump\t// out\n        /* \"#utility.yul\":2487:2589   */\n    tag_61:\n        /* \"#utility.yul\":2528:2534   */\n      0x00\n        /* \"#utility.yul\":2579:2581   */\n      0x1f\n        /* \"#utility.yul\":2575:2582   */\n      not\n        /* \"#utility.yul\":2570:2572   */\n      0x1f\n        /* \"#utility.yul\":2563:2568   */\n      dup4\n        /* \"#utility.yul\":2559:2573   */\n      add\n        /* \"#utility.yul\":2555:2583   */\n      and\n        /* \"#utility.yul\":2545:2583   */\n      swap1\n      pop\n        /* \"#utility.yul\":2487:2589   */\n      swap2\n      swap1\n      pop\n      jump\t// out\n        /* \"#utility.yul\":2595:2972   */\n    tag_62:\n        /* \"#utility.yul\":2683:2686   */\n      0x00\n        /* \"#utility.yul\":2711:2750   */\n      tag_113\n        /* \"#utility.yul\":2744:2749   */\n      dup3\n        /* \"#utility.yul\":2711:2750   */\n      tag_58\n      jump\t// in\n    tag_113:\n        /* \"#utility.yul\":2766:2837   */\n      tag_114\n        /* \"#utility.yul\":2830:2836   */\n      dup2\n        /* \"#utility.yul\":2825:2828   */\n      dup6\n        /* \"#utility.yul\":2766:2837   */\n      tag_59\n      jump\t// in\n    tag_114:\n        /* \"#utility.yul\":2759:2837   */\n      swap4\n      pop\n        /* \"#utility.yul\":2846:2911   */\n      tag_115\n        /* \"#utility.yul\":2904:2910   */\n      dup2\n        /* \"#utility.yul\":2899:2902   */\n      dup6\n        /* \"#utility.yul\":2892:2896   */\n      0x20\n        /* \"#utility.yul\":2885:2890   */\n      dup7\n        /* \"#utility.yul\":2881:2897   */\n      add\n        /* \"#utility.yul\":2846:2911   */\n      tag_60\n      jump\t// in\n    tag_115:\n        /* \"#utility.yul\":2936:2965   */\n      tag_116\n        /* \"#utility.yul\":2958:2964   */\n      dup2\n        /* \"#utility.yul\":2936:2965   */\n      tag_61\n      jump\t// in\n    tag_116:\n        /* \"#utility.yul\":2931:2934   */\n      dup5\n        /* \"#utility.yul\":2927:2966   */\n      add\n        /* \"#utility.yul\":2920:2966   */\n      swap2\n      pop\n        /* \"#utility.yul\":2687:2972   */\n      pop\n        /* \"#utility.yul\":2595:2972   */\n      swap3\n      swap2\n      pop\n      pop\n      jump\t// out\n        /* \"#utility.yul\":2978:3291   */\n    tag_16:\n        /* \"#utility.yul\":3091:3095   */\n      0x00\n        /* \"#utility.yul\":3129:3131   */\n      0x20\n        /* \"#utility.yul\":3118:3127   */\n      dup3\n        /* \"#utility.yul\":3114:3132   */\n      add\n        /* \"#utility.yul\":3106:3132   */\n      swap1\n      pop\n        /* \"#utility.yul\":3178:3187   */\n      dup2\n        /* \"#utility.yul\":3172:3176   */\n      dup2\n        /* \"#utility.yul\":3168:3188   */\n      sub\n        /* \"#utility.yul\":3164:3165   */\n      0x00\n        /* \"#utility.yul\":3153:3162   */\n      dup4\n        /* \"#utility.yul\":3149:3166   */\n      add\n        /* \"#utility.yul\":3142:3189   */\n      mstore\n        /* \"#utility.yul\":3206:3284   */\n      tag_118\n        /* \"#utility.yul\":3279:3283   */\n      dup2\n        /* \"#utility.yul\":3270:3276   */\n      dup5\n        /* \"#utility.yul\":3206:3284   */\n      tag_62\n      jump\t// in\n    tag_118:\n        /* \"#utility.yul\":3198:3284   */\n      swap1\n      pop\n        /* \"#utility.yul\":2978:3291   */\n      swap3\n      swap2\n      pop\n      pop\n      jump\t// out\n        /* \"#utility.yul\":3297:3477   */\n    tag_63:\n        /* \"#utility.yul\":3345:3422   */\n      0x4e487b7100000000000000000000000000000000000000000000000000000000\n        /* \"#utility.yul\":3342:3343   */\n      0x00\n        /* \"#utility.yul\":3335:3423   */\n      mstore\n        /* \"#utility.yul\":3442:3446   */\n      0x22\n        /* \"#utility.yul\":3439:3440   */\n      0x04\n        /* \"#utility.yul\":3432:3447   */\n      mstore\n        /* \"#utility.yul\":3466:3470   */\n      0x24\n        /* \"#utility.yul\":3463:3464   */\n      0x00\n        /* \"#utility.yul\":3456:3471   */\n      revert\n        /* \"#utility.yul\":3483:3803   */\n    tag_25:\n        /* \"#utility.yul\":3527:3533   */\n      0x00\n        /* \"#utility.yul\":3564:3565   */\n      0x02\n        /* \"#utility.yul\":3558:3562   */\n      dup3\n        /* \"#utility.yul\":3554:3566   */\n      div\n        /* \"#utility.yul\":3544:3566   */\n      swap1\n      pop\n        /* \"#utility.yul\":3611:3612   */\n      0x01\n        /* \"#utility.yul\":3605:3609   */\n      dup3\n        /* \"#utility.yul\":3601:3613   */\n      and\n        /* \"#utility.yul\":3632:3650   */\n      dup1\n        /* \"#utility.yul\":3622:3703   */\n      tag_121\n      jumpi\n        /* \"#utility.yul\":3688:3692   */\n      0x7f\n        /* \"#utility.yul\":3680:3686   */\n      dup3\n        /* \"#utility.yul\":3676:3693   */\n      and\n        /* \"#utility.yul\":3666:3693   */\n      swap2\n      pop\n        /* \"#utility.yul\":3622:3703   */\n    tag_121:\n        /* \"#utility.yul\":3750:3752   */\n      0x20\n        /* \"#utility.yul\":3742:3748   */\n      dup3\n        /* \"#utility.yul\":3739:3753   */\n      lt\n        /* \"#utility.yul\":3719:3737   */\n      dup2\n        /* \"#utility.yul\":3716:3754   */\n      sub\n        /* \"#utility.yul\":3713:3797   */\n      tag_122\n      jumpi\n        /* \"#utility.yul\":3769:3787   */\n      tag_123\n      tag_63\n      jump\t// in\n    tag_123:\n        /* \"#utility.yul\":3713:3797   */\n    tag_122:\n        /* \"#utility.yul\":3534:3803   */\n      pop\n        /* \"#utility.yul\":3483:3803   */\n      swap2\n      swap1\n      pop\n      jump\t// out\n        /* \"#utility.yul\":3809:3989   */\n    tag_41:\n        /* \"#utility.yul\":3857:3934   */\n      0x4e487b7100000000000000000000000000000000000000000000000000000000\n        /* \"#utility.yul\":3854:3855   */\n      0x00\n        /* \"#utility.yul\":3847:3935   */\n      mstore\n        /* \"#utility.yul\":3954:3958   */\n      0x32\n        /* \"#utility.yul\":3951:3952   */\n      0x04\n        /* \"#utility.yul\":3944:3959   */\n      mstore\n        /* \"#utility.yul\":3978:3982   */\n      0x24\n        /* \"#utility.yul\":3975:3976   */\n      0x00\n        /* \"#utility.yul\":3968:3983   */\n      revert\n        /* \"#utility.yul\":3995:4175   */\n    tag_64:\n        /* \"#utility.yul\":4043:4120   */\n      0x4e487b7100000000000000000000000000000000000000000000000000000000\n        /* \"#utility.yul\":4040:4041   */\n      0x00\n        /* \"#utility.yul\":4033:4121   */\n      mstore\n        /* \"#utility.yul\":4140:4144   */\n      0x41\n        /* \"#utility.yul\":4137:4138   */\n      0x04\n        /* \"#utility.yul\":4130:4145   */\n      mstore\n        /* \"#utility.yul\":4164:4168   */\n      0x24\n        /* \"#utility.yul\":4161:4162   */\n      0x00\n        /* \"#utility.yul\":4154:4169   */\n      revert\n        /* \"#utility.yul\":4181:4322   */\n    tag_65:\n        /* \"#utility.yul\":4230:4234   */\n      0x00\n        /* \"#utility.yul\":4253:4256   */\n      dup2\n        /* \"#utility.yul\":4245:4256   */\n      swap1\n      pop\n        /* \"#utility.yul\":4276:4279   */\n      dup2\n        /* \"#utility.yul\":4273:4274   */\n      0x00\n        /* \"#utility.yul\":4266:4280   */\n      mstore\n        /* \"#utility.yul\":4310:4314   */\n      0x20\n        /* \"#utility.yul\":4307:4308   */\n      0x00\n        /* \"#utility.yul\":4297:4315   */\n      keccak256\n        /* \"#utility.yul\":4289:4315   */\n      swap1\n      pop\n        /* \"#utility.yul\":4181:4322   */\n      swap2\n      swap1\n      pop\n      jump\t// out\n        /* \"#utility.yul\":4328:4421   */\n    tag_66:\n        /* \"#utility.yul\":4365:4371   */\n      0x00\n        /* \"#utility.yul\":4412:4414   */\n      0x20\n        /* \"#utility.yul\":4407:4409   */\n      0x1f\n        /* \"#utility.yul\":4400:4405   */\n      dup4\n        /* \"#utility.yul\":4396:4410   */\n      add\n        /* \"#utility.yul\":4392:4415   */\n      div\n        /* \"#utility.yul\":4382:4415   */\n      swap1\n      pop\n        /* \"#utility.yul\":4328:4421   */\n      swap2\n      swap1\n      pop\n      jump\t// out\n        /* \"#utility.yul\":4427:4534   */\n    tag_67:\n        /* \"#utility.yul\":4471:4479   */\n      0x00\n        /* \"#utility.yul\":4521:4526   */\n      dup3\n        /* \"#utility.yul\":4515:4519   */\n      dup3\n        /* \"#utility.yul\":4511:4527   */\n      shl\n        /* \"#utility.yul\":4490:4527   */\n      swap1\n      pop\n        /* \"#utility.yul\":4427:4534   */\n      swap3\n      swap2\n      pop\n      pop\n      jump\t// out\n        /* \"#utility.yul\":4540:4933   */\n    tag_68:\n        /* \"#utility.yul\":4609:4615   */\n      0x00\n        /* \"#utility.yul\":4659:4660   */\n      0x08\n        /* \"#utility.yul\":4647:4657   */\n      dup4\n        /* \"#utility.yul\":4643:4661   */\n      mul\n        /* \"#utility.yul\":4682:4779   */\n      tag_130\n        /* \"#utility.yul\":4712:4778   */\n      0xffffffffffffffffffffffffffffffffffffffffffffffffffffffffffffffff\n        /* \"#utility.yul\":4701:4710   */\n      dup3\n        /* \"#utility.yul\":4682:4779   */\n      tag_67\n      jump\t// in\n    tag_130:\n        /* \"#utility.yul\":4800:4839   */\n      tag_131\n        /* \"#utility.yul\":4830:4838   */\n      dup7\n        /* \"#utility.yul\":4819:4828   */\n      dup4\n        /* \"#utility.yul\":4800:4839   */\n      tag_67\n      jump\t// in\n    tag_131:\n        /* \"#utility.yul\":4788:4839   */\n      swap6\n      pop\n        /* \"#utility.yul\":4872:4876   */\n      dup1\n        /* \"#utility.yul\":4868:4877   */\n      not\n        /* \"#utility.yul\":4861:4866   */\n      dup5\n        /* \"#utility.yul\":4857:4878   */\n      and\n        /* \"#utility.yul\":4848:4878   */\n      swap4\n      pop\n        /* \"#utility.yul\":4921:4925   */\n      dup1\n        /* \"#utility.yul\":4911:4919   */\n      dup7\n        /* \"#utility.yul\":4907:4926   */\n      and\n        /* \"#utility.yul\":4900:4905   */\n      dup5\n        /* \"#utility.yul\":4897:4927   */\n      or\n        /* \"#utility.yul\":4887:4927   */\n      swap3\n      pop\n        /* \"#utility.yul\":4616:4933   */\n      pop\n      pop\n        /* \"#utility.yul\":4540:4933   */\n      swap4\n      swap3\n      pop\n      pop\n      pop\n      jump\t// out\n        /* \"#utility.yul\":4939:4999   */\n    tag_69:\n        /* \"#utility.yul\":4967:4970   */\n      0x00\n        /* \"#utility.yul\":4988:4993   */\n      dup2\n        /* \"#utility.yul\":4981:4993   */\n      swap1\n      pop\n        /* \"#utility.yul\":4939:4999   */\n      swap2\n      swap1\n      pop\n      jump\t// out\n        /* \"#utility.yul\":5005:5147   */\n    tag_70:\n        /* \"#utility.yul\":5055:5064   */\n      0x00\n        /* \"#utility.yul\":5088:5141   */\n      tag_134\n        /* \"#utility.yul\":5106:5140   */\n      tag_135\n        /* \"#utility.yul\":5115:5139   */\n      tag_136\n        /* \"#utility.yul\":5133:5138   */\n      dup5\n        /* \"#utility.yul\":5115:5139   */\n      tag_48\n      jump\t// in\n    tag_136:\n        /* \"#utility.yul\":5106:5140   */\n      tag_69\n      jump\t// in\n    tag_135:\n        /* \"#utility.yul\":5088:5141   */\n      tag_48\n      jump\t// in\n    tag_134:\n        /* \"#utility.yul\":5075:5141   */\n      swap1\n      pop\n        /* \"#utility.yul\":5005:5147   */\n      swap2\n      swap1\n      pop\n      jump\t// out\n        /* \"#utility.yul\":5153:5228   */\n    tag_71:\n        /* \"#utility.yul\":5196:5199   */\n      0x00\n        /* \"#utility.yul\":5217:5222   */\n      dup2\n        /* \"#utility.yul\":5210:5222   */\n      swap1\n      pop\n        /* \"#utility.yul\":5153:5228   */\n      swap2\n      swap1\n      pop\n      jump\t// out\n        /* \"#utility.yul\":5234:5503   */\n    tag_72:\n        /* \"#utility.yul\":5344:5383   */\n      tag_139\n        /* \"#utility.yul\":5375:5382   */\n      dup4\n        /* \"#utility.yul\":5344:5383   */\n      tag_70\n      jump\t// in\n    tag_139:\n        /* \"#utility.yul\":5405:5496   */\n      tag_140\n        /* \"#utility.yul\":5454:5495   */\n      tag_141\n        /* \"#utility.yul\":5478:5494   */\n      dup3\n        /* \"#utility.yul\":5454:5495   */\n      tag_71\n      jump\t// in\n    tag_141:\n        /* \"#utility.yul\":5446:5452   */\n      dup5\n        /* \"#utility.yul\":5439:5443   */\n      dup5\n        /* \"#utility.yul\":5433:5444   */\n      sload\n        /* \"#utility.yul\":5405:5496   */\n      tag_68\n      jump\t// in\n    tag_140:\n        /* \"#utility.yul\":5399:5403   */\n      dup3\n        /* \"#utility.yul\":5392:5497   */\n      sstore\n        /* \"#utility.yul\":5310:5503   */\n      pop\n        /* \"#utility.yul\":5234:5503   */\n      pop\n      pop\n      pop\n      jump\t// out\n        /* \"#utility.yul\":5509:5582   */\n    tag_73:\n        /* \"#utility.yul\":5554:5557   */\n      0x00\n        /* \"#utility.yul\":5509:5582   */\n      swap1\n      jump\t// out\n        /* \"#utility.yul\":5588:5777   */\n    tag_74:\n        /* \"#utility.yul\":5665:5697   */\n      tag_144\n      tag_73\n      jump\t// in\n    tag_144:\n        /* \"#utility.yul\":5706:5771   */\n      tag_145\n        /* \"#utility.yul\":5764:5770   */\n      dup2\n        /* \"#utility.yul\":5756:5762   */\n      dup5\n        /* \"#utility.yul\":5750:5754   */\n      dup5\n        /* \"#utility.yul\":5706:5771   */\n      tag_72\n      jump\t// in\n    tag_145:\n        /* \"#utility.yul\":5641:5777   */\n      pop\n        /* \"#utility.yul\":5588:5777   */\n      pop\n      pop\n      jump\t// out\n        /* \"#utility.yul\":5783:5969   */\n    tag_75:\n        /* \"#utility.yul\":5843:5963   */\n    tag_147:\n        /* \"#utility.yul\":5860:5863   */\n      dup2\n        /* \"#utility.yul\":5853:5858   */\n      dup2\n        /* \"#utility.yul\":5850:5864   */\n      lt\n        /* \"#utility.yul\":5843:5963   */\n      iszero\n      tag_149\n      jumpi\n        /* \"#utility.yul\":5914:5953   */\n      tag_150\n        /* \"#utility.yul\":5951:5952   */\n      0x00\n        /* \"#utility.yul\":5944:5949   */\n      dup3\n        /* \"#utility.yul\":5914:5953   */\n      tag_74\n      jump\t// in\n    tag_150:\n        /* \"#utility.yul\":5887:5888   */\n      0x01\n        /* \"#utility.yul\":5880:5885   */\n      dup2\n        /* \"#utility.yul\":5876:5889   */\n      add\n        /* \"#utility.yul\":5867:5889   */\n      swap1\n      pop\n        /* \"#utility.yul\":5843:5963   */\n      jump(tag_147)\n    tag_149:\n        /* \"#utility.yul\":5783:5969   */\n      pop\n      pop\n      jump\t// out\n        /* \"#utility.yul\":5975:6518   */\n    tag_76:\n        /* \"#utility.yul\":6076:6078   */\n      0x1f\n        /* \"#utility.yul\":6071:6074   */\n      dup3\n        /* \"#utility.yul\":6068:6079   */\n      gt\n        /* \"#utility.yul\":6065:6511   */\n      iszero\n      tag_152\n      jumpi\n        /* \"#utility.yul\":6110:6148   */\n      tag_153\n        /* \"#utility.yul\":6142:6147   */\n      dup2\n        /* \"#utility.yul\":6110:6148   */\n      tag_65\n      jump\t// in\n    tag_153:\n        /* \"#utility.yul\":6194:6223   */\n      tag_154\n        /* \"#utility.yul\":6212:6222   */\n      dup5\n        /* \"#utility.yul\":6194:6223   */\n      tag_66\n      jump\t// in\n    tag_154:\n        /* \"#utility.yul\":6184:6192   */\n      dup2\n        /* \"#utility.yul\":6180:6224   */\n      add\n        /* \"#utility.yul\":6377:6379   */\n      0x20\n        /* \"#utility.yul\":6365:6375   */\n      dup6\n        /* \"#utility.yul\":6362:6380   */\n      lt\n        /* \"#utility.yul\":6359:6408   */\n      iszero\n      tag_155\n      jumpi\n        /* \"#utility.yul\":6398:6406   */\n      dup2\n        /* \"#utility.yul\":6383:6406   */\n      swap1\n      pop\n        /* \"#utility.yul\":6359:6408   */\n    tag_155:\n        /* \"#utility.yul\":6421:6501   */\n      tag_156\n        /* \"#utility.yul\":6477:6499   */\n      tag_157\n        /* \"#utility.yul\":6495:6498   */\n      dup6\n        /* \"#utility.yul\":6477:6499   */\n      tag_66\n      jump\t// in\n    tag_157:\n        /* \"#utility.yul\":6467:6475   */\n      dup4\n        /* \"#utility.yul\":6463:6500   */\n      add\n        /* \"#utility.yul\":6450:6461   */\n      dup3\n        /* \"#utility.yul\":6421:6501   */\n      tag_75\n      jump\t// in\n    tag_156:\n        /* \"#utility.yul\":6080:6511   */\n      pop\n      pop\n        /* \"#utility.yul\":6065:6511   */\n    tag_152:\n        /* \"#utility.yul\":5975:6518   */\n      pop\n      pop\n      pop\n      jump\t// out\n        /* \"#utility.yul\":6524:6641   */\n    tag_77:\n        /* \"#utility.yul\":6578:6586   */\n      0x00\n        /* \"#utility.yul\":6628:6633   */\n      dup3\n        /* \"#utility.yul\":6622:6626   */\n      dup3\n        /* \"#utility.yul\":6618:6634   */\n      shr\n        /* \"#utility.yul\":6597:6634   */\n      swap1\n      pop\n        /* \"#utility.yul\":6524:6641   */\n      swap3\n      swap2\n      pop\n      pop\n      jump\t// out\n        /* \"#utility.yul\":6647:6816   */\n    tag_78:\n        /* \"#utility.yul\":6691:6697   */\n      0x00\n        /* \"#utility.yul\":6724:6775   */\n      tag_160\n        /* \"#utility.yul\":6772:6773   */\n      0x00\n        /* \"#utility.yul\":6768:6774   */\n      not\n        /* \"#utility.yul\":6760:6765   */\n      dup5\n        /* \"#utility.yul\":6757:6758   */\n      0x08\n        /* \"#utility.yul\":6753:6766   */\n      mul\n        /* \"#utility.yul\":6724:6775   */\n      tag_77\n      jump\t// in\n    tag_160:\n        /* \"#utility.yul\":6720:6776   */\n      not\n        /* \"#utility.yul\":6805:6809   */\n      dup1\n        /* \"#utility.yul\":6799:6803   */\n      dup4\n        /* \"#utility.yul\":6795:6810   */\n      and\n        /* \"#utility.yul\":6785:6810   */\n      swap2\n      pop\n        /* \"#utility.yul\":6698:6816   */\n      pop\n        /* \"#utility.yul\":6647:6816   */\n      swap3\n      swap2\n      pop\n      pop\n      jump\t// out\n        /* \"#utility.yul\":6821:7116   */\n    tag_79:\n        /* \"#utility.yul\":6897:6901   */\n      0x00\n        /* \"#utility.yul\":7043:7072   */\n      tag_162\n        /* \"#utility.yul\":7068:7071   */\n      dup4\n        /* \"#utility.yul\":7062:7066   */\n      dup4\n        /* \"#utility.yul\":7043:7072   */\n      tag_78\n      jump\t// in\n    tag_162:\n        /* \"#utility.yul\":7035:7072   */\n      swap2\n      pop\n        /* \"#utility.yul\":7105:7108   */\n      dup3\n        /* \"#utility.yul\":7102:7103   */\n      0x02\n        /* \"#utility.yul\":7098:7109   */\n      mul\n        /* \"#utility.yul\":7092:7096   */\n      dup3\n        /* \"#utility.yul\":7089:7110   */\n      or\n        /* \"#utility.yul\":7081:7110   */\n      swap1\n      pop\n        /* \"#utility.yul\":6821:7116   */\n      swap3\n      swap2\n      pop\n      pop\n      jump\t// out\n        /* \"#utility.yul\":7121:8516   */\n    tag_47:\n        /* \"#utility.yul\":7238:7275   */\n      tag_164\n        /* \"#utility.yul\":7271:7274   */\n      dup3\n        /* \"#utility.yul\":7238:7275   */\n      tag_58\n      jump\t// in\n    tag_164:\n        /* \"#utility.yul\":7340:7358   */\n      0xffffffffffffffff\n        /* \"#utility.yul\":7332:7338   */\n      dup2\n        /* \"#utility.yul\":7329:7359   */\n      gt\n        /* \"#utility.yul\":7326:7382   */\n      iszero\n      tag_165\n      jumpi\n        /* \"#utility.yul\":7362:7380   */\n      tag_166\n      tag_64\n      jump\t// in\n    tag_166:\n        /* \"#utility.yul\":7326:7382   */\n    tag_165:\n        /* \"#utility.yul\":7406:7444   */\n      tag_167\n        /* \"#utility.yul\":7438:7442   */\n      dup3\n        /* \"#utility.yul\":7432:7443   */\n      sload\n        /* \"#utility.yul\":7406:7444   */\n      tag_25\n      jump\t// in\n    tag_167:\n        /* \"#utility.yul\":7491:7558   */\n      tag_168\n        /* \"#utility.yul\":7551:7557   */\n      dup3\n        /* \"#utility.yul\":7543:7549   */\n      dup3\n        /* \"#utility.yul\":7537:7541   */\n      dup6\n        /* \"#utility.yul\":7491:7558   */\n      tag_76\n      jump\t// in\n    tag_168:\n        /* \"#utility.yul\":7585:7586   */\n      0x00\n        /* \"#utility.yul\":7609:7613   */\n      0x20\n        /* \"#utility.yul\":7596:7613   */\n      swap1\n      pop\n        /* \"#utility.yul\":7641:7643   */\n      0x1f\n        /* \"#utility.yul\":7633:7639   */\n      dup4\n        /* \"#utility.yul\":7630:7644   */\n      gt\n        /* \"#utility.yul\":7658:7659   */\n      0x01\n        /* \"#utility.yul\":7653:8271   */\n      dup2\n      eq\n      tag_170\n      jumpi\n        /* \"#utility.yul\":8315:8316   */\n      0x00\n        /* \"#utility.yul\":8332:8338   */\n      dup5\n        /* \"#utility.yul\":8329:8406   */\n      iszero\n      tag_171\n      jumpi\n        /* \"#utility.yul\":8381:8390   */\n      dup3\n        /* \"#utility.yul\":8376:8379   */\n      dup8\n        /* \"#utility.yul\":8372:8391   */\n      add\n        /* \"#utility.yul\":8366:8392   */\n      mload\n        /* \"#utility.yul\":8357:8392   */\n      swap1\n      pop\n        /* \"#utility.yul\":8329:8406   */\n    tag_171:\n        /* \"#utility.yul\":8432:8499   */\n      tag_172\n        /* \"#utility.yul\":8492:8498   */\n      dup6\n        /* \"#utility.yul\":8485:8490   */\n      dup3\n        /* \"#utility.yul\":8432:8499   */\n      tag_79\n      jump\t// in\n    tag_172:\n        /* \"#utility.yul\":8426:8430   */\n      dup7\n        /* \"#utility.yul\":8419:8500   */\n      sstore\n        /* \"#utility.yul\":8288:8510   */\n      pop\n        /* \"#utility.yul\":7623:8510   */\n      jump(tag_169)\n        /* \"#utility.yul\":7653:8271   */\n    tag_170:\n        /* \"#utility.yul\":7705:7709   */\n      0x1f\n        /* \"#utility.yul\":7701:7710   */\n      not\n        /* \"#utility.yul\":7693:7699   */\n      dup5\n        /* \"#utility.yul\":7689:7711   */\n      and\n        /* \"#utility.yul\":7739:7776   */\n      tag_173\n        /* \"#utility.yul\":7771:7775   */\n      dup7\n        /* \"#utility.yul\":7739:7776   */\n      tag_65\n      jump\t// in\n    tag_173:\n        /* \"#utility.yul\":7798:7799   */\n      0x00\n        /* \"#utility.yul\":7812:8020   */\n    tag_174:\n        /* \"#utility.yul\":7826:7833   */\n      dup3\n        /* \"#utility.yul\":7823:7824   */\n      dup2\n        /* \"#utility.yul\":7820:7834   */\n      lt\n        /* \"#utility.yul\":7812:8020   */\n      iszero\n      tag_176\n      jumpi\n        /* \"#utility.yul\":7905:7914   */\n      dup5\n        /* \"#utility.yul\":7900:7903   */\n      dup10\n        /* \"#utility.yul\":7896:7915   */\n      add\n        /* \"#utility.yul\":7890:7916   */\n      mload\n        /* \"#utility.yul\":7882:7888   */\n      dup3\n        /* \"#utility.yul\":7875:7917   */\n      sstore\n        /* \"#utility.yul\":7956:7957   */\n      0x01\n        /* \"#utility.yul\":7948:7954   */\n      dup3\n        /* \"#utility.yul\":7944:7958   */\n      add\n        /* \"#utility.yul\":7934:7958   */\n      swap2\n      pop\n        /* \"#utility.yul\":8003:8005   */\n      0x20\n        /* \"#utility.yul\":7992:8001   */\n      dup6\n        /* \"#utility.yul\":7988:8006   */\n      add\n        /* \"#utility.yul\":7975:8006   */\n      swap5\n      pop\n        /* \"#utility.yul\":7849:7853   */\n      0x20\n        /* \"#utility.yul\":7846:7847   */\n      dup2\n        /* \"#utility.yul\":7842:7854   */\n      add\n        /* \"#utility.yul\":7837:7854   */\n      swap1\n      pop\n        /* \"#utility.yul\":7812:8020   */\n      jump(tag_174)\n    tag_176:\n        /* \"#utility.yul\":8048:8054   */\n      dup7\n        /* \"#utility.yul\":8039:8046   */\n      dup4\n        /* \"#utility.yul\":8036:8055   */\n      lt\n        /* \"#utility.yul\":8033:8212   */\n      iszero\n      tag_177\n      jumpi\n        /* \"#utility.yul\":8106:8115   */\n      dup5\n        /* \"#utility.yul\":8101:8104   */\n      dup10\n        /* \"#utility.yul\":8097:8116   */\n      add\n        /* \"#utility.yul\":8091:8117   */\n      mload\n        /* \"#utility.yul\":8149:8197   */\n      tag_178\n        /* \"#utility.yul\":8191:8195   */\n      0x1f\n        /* \"#utility.yul\":8183:8189   */\n      dup10\n        /* \"#utility.yul\":8179:8196   */\n      and\n        /* \"#utility.yul\":8168:8177   */\n      dup3\n        /* \"#utility.yul\":8149:8197   */\n      tag_78\n      jump\t// in\n    tag_178:\n        /* \"#utility.yul\":8141:8147   */\n      dup4\n        /* \"#utility.yul\":8134:8198   */\n      sstore\n        /* \"#utility.yul\":8056:8212   */\n      pop\n        /* \"#utility.yul\":8033:8212   */\n    tag_177:\n        /* \"#utility.yul\":8258:8259   */\n      0x01\n        /* \"#utility.yul\":8254:8255   */\n      0x02\n        /* \"#utility.yul\":8246:8252   */\n      dup9\n        /* \"#utility.yul\":8242:8256   */\n      mul\n        /* \"#utility.yul\":8238:8260   */\n      add\n        /* \"#utility.yul\":8232:8236   */\n      dup9\n        /* \"#utility.yul\":8225:8261   */\n      sstore\n        /* \"#utility.yul\":7660:8271   */\n      pop\n      pop\n      pop\n        /* \"#utility.yul\":7623:8510   */\n    tag_169:\n      pop\n        /* \"#utility.yul\":7213:8516   */\n      pop\n      pop\n      pop\n        /* \"#utility.yul\":7121:8516   */\n      pop\n      pop\n      jump\t// out\n\n    auxdata: 0xa26469706673582212203611f47313499f6a144df28d6d2735b37a87329fc68a7ce9b48b833c48aa003364736f6c63430008160033\n}\n",
				"bytecode": {
					"linkReferences": {},
					"object": "608060405260405180608001604052806040518060400160405280600581526020017f546f6d6d7900000000000000000000000000000000000000000000000000000081525081526020016040518060400160405280600481526020017f4361726c0000000000000000000000000000000000000000000000000000000081525081526020016040518060400160405280600481526020017f4e696b6f0000000000000000000000000000000000000000000000000000000081525081526020016040518060400160405280600781526020017f4d69636861656c000000000000000000000000000000000000000000000000008152508152505f9060046200010a9291906200011e565b5034801562000117575f80fd5b506200054b565b828054828255905f5260205f2090810192821562000169579160200282015b828111156200016857825182908162000157919062000467565b50916020019190600101906200013d565b5b5090506200017891906200017c565b5090565b5b808211156200019f575f8181620001959190620001a3565b506001016200017d565b5090565b508054620001b19062000267565b5f825580601f10620001c45750620001e3565b601f0160209004905f5260205f2090810190620001e29190620001e6565b5b50565b5b80821115620001ff575f815f905550600101620001e7565b5090565b5f81519050919050565b7f4e487b71000000000000000000000000000000000000000000000000000000005f52604160045260245ffd5b7f4e487b71000000000000000000000000000000000000000000000000000000005f52602260045260245ffd5b5f60028204905060018216806200027f57607f821691505b6020821081036200029557620002946200023a565b5b50919050565b5f819050815f5260205f209050919050565b5f6020601f8301049050919050565b5f82821b905092915050565b5f60088302620002f97fffffffffffffffffffffffffffffffffffffffffffffffffffffffffffffffff82620002bc565b620003058683620002bc565b95508019841693508086168417925050509392505050565b5f819050919050565b5f819050919050565b5f6200034f6200034962000343846200031d565b62000326565b6200031d565b9050919050565b5f819050919050565b6200036a836200032f565b62000382620003798262000356565b848454620002c8565b825550505050565b5f90565b620003986200038a565b620003a58184846200035f565b505050565b5b81811015620003cc57620003c05f826200038e565b600181019050620003ab565b5050565b601f8211156200041b57620003e5816200029b565b620003f084620002ad565b8101602085101562000400578190505b620004186200040f85620002ad565b830182620003aa565b50505b505050565b5f82821c905092915050565b5f6200043d5f198460080262000420565b1980831691505092915050565b5f6200045783836200042c565b9150826002028217905092915050565b620004728262000203565b67ffffffffffffffff8111156200048e576200048d6200020d565b5b6200049a825462000267565b620004a7828285620003d0565b5f60209050601f831160018114620004dd575f8415620004c8578287015190505b620004d485826200044a565b86555062000543565b601f198416620004ed866200029b565b5f5b828110156200051657848901518255600182019150602085019450602081019050620004ef565b8683101562000536578489015162000532601f8916826200042c565b8355505b6001600288020188555050505b505050505050565b6107da80620005595f395ff3fe608060405234801561000f575f80fd5b506004361061004a575f3560e01c806301725a0b1461004e57806335f342321461006e57806358c3b8701461009e578063975057e7146100a8575b5f80fd5b6100566100b2565b60405161006593929190610349565b60405180910390f35b610088600480360381019061008391906103ac565b6100c3565b6040516100959190610461565b60405180910390f35b6100a6610168565b005b6100b061028f565b005b5f805f434233925092509250909192565b5f81815481106100d1575f80fd5b905f5260205f20015f9150905080546100e9906104ae565b80601f0160208091040260200160405190810160405280929190818152602001828054610115906104ae565b80156101605780601f1061013757610100808354040283529160200191610160565b820191905f5260205f20905b81548152906001019060200180831161014357829003601f168201915b505050505081565b5f80805480602002602001604051908101604052809291908181526020015f905b82821015610231578382905f5260205f200180546101a6906104ae565b80601f01602080910402602001604051908101604052809291908181526020018280546101d2906104ae565b801561021d5780601f106101f45761010080835404028352916020019161021d565b820191905f5260205f20905b81548152906001019060200180831161020057829003601f168201915b505050505081526020019060010190610189565b5050505090506040518060400160405280600881526020017f4672616e6b6c696e00000000000000000000000000000000000000000000000081525081600381518110610281576102806104de565b5b602002602001018190525050565b5f6040518060400160405280600681526020017f547265766f720000000000000000000000000000000000000000000000000000815250816003815481106102da576102d96104de565b5b905f5260205f200190816102ee91906106d5565b5050565b5f819050919050565b610304816102f2565b82525050565b5f73ffffffffffffffffffffffffffffffffffffffff82169050919050565b5f6103338261030a565b9050919050565b61034381610329565b82525050565b5f60608201905061035c5f8301866102fb565b61036960208301856102fb565b610376604083018461033a565b949350505050565b5f80fd5b61038b816102f2565b8114610395575f80fd5b50565b5f813590506103a681610382565b92915050565b5f602082840312156103c1576103c061037e565b5b5f6103ce84828501610398565b91505092915050565b5f81519050919050565b5f82825260208201905092915050565b5f5b8381101561040e5780820151818401526020810190506103f3565b5f8484015250505050565b5f601f19601f8301169050919050565b5f610433826103d7565b61043d81856103e1565b935061044d8185602086016103f1565b61045681610419565b840191505092915050565b5f6020820190508181035f8301526104798184610429565b905092915050565b7f4e487b71000000000000000000000000000000000000000000000000000000005f52602260045260245ffd5b5f60028204905060018216806104c557607f821691505b6020821081036104d8576104d7610481565b5b50919050565b7f4e487b71000000000000000000000000000000000000000000000000000000005f52603260045260245ffd5b7f4e487b71000000000000000000000000000000000000000000000000000000005f52604160045260245ffd5b5f819050815f5260205f209050919050565b5f6020601f8301049050919050565b5f82821b905092915050565b5f600883026105947fffffffffffffffffffffffffffffffffffffffffffffffffffffffffffffffff82610559565b61059e8683610559565b95508019841693508086168417925050509392505050565b5f819050919050565b5f6105d96105d46105cf846102f2565b6105b6565b6102f2565b9050919050565b5f819050919050565b6105f2836105bf565b6106066105fe826105e0565b848454610565565b825550505050565b5f90565b61061a61060e565b6106258184846105e9565b505050565b5b818110156106485761063d5f82610612565b60018101905061062b565b5050565b601f82111561068d5761065e81610538565b6106678461054a565b81016020851015610676578190505b61068a6106828561054a565b83018261062a565b50505b505050565b5f82821c905092915050565b5f6106ad5f1984600802610692565b1980831691505092915050565b5f6106c5838361069e565b9150826002028217905092915050565b6106de826103d7565b67ffffffffffffffff8111156106f7576106f661050b565b5b61070182546104ae565b61070c82828561064c565b5f60209050601f83116001811461073d575f841561072b578287015190505b61073585826106ba565b86555061079c565b601f19841661074b86610538565b5f5b828110156107725784890151825560018201915060208501945060208101905061074d565b8683101561078f578489015161078b601f89168261069e565b8355505b6001600288020188555050505b50505050505056fea26469706673582212203611f47313499f6a144df28d6d2735b37a87329fc68a7ce9b48b833c48aa003364736f6c63430008160033",
					"opcodes": "PUSH1 0x80 PUSH1 0x40 MSTORE PUSH1 0x40 MLOAD DUP1 PUSH1 0x80 ADD PUSH1 0x40 MSTORE DUP1 PUSH1 0x40 MLOAD DUP1 PUSH1 0x40 ADD PUSH1 0x40 MSTORE DUP1 PUSH1 0x5 DUP2 MSTORE PUSH1 0x20 ADD PUSH32 0x546F6D6D79000000000000000000000000000000000000000000000000000000 DUP2 MSTORE POP DUP2 MSTORE PUSH1 0x20 ADD PUSH1 0x40 MLOAD DUP1 PUSH1 0x40 ADD PUSH1 0x40 MSTORE DUP1 PUSH1 0x4 DUP2 MSTORE PUSH1 0x20 ADD PUSH32 0x4361726C00000000000000000000000000000000000000000000000000000000 DUP2 MSTORE POP DUP2 MSTORE PUSH1 0x20 ADD PUSH1 0x40 MLOAD DUP1 PUSH1 0x40 ADD PUSH1 0x40 MSTORE DUP1 PUSH1 0x4 DUP2 MSTORE PUSH1 0x20 ADD PUSH32 0x4E696B6F00000000000000000000000000000000000000000000000000000000 DUP2 MSTORE POP DUP2 MSTORE PUSH1 0x20 ADD PUSH1 0x40 MLOAD DUP1 PUSH1 0x40 ADD PUSH1 0x40 MSTORE DUP1 PUSH1 0x7 DUP2 MSTORE PUSH1 0x20 ADD PUSH32 0x4D69636861656C00000000000000000000000000000000000000000000000000 DUP2 MSTORE POP DUP2 MSTORE POP PUSH0 SWAP1 PUSH1 0x4 PUSH3 0x10A SWAP3 SWAP2 SWAP1 PUSH3 0x11E JUMP JUMPDEST POP CALLVALUE DUP1 ISZERO PUSH3 0x117 JUMPI PUSH0 DUP1 REVERT JUMPDEST POP PUSH3 0x54B JUMP JUMPDEST DUP3 DUP1 SLOAD DUP3 DUP3 SSTORE SWAP1 PUSH0 MSTORE PUSH1 0x20 PUSH0 KECCAK256 SWAP1 DUP2 ADD SWAP3 DUP3 ISZERO PUSH3 0x169 JUMPI SWAP2 PUSH1 0x20 MUL DUP3 ADD JUMPDEST DUP3 DUP2 GT ISZERO PUSH3 0x168 JUMPI DUP3 MLOAD DUP3 SWAP1 DUP2 PUSH3 0x157 SWAP2 SWAP1 PUSH3 0x467 JUMP JUMPDEST POP SWAP2 PUSH1 0x20 ADD SWAP2 SWAP1 PUSH1 0x1 ADD SWAP1 PUSH3 0x13D JUMP JUMPDEST JUMPDEST POP SWAP1 POP PUSH3 0x178 SWAP2 SWAP1 PUSH3 0x17C JUMP JUMPDEST POP SWAP1 JUMP JUMPDEST JUMPDEST DUP1 DUP3 GT ISZERO PUSH3 0x19F JUMPI PUSH0 DUP2 DUP2 PUSH3 0x195 SWAP2 SWAP1 PUSH3 0x1A3 JUMP JUMPDEST POP PUSH1 0x1 ADD PUSH3 0x17D JUMP JUMPDEST POP SWAP1 JUMP JUMPDEST POP DUP1 SLOAD PUSH3 0x1B1 SWAP1 PUSH3 0x267 JUMP JUMPDEST PUSH0 DUP3 SSTORE DUP1 PUSH1 0x1F LT PUSH3 0x1C4 JUMPI POP PUSH3 0x1E3 JUMP JUMPDEST PUSH1 0x1F ADD PUSH1 0x20 SWAP1 DIV SWAP1 PUSH0 MSTORE PUSH1 0x20 PUSH0 KECCAK256 SWAP1 DUP2 ADD SWAP1 PUSH3 0x1E2 SWAP2 SWAP1 PUSH3 0x1E6 JUMP JUMPDEST JUMPDEST POP JUMP JUMPDEST JUMPDEST DUP1 DUP3 GT ISZERO PUSH3 0x1FF JUMPI PUSH0 DUP2 PUSH0 SWAP1 SSTORE POP PUSH1 0x1 ADD PUSH3 0x1E7 JUMP JUMPDEST POP SWAP1 JUMP JUMPDEST PUSH0 DUP2 MLOAD SWAP1 POP SWAP2 SWAP1 POP JUMP JUMPDEST PUSH32 0x4E487B7100000000000000000000000000000000000000000000000000000000 PUSH0 MSTORE PUSH1 0x41 PUSH1 0x4 MSTORE PUSH1 0x24 PUSH0 REVERT JUMPDEST PUSH32 0x4E487B7100000000000000000000000000000000000000000000000000000000 PUSH0 MSTORE PUSH1 0x22 PUSH1 0x4 MSTORE PUSH1 0x24 PUSH0 REVERT JUMPDEST PUSH0 PUSH1 0x2 DUP3 DIV SWAP1 POP PUSH1 0x1 DUP3 AND DUP1 PUSH3 0x27F JUMPI PUSH1 0x7F DUP3 AND SWAP2 POP JUMPDEST PUSH1 0x20 DUP3 LT DUP2 SUB PUSH3 0x295 JUMPI PUSH3 0x294 PUSH3 0x23A JUMP JUMPDEST JUMPDEST POP SWAP2 SWAP1 POP JUMP JUMPDEST PUSH0 DUP2 SWAP1 POP DUP2 PUSH0 MSTORE PUSH1 0x20 PUSH0 KECCAK256 SWAP1 POP SWAP2 SWAP1 POP JUMP JUMPDEST PUSH0 PUSH1 0x20 PUSH1 0x1F DUP4 ADD DIV SWAP1 POP SWAP2 SWAP1 POP JUMP JUMPDEST PUSH0 DUP3 DUP3 SHL SWAP1 POP SWAP3 SWAP2 POP POP JUMP JUMPDEST PUSH0 PUSH1 0x8 DUP4 MUL PUSH3 0x2F9 PUSH32 0xFFFFFFFFFFFFFFFFFFFFFFFFFFFFFFFFFFFFFFFFFFFFFFFFFFFFFFFFFFFFFFFF DUP3 PUSH3 0x2BC JUMP JUMPDEST PUSH3 0x305 DUP7 DUP4 PUSH3 0x2BC JUMP JUMPDEST SWAP6 POP DUP1 NOT DUP5 AND SWAP4 POP DUP1 DUP7 AND DUP5 OR SWAP3 POP POP POP SWAP4 SWAP3 POP POP POP JUMP JUMPDEST PUSH0 DUP2 SWAP1 POP SWAP2 SWAP1 POP JUMP JUMPDEST PUSH0 DUP2 SWAP1 POP SWAP2 SWAP1 POP JUMP JUMPDEST PUSH0 PUSH3 0x34F PUSH3 0x349 PUSH3 0x343 DUP5 PUSH3 0x31D JUMP JUMPDEST PUSH3 0x326 JUMP JUMPDEST PUSH3 0x31D JUMP JUMPDEST SWAP1 POP SWAP2 SWAP1 POP JUMP JUMPDEST PUSH0 DUP2 SWAP1 POP SWAP2 SWAP1 POP JUMP JUMPDEST PUSH3 0x36A DUP4 PUSH3 0x32F JUMP JUMPDEST PUSH3 0x382 PUSH3 0x379 DUP3 PUSH3 0x356 JUMP JUMPDEST DUP5 DUP5 SLOAD PUSH3 0x2C8 JUMP JUMPDEST DUP3 SSTORE POP POP POP POP JUMP JUMPDEST PUSH0 SWAP1 JUMP JUMPDEST PUSH3 0x398 PUSH3 0x38A JUMP JUMPDEST PUSH3 0x3A5 DUP2 DUP5 DUP5 PUSH3 0x35F JUMP JUMPDEST POP POP POP JUMP JUMPDEST JUMPDEST DUP2 DUP2 LT ISZERO PUSH3 0x3CC JUMPI PUSH3 0x3C0 PUSH0 DUP3 PUSH3 0x38E JUMP JUMPDEST PUSH1 0x1 DUP2 ADD SWAP1 POP PUSH3 0x3AB JUMP JUMPDEST POP POP JUMP JUMPDEST PUSH1 0x1F DUP3 GT ISZERO PUSH3 0x41B JUMPI PUSH3 0x3E5 DUP2 PUSH3 0x29B JUMP JUMPDEST PUSH3 0x3F0 DUP5 PUSH3 0x2AD JUMP JUMPDEST DUP2 ADD PUSH1 0x20 DUP6 LT ISZERO PUSH3 0x400 JUMPI DUP2 SWAP1 POP JUMPDEST PUSH3 0x418 PUSH3 0x40F DUP6 PUSH3 0x2AD JUMP JUMPDEST DUP4 ADD DUP3 PUSH3 0x3AA JUMP JUMPDEST POP POP JUMPDEST POP POP POP JUMP JUMPDEST PUSH0 DUP3 DUP3 SHR SWAP1 POP SWAP3 SWAP2 POP POP JUMP JUMPDEST PUSH0 PUSH3 0x43D PUSH0 NOT DUP5 PUSH1 0x8 MUL PUSH3 0x420 JUMP JUMPDEST NOT DUP1 DUP4 AND SWAP2 POP POP SWAP3 SWAP2 POP POP JUMP JUMPDEST PUSH0 PUSH3 0x457 DUP4 DUP4 PUSH3 0x42C JUMP JUMPDEST SWAP2 POP DUP3 PUSH1 0x2 MUL DUP3 OR SWAP1 POP SWAP3 SWAP2 POP POP JUMP JUMPDEST PUSH3 0x472 DUP3 PUSH3 0x203 JUMP JUMPDEST PUSH8 0xFFFFFFFFFFFFFFFF DUP2 GT ISZERO PUSH3 0x48E JUMPI PUSH3 0x48D PUSH3 0x20D JUMP JUMPDEST JUMPDEST PUSH3 0x49A DUP3 SLOAD PUSH3 0x267 JUMP JUMPDEST PUSH3 0x4A7 DUP3 DUP3 DUP6 PUSH3 0x3D0 JUMP JUMPDEST PUSH0 PUSH1 0x20 SWAP1 POP PUSH1 0x1F DUP4 GT PUSH1 0x1 DUP2 EQ PUSH3 0x4DD JUMPI PUSH0 DUP5 ISZERO PUSH3 0x4C8 JUMPI DUP3 DUP8 ADD MLOAD SWAP1 POP JUMPDEST PUSH3 0x4D4 DUP6 DUP3 PUSH3 0x44A JUMP JUMPDEST DUP7 SSTORE POP PUSH3 0x543 JUMP JUMPDEST PUSH1 0x1F NOT DUP5 AND PUSH3 0x4ED DUP7 PUSH3 0x29B JUMP JUMPDEST PUSH0 JUMPDEST DUP3 DUP2 LT ISZERO PUSH3 0x516 JUMPI DUP5 DUP10 ADD MLOAD DUP3 SSTORE PUSH1 0x1 DUP3 ADD SWAP2 POP PUSH1 0x20 DUP6 ADD SWAP5 POP PUSH1 0x20 DUP2 ADD SWAP1 POP PUSH3 0x4EF JUMP JUMPDEST DUP7 DUP4 LT ISZERO PUSH3 0x536 JUMPI DUP5 DUP10 ADD MLOAD PUSH3 0x532 PUSH1 0x1F DUP10 AND DUP3 PUSH3 0x42C JUMP JUMPDEST DUP4 SSTORE POP JUMPDEST PUSH1 0x1 PUSH1 0x2 DUP9 MUL ADD DUP9 SSTORE POP POP POP JUMPDEST POP POP POP POP POP POP JUMP JUMPDEST PUSH2 0x7DA DUP1 PUSH3 0x559 PUSH0 CODECOPY PUSH0 RETURN INVALID PUSH1 0x80 PUSH1 0x40 MSTORE CALLVALUE DUP1 ISZERO PUSH2 0xF JUMPI PUSH0 DUP1 REVERT JUMPDEST POP PUSH1 0x4 CALLDATASIZE LT PUSH2 0x4A JUMPI PUSH0 CALLDATALOAD PUSH1 0xE0 SHR DUP1 PUSH4 0x1725A0B EQ PUSH2 0x4E JUMPI DUP1 PUSH4 0x35F34232 EQ PUSH2 0x6E JUMPI DUP1 PUSH4 0x58C3B870 EQ PUSH2 0x9E JUMPI DUP1 PUSH4 0x975057E7 EQ PUSH2 0xA8 JUMPI JUMPDEST PUSH0 DUP1 REVERT JUMPDEST PUSH2 0x56 PUSH2 0xB2 JUMP JUMPDEST PUSH1 0x40 MLOAD PUSH2 0x65 SWAP4 SWAP3 SWAP2 SWAP1 PUSH2 0x349 JUMP JUMPDEST PUSH1 0x40 MLOAD DUP1 SWAP2 SUB SWAP1 RETURN JUMPDEST PUSH2 0x88 PUSH1 0x4 DUP1 CALLDATASIZE SUB DUP2 ADD SWAP1 PUSH2 0x83 SWAP2 SWAP1 PUSH2 0x3AC JUMP JUMPDEST PUSH2 0xC3 JUMP JUMPDEST PUSH1 0x40 MLOAD PUSH2 0x95 SWAP2 SWAP1 PUSH2 0x461 JUMP JUMPDEST PUSH1 0x40 MLOAD DUP1 SWAP2 SUB SWAP1 RETURN JUMPDEST PUSH2 0xA6 PUSH2 0x168 JUMP JUMPDEST STOP JUMPDEST PUSH2 0xB0 PUSH2 0x28F JUMP JUMPDEST STOP JUMPDEST PUSH0 DUP1 PUSH0 NUMBER TIMESTAMP CALLER SWAP3 POP SWAP3 POP SWAP3 POP SWAP1 SWAP2 SWAP3 JUMP JUMPDEST PUSH0 DUP2 DUP2 SLOAD DUP2 LT PUSH2 0xD1 JUMPI PUSH0 DUP1 REVERT JUMPDEST SWAP1 PUSH0 MSTORE PUSH1 0x20 PUSH0 KECCAK256 ADD PUSH0 SWAP2 POP SWAP1 POP DUP1 SLOAD PUSH2 0xE9 SWAP1 PUSH2 0x4AE JUMP JUMPDEST DUP1 PUSH1 0x1F ADD PUSH1 0x20 DUP1 SWAP2 DIV MUL PUSH1 0x20 ADD PUSH1 0x40 MLOAD SWAP1 DUP2 ADD PUSH1 0x40 MSTORE DUP1 SWAP3 SWAP2 SWAP1 DUP2 DUP2 MSTORE PUSH1 0x20 ADD DUP3 DUP1 SLOAD PUSH2 0x115 SWAP1 PUSH2 0x4AE JUMP JUMPDEST DUP1 ISZERO PUSH2 0x160 JUMPI DUP1 PUSH1 0x1F LT PUSH2 0x137 JUMPI PUSH2 0x100 DUP1 DUP4 SLOAD DIV MUL DUP4 MSTORE SWAP2 PUSH1 0x20 ADD SWAP2 PUSH2 0x160 JUMP JUMPDEST DUP3 ADD SWAP2 SWAP1 PUSH0 MSTORE PUSH1 0x20 PUSH0 KECCAK256 SWAP1 JUMPDEST DUP2 SLOAD DUP2 MSTORE SWAP1 PUSH1 0x1 ADD SWAP1 PUSH1 0x20 ADD DUP1 DUP4 GT PUSH2 0x143 JUMPI DUP3 SWAP1 SUB PUSH1 0x1F AND DUP3 ADD SWAP2 JUMPDEST POP POP POP POP POP DUP2 JUMP JUMPDEST PUSH0 DUP1 DUP1 SLOAD DUP1 PUSH1 0x20 MUL PUSH1 0x20 ADD PUSH1 0x40 MLOAD SWAP1 DUP2 ADD PUSH1 0x40 MSTORE DUP1 SWAP3 SWAP2 SWAP1 DUP2 DUP2 MSTORE PUSH1 0x20 ADD PUSH0 SWAP1 JUMPDEST DUP3 DUP3 LT ISZERO PUSH2 0x231 JUMPI DUP4 DUP3 SWAP1 PUSH0 MSTORE PUSH1 0x20 PUSH0 KECCAK256 ADD DUP1 SLOAD PUSH2 0x1A6 SWAP1 PUSH2 0x4AE JUMP JUMPDEST DUP1 PUSH1 0x1F ADD PUSH1 0x20 DUP1 SWAP2 DIV MUL PUSH1 0x20 ADD PUSH1 0x40 MLOAD SWAP1 DUP2 ADD PUSH1 0x40 MSTORE DUP1 SWAP3 SWAP2 SWAP1 DUP2 DUP2 MSTORE PUSH1 0x20 ADD DUP3 DUP1 SLOAD PUSH2 0x1D2 SWAP1 PUSH2 0x4AE JUMP JUMPDEST DUP1 ISZERO PUSH2 0x21D JUMPI DUP1 PUSH1 0x1F LT PUSH2 0x1F4 JUMPI PUSH2 0x100 DUP1 DUP4 SLOAD DIV MUL DUP4 MSTORE SWAP2 PUSH1 0x20 ADD SWAP2 PUSH2 0x21D JUMP JUMPDEST DUP3 ADD SWAP2 SWAP1 PUSH0 MSTORE PUSH1 0x20 PUSH0 KECCAK256 SWAP1 JUMPDEST DUP2 SLOAD DUP2 MSTORE SWAP1 PUSH1 0x1 ADD SWAP1 PUSH1 0x20 ADD DUP1 DUP4 GT PUSH2 0x200 JUMPI DUP3 SWAP1 SUB PUSH1 0x1F AND DUP3 ADD SWAP2 JUMPDEST POP POP POP POP POP DUP2 MSTORE PUSH1 0x20 ADD SWAP1 PUSH1 0x1 ADD SWAP1 PUSH2 0x189 JUMP JUMPDEST POP POP POP POP SWAP1 POP PUSH1 0x40 MLOAD DUP1 PUSH1 0x40 ADD PUSH1 0x40 MSTORE DUP1 PUSH1 0x8 DUP2 MSTORE PUSH1 0x20 ADD PUSH32 0x4672616E6B6C696E000000000000000000000000000000000000000000000000 DUP2 MSTORE POP DUP2 PUSH1 0x3 DUP2 MLOAD DUP2 LT PUSH2 0x281 JUMPI PUSH2 0x280 PUSH2 0x4DE JUMP JUMPDEST JUMPDEST PUSH1 0x20 MUL PUSH1 0x20 ADD ADD DUP2 SWAP1 MSTORE POP POP JUMP JUMPDEST PUSH0 PUSH1 0x40 MLOAD DUP1 PUSH1 0x40 ADD PUSH1 0x40 MSTORE DUP1 PUSH1 0x6 DUP2 MSTORE PUSH1 0x20 ADD PUSH32 0x547265766F720000000000000000000000000000000000000000000000000000 DUP2 MSTORE POP DUP2 PUSH1 0x3 DUP2 SLOAD DUP2 LT PUSH2 0x2DA JUMPI PUSH2 0x2D9 PUSH2 0x4DE JUMP JUMPDEST JUMPDEST SWAP1 PUSH0 MSTORE PUSH1 0x20 PUSH0 KECCAK256 ADD SWAP1 DUP2 PUSH2 0x2EE SWAP2 SWAP1 PUSH2 0x6D5 JUMP JUMPDEST POP POP JUMP JUMPDEST PUSH0 DUP2 SWAP1 POP SWAP2 SWAP1 POP JUMP JUMPDEST PUSH2 0x304 DUP2 PUSH2 0x2F2 JUMP JUMPDEST DUP3 MSTORE POP POP JUMP JUMPDEST PUSH0 PUSH20 0xFFFFFFFFFFFFFFFFFFFFFFFFFFFFFFFFFFFFFFFF DUP3 AND SWAP1 POP SWAP2 SWAP1 POP JUMP JUMPDEST PUSH0 PUSH2 0x333 DUP3 PUSH2 0x30A JUMP JUMPDEST SWAP1 POP SWAP2 SWAP1 POP JUMP JUMPDEST PUSH2 0x343 DUP2 PUSH2 0x329 JUMP JUMPDEST DUP3 MSTORE POP POP JUMP JUMPDEST PUSH0 PUSH1 0x60 DUP3 ADD SWAP1 POP PUSH2 0x35C PUSH0 DUP4 ADD DUP7 PUSH2 0x2FB JUMP JUMPDEST PUSH2 0x369 PUSH1 0x20 DUP4 ADD DUP6 PUSH2 0x2FB JUMP JUMPDEST PUSH2 0x376 PUSH1 0x40 DUP4 ADD DUP5 PUSH2 0x33A JUMP JUMPDEST SWAP5 SWAP4 POP POP POP POP JUMP JUMPDEST PUSH0 DUP1 REVERT JUMPDEST PUSH2 0x38B DUP2 PUSH2 0x2F2 JUMP JUMPDEST DUP2 EQ PUSH2 0x395 JUMPI PUSH0 DUP1 REVERT JUMPDEST POP JUMP JUMPDEST PUSH0 DUP2 CALLDATALOAD SWAP1 POP PUSH2 0x3A6 DUP2 PUSH2 0x382 JUMP JUMPDEST SWAP3 SWAP2 POP POP JUMP JUMPDEST PUSH0 PUSH1 0x20 DUP3 DUP5 SUB SLT ISZERO PUSH2 0x3C1 JUMPI PUSH2 0x3C0 PUSH2 0x37E JUMP JUMPDEST JUMPDEST PUSH0 PUSH2 0x3CE DUP5 DUP3 DUP6 ADD PUSH2 0x398 JUMP JUMPDEST SWAP2 POP POP SWAP3 SWAP2 POP POP JUMP JUMPDEST PUSH0 DUP2 MLOAD SWAP1 POP SWAP2 SWAP1 POP JUMP JUMPDEST PUSH0 DUP3 DUP3 MSTORE PUSH1 0x20 DUP3 ADD SWAP1 POP SWAP3 SWAP2 POP POP JUMP JUMPDEST PUSH0 JUMPDEST DUP4 DUP2 LT ISZERO PUSH2 0x40E JUMPI DUP1 DUP3 ADD MLOAD DUP2 DUP5 ADD MSTORE PUSH1 0x20 DUP2 ADD SWAP1 POP PUSH2 0x3F3 JUMP JUMPDEST PUSH0 DUP5 DUP5 ADD MSTORE POP POP POP POP JUMP JUMPDEST PUSH0 PUSH1 0x1F NOT PUSH1 0x1F DUP4 ADD AND SWAP1 POP SWAP2 SWAP1 POP JUMP JUMPDEST PUSH0 PUSH2 0x433 DUP3 PUSH2 0x3D7 JUMP JUMPDEST PUSH2 0x43D DUP2 DUP6 PUSH2 0x3E1 JUMP JUMPDEST SWAP4 POP PUSH2 0x44D DUP2 DUP6 PUSH1 0x20 DUP7 ADD PUSH2 0x3F1 JUMP JUMPDEST PUSH2 0x456 DUP2 PUSH2 0x419 JUMP JUMPDEST DUP5 ADD SWAP2 POP POP SWAP3 SWAP2 POP POP JUMP JUMPDEST PUSH0 PUSH1 0x20 DUP3 ADD SWAP1 POP DUP2 DUP2 SUB PUSH0 DUP4 ADD MSTORE PUSH2 0x479 DUP2 DUP5 PUSH2 0x429 JUMP JUMPDEST SWAP1 POP SWAP3 SWAP2 POP POP JUMP JUMPDEST PUSH32 0x4E487B7100000000000000000000000000000000000000000000000000000000 PUSH0 MSTORE PUSH1 0x22 PUSH1 0x4 MSTORE PUSH1 0x24 PUSH0 REVERT JUMPDEST PUSH0 PUSH1 0x2 DUP3 DIV SWAP1 POP PUSH1 0x1 DUP3 AND DUP1 PUSH2 0x4C5 JUMPI PUSH1 0x7F DUP3 AND SWAP2 POP JUMPDEST PUSH1 0x20 DUP3 LT DUP2 SUB PUSH2 0x4D8 JUMPI PUSH2 0x4D7 PUSH2 0x481 JUMP JUMPDEST JUMPDEST POP SWAP2 SWAP1 POP JUMP JUMPDEST PUSH32 0x4E487B7100000000000000000000000000000000000000000000000000000000 PUSH0 MSTORE PUSH1 0x32 PUSH1 0x4 MSTORE PUSH1 0x24 PUSH0 REVERT JUMPDEST PUSH32 0x4E487B7100000000000000000000000000000000000000000000000000000000 PUSH0 MSTORE PUSH1 0x41 PUSH1 0x4 MSTORE PUSH1 0x24 PUSH0 REVERT JUMPDEST PUSH0 DUP2 SWAP1 POP DUP2 PUSH0 MSTORE PUSH1 0x20 PUSH0 KECCAK256 SWAP1 POP SWAP2 SWAP1 POP JUMP JUMPDEST PUSH0 PUSH1 0x20 PUSH1 0x1F DUP4 ADD DIV SWAP1 POP SWAP2 SWAP1 POP JUMP JUMPDEST PUSH0 DUP3 DUP3 SHL SWAP1 POP SWAP3 SWAP2 POP POP JUMP JUMPDEST PUSH0 PUSH1 0x8 DUP4 MUL PUSH2 0x594 PUSH32 0xFFFFFFFFFFFFFFFFFFFFFFFFFFFFFFFFFFFFFFFFFFFFFFFFFFFFFFFFFFFFFFFF DUP3 PUSH2 0x559 JUMP JUMPDEST PUSH2 0x59E DUP7 DUP4 PUSH2 0x559 JUMP JUMPDEST SWAP6 POP DUP1 NOT DUP5 AND SWAP4 POP DUP1 DUP7 AND DUP5 OR SWAP3 POP POP POP SWAP4 SWAP3 POP POP POP JUMP JUMPDEST PUSH0 DUP2 SWAP1 POP SWAP2 SWAP1 POP JUMP JUMPDEST PUSH0 PUSH2 0x5D9 PUSH2 0x5D4 PUSH2 0x5CF DUP5 PUSH2 0x2F2 JUMP JUMPDEST PUSH2 0x5B6 JUMP JUMPDEST PUSH2 0x2F2 JUMP JUMPDEST SWAP1 POP SWAP2 SWAP1 POP JUMP JUMPDEST PUSH0 DUP2 SWAP1 POP SWAP2 SWAP1 POP JUMP JUMPDEST PUSH2 0x5F2 DUP4 PUSH2 0x5BF JUMP JUMPDEST PUSH2 0x606 PUSH2 0x5FE DUP3 PUSH2 0x5E0 JUMP JUMPDEST DUP5 DUP5 SLOAD PUSH2 0x565 JUMP JUMPDEST DUP3 SSTORE POP POP POP POP JUMP JUMPDEST PUSH0 SWAP1 JUMP JUMPDEST PUSH2 0x61A PUSH2 0x60E JUMP JUMPDEST PUSH2 0x625 DUP2 DUP5 DUP5 PUSH2 0x5E9 JUMP JUMPDEST POP POP POP JUMP JUMPDEST JUMPDEST DUP2 DUP2 LT ISZERO PUSH2 0x648 JUMPI PUSH2 0x63D PUSH0 DUP3 PUSH2 0x612 JUMP JUMPDEST PUSH1 0x1 DUP2 ADD SWAP1 POP PUSH2 0x62B JUMP JUMPDEST POP POP JUMP JUMPDEST PUSH1 0x1F DUP3 GT ISZERO PUSH2 0x68D JUMPI PUSH2 0x65E DUP2 PUSH2 0x538 JUMP JUMPDEST PUSH2 0x667 DUP5 PUSH2 0x54A JUMP JUMPDEST DUP2 ADD PUSH1 0x20 DUP6 LT ISZERO PUSH2 0x676 JUMPI DUP2 SWAP1 POP JUMPDEST PUSH2 0x68A PUSH2 0x682 DUP6 PUSH2 0x54A JUMP JUMPDEST DUP4 ADD DUP3 PUSH2 0x62A JUMP JUMPDEST POP POP JUMPDEST POP POP POP JUMP JUMPDEST PUSH0 DUP3 DUP3 SHR SWAP1 POP SWAP3 SWAP2 POP POP JUMP JUMPDEST PUSH0 PUSH2 0x6AD PUSH0 NOT DUP5 PUSH1 0x8 MUL PUSH2 0x692 JUMP JUMPDEST NOT DUP1 DUP4 AND SWAP2 POP POP SWAP3 SWAP2 POP POP JUMP JUMPDEST PUSH0 PUSH2 0x6C5 DUP4 DUP4 PUSH2 0x69E JUMP JUMPDEST SWAP2 POP DUP3 PUSH1 0x2 MUL DUP3 OR SWAP1 POP SWAP3 SWAP2 POP POP JUMP JUMPDEST PUSH2 0x6DE DUP3 PUSH2 0x3D7 JUMP JUMPDEST PUSH8 0xFFFFFFFFFFFFFFFF DUP2 GT ISZERO PUSH2 0x6F7 JUMPI PUSH2 0x6F6 PUSH2 0x50B JUMP JUMPDEST JUMPDEST PUSH2 0x701 DUP3 SLOAD PUSH2 0x4AE JUMP JUMPDEST PUSH2 0x70C DUP3 DUP3 DUP6 PUSH2 0x64C JUMP JUMPDEST PUSH0 PUSH1 0x20 SWAP1 POP PUSH1 0x1F DUP4 GT PUSH1 0x1 DUP2 EQ PUSH2 0x73D JUMPI PUSH0 DUP5 ISZERO PUSH2 0x72B JUMPI DUP3 DUP8 ADD MLOAD SWAP1 POP JUMPDEST PUSH2 0x735 DUP6 DUP3 PUSH2 0x6BA JUMP JUMPDEST DUP7 SSTORE POP PUSH2 0x79C JUMP JUMPDEST PUSH1 0x1F NOT DUP5 AND PUSH2 0x74B DUP7 PUSH2 0x538 JUMP JUMPDEST PUSH0 JUMPDEST DUP3 DUP2 LT ISZERO PUSH2 0x772 JUMPI DUP5 DUP10 ADD MLOAD DUP3 SSTORE PUSH1 0x1 DUP3 ADD SWAP2 POP PUSH1 0x20 DUP6 ADD SWAP5 POP PUSH1 0x20 DUP2 ADD SWAP1 POP PUSH2 0x74D JUMP JUMPDEST DUP7 DUP4 LT ISZERO PUSH2 0x78F JUMPI DUP5 DUP10 ADD MLOAD PUSH2 0x78B PUSH1 0x1F DUP10 AND DUP3 PUSH2 0x69E JUMP JUMPDEST DUP4 SSTORE POP JUMPDEST PUSH1 0x1 PUSH1 0x2 DUP9 MUL ADD DUP9 SSTORE POP POP POP JUMPDEST POP POP POP POP POP POP JUMP INVALID LOG2 PUSH5 0x6970667358 0x22 SLT KECCAK256 CALLDATASIZE GT DELEGATECALL PUSH20 0x13499F6A144DF28D6D2735B37A87329FC68A7CE9 0xB4 DUP12 DUP4 EXTCODECOPY BASEFEE 0xAA STOP CALLER PUSH5 0x736F6C6343 STOP ADDMOD AND STOP CALLER "
				},
				"gasEstimates": {
					"creation": {
						"codeDepositCost": "402000",
						"executionCost": "infinite",
						"totalCost": "infinite"
					},
					"external": {
						"demo()": "infinite",
						"memo()": "infinite",
						"store()": "infinite",
						"student(uint256)": "infinite"
					}
				},
				"methodIdentifiers": {
					"demo()": "01725a0b",
					"memo()": "58c3b870",
					"store()": "975057e7",
					"student(uint256)": "35f34232"
				}
			},
			"storageLayout": {
				"storage": [
					{
						"astId": 9,
						"contract": "contracts/Storage.sol:Storage",
						"label": "student",
						"offset": 0,
						"slot": "0",
						"type": "t_array(t_string_storage)dyn_storage"
					}
				],
				"types": {
					"t_array(t_string_storage)dyn_storage": {
						"base": "t_string_storage",
						"encoding": "dynamic_array",
						"label": "string[]",
						"numberOfBytes": "32"
					},
					"t_string_storage": {
						"encoding": "bytes",
						"label": "string",
						"numberOfBytes": "32"
					}
				}
			},
			"userdoc": {
				"kind": "user",
				"methods": {},
				"version": 1
			}
		}
	}
}