{
	"data": {
		"bytecode": {
			"linkReferences": {},
			"object": "60806040526040518060a00160405280600260ff168152602001600760ff168152602001600f60ff168152602001601860ff168152602001602860ff16815250600090600562000051929190620000b4565b506040518060400160405280600381526020017f6162630000000000000000000000000000000000000000000000000000000000815250600790805190602001906200009f929190620000fe565b50348015620000ad57600080fd5b5062000213565b8260058101928215620000eb579160200282015b82811115620000ea578251829060ff16905591602001919060010190620000c8565b5b509050620000fa91906200018f565b5090565b8280546200010c90620001ae565b90600052602060002090601f0160209004810192826200013057600085556200017c565b82601f106200014b57805160ff19168380011785556200017c565b828001600101855582156200017c579182015b828111156200017b5782518255916020019190600101906200015e565b5b5090506200018b91906200018f565b5090565b5b80821115620001aa57600081600090555060010162000190565b5090565b60006002820490506001821680620001c757607f821691505b60208210811415620001de57620001dd620001e4565b5b50919050565b7f4e487b7100000000000000000000000000000000000000000000000000000000600052602260045260246000fd5b61099a80620002236000396000f3fe608060405234801561001057600080fd5b50600436106100ea5760003560e01c80639a6fcbdd1161008c578063be1c766b11610066578063be1c766b14610211578063e94d1f751461022f578063e9b6190914610239578063edf0099b14610257576100ea565b80639a6fcbdd146101cd5780639c3dfaf6146101d7578063b0e4c85e146101f3576100ea565b80634cc82215116100c85780634cc822151461014757806371e5ee5f1461016357806378321efb1461019357806383c1136e146101af576100ea565b80630add6ef2146100ef5780633a7d22bc1461010d5780633f3108f71461013d575b600080fd5b6100f7610287565b604051610104919061078b565b60405180910390f35b61012760048036038101906101229190610696565b61029a565b6040516101349190610770565b60405180910390f35b61014561032b565b005b610161600480360381019061015c9190610696565b6103a6565b005b61017d60048036038101906101789190610696565b6103f1565b60405161018a91906107e3565b60405180910390f35b6101ad60048036038101906101a89190610696565b61040c565b005b6101b7610438565b6040516101c491906107c1565b60405180910390f35b6101d56104c6565b005b6101f160048036038101906101ec91906106bf565b610516565b005b6101fb610563565b60405161020891906107e3565b60405180910390f35b610219610570565b60405161022691906107e3565b60405180910390f35b610237610586565b005b61024161064a565b60405161024e91906107a6565b60405180910390f35b610271600480360381019061026c9190610696565b61065d565b60405161027e91906107e3565b60405180910390f35b600660039054906101000a900460f01b81565b600060078281546102aa906108db565b81106102df577f4e487b7100000000000000000000000000000000000000000000000000000000600052603260045260246000fd5b8154600116156102fe5790600052602060002090602091828204019190065b9054901a7f0100000000000000000000000000000000000000000000000000000000000000029050919050565b7f6162630000000000000000000000000000000000000000000000000000000000600660006101000a81548162ffffff021916908360e81c02179055507f6162000000000000000000000000000000000000000000000000000000000000600660036101000a81548161ffff021916908360f01c0217905550565b600581815481106103e0577f4e487b7100000000000000000000000000000000000000000000000000000000600052603260045260246000fd5b906000526020600020016000905550565b6000816005811061040157600080fd5b016000915090505481565b600581908060018154018082558091505060019003906000526020600020016000909190919091505550565b60078054610445906108db565b80601f0160208091040260200160405190810160405280929190818152602001828054610471906108db565b80156104be5780601f10610493576101008083540402835291602001916104be565b820191906000526020600020905b8154815290600101906020018083116104a157829003601f168201915b505050505081565b60058054806104fe577f4e487b7100000000000000000000000000000000000000000000000000000000600052603160045260246000fd5b60019003818190600052602060002001600090559055565b8060058381548110610551577f4e487b7100000000000000000000000000000000000000000000000000000000600052603260045260246000fd5b90600052602060002001819055505050565b6000600580549050905090565b60006007805461057f906108db565b9050905090565b600780805480610595906108db565b80601f81146105a3576105b9565b83600052602060002060ff1984168155603f9350505b506002820183556001810192505050600190038154600116156105eb5790600052602060002090602091828204019190065b7f640000000000000000000000000000000000000000000000000000000000000090919091601f036101000a81548160ff021916907f010000000000000000000000000000000000000000000000000000000000000084040217905550565b600660009054906101000a900460e81b81565b6005818154811061066d57600080fd5b906000526020600020016000915090505481565b6000813590506106908161094d565b92915050565b6000602082840312156106a857600080fd5b60006106b684828501610681565b91505092915050565b600080604083850312156106d257600080fd5b60006106e085828601610681565b92505060206106f185828601610681565b9150509250929050565b6107048161081a565b82525050565b61071381610846565b82525050565b61072281610872565b82525050565b6000610733826107fe565b61073d8185610809565b935061074d8185602086016108a8565b6107568161093c565b840191505092915050565b61076a8161089e565b82525050565b600060208201905061078560008301846106fb565b92915050565b60006020820190506107a0600083018461070a565b92915050565b60006020820190506107bb6000830184610719565b92915050565b600060208201905081810360008301526107db8184610728565b905092915050565b60006020820190506107f86000830184610761565b92915050565b600081519050919050565b600082825260208201905092915050565b60007fff0000000000000000000000000000000000000000000000000000000000000082169050919050565b60007fffff00000000000000000000000000000000000000000000000000000000000082169050919050565b60007fffffff000000000000000000000000000000000000000000000000000000000082169050919050565b6000819050919050565b60005b838110156108c65780820151818401526020810190506108ab565b838111156108d5576000848401525b50505050565b600060028204905060018216806108f357607f821691505b602082108114156109075761090661090d565b5b50919050565b7f4e487b7100000000000000000000000000000000000000000000000000000000600052602260045260246000fd5b6000601f19601f8301169050919050565b6109568161089e565b811461096157600080fd5b5056fea26469706673582212201eaf637439bc92476ad7698776a548ac7016725b5925cffe86d837a20274799964736f6c63430008000033",
			"opcodes": "PUSH1 0x80 PUSH1 0x40 MSTORE PUSH1 0x40 MLOAD DUP1 PUSH1 0xA0 ADD PUSH1 0x40 MSTORE DUP1 PUSH1 0x2 PUSH1 0xFF AND DUP2 MSTORE PUSH1 0x20 ADD PUSH1 0x7 PUSH1 0xFF AND DUP2 MSTORE PUSH1 0x20 ADD PUSH1 0xF PUSH1 0xFF AND DUP2 MSTORE PUSH1 0x20 ADD PUSH1 0x18 PUSH1 0xFF AND DUP2 MSTORE PUSH1 0x20 ADD PUSH1 0x28 PUSH1 0xFF AND DUP2 MSTORE POP PUSH1 0x0 SWAP1 PUSH1 0x5 PUSH3 0x51 SWAP3 SWAP2 SWAP1 PUSH3 0xB4 JUMP JUMPDEST POP PUSH1 0x40 MLOAD DUP1 PUSH1 0x40 ADD PUSH1 0x40 MSTORE DUP1 PUSH1 0x3 DUP2 MSTORE PUSH1 0x20 ADD PUSH32 0x6162630000000000000000000000000000000000000000000000000000000000 DUP2 MSTORE POP PUSH1 0x7 SWAP1 DUP1 MLOAD SWAP1 PUSH1 0x20 ADD SWAP1 PUSH3 0x9F SWAP3 SWAP2 SWAP1 PUSH3 0xFE JUMP JUMPDEST POP CALLVALUE DUP1 ISZERO PUSH3 0xAD JUMPI PUSH1 0x0 DUP1 REVERT JUMPDEST POP PUSH3 0x213 JUMP JUMPDEST DUP3 PUSH1 0x5 DUP2 ADD SWAP3 DUP3 ISZERO PUSH3 0xEB JUMPI SWAP2 PUSH1 0x20 MUL DUP3 ADD JUMPDEST DUP3 DUP2 GT ISZERO PUSH3 0xEA JUMPI DUP3 MLOAD DUP3 SWAP1 PUSH1 0xFF AND SWAP1 SSTORE SWAP2 PUSH1 0x20 ADD SWAP2 SWAP1 PUSH1 0x1 ADD SWAP1 PUSH3 0xC8 JUMP JUMPDEST JUMPDEST POP SWAP1 POP PUSH3 0xFA SWAP2 SWAP1 PUSH3 0x18F JUMP JUMPDEST POP SWAP1 JUMP JUMPDEST DUP3 DUP1 SLOAD PUSH3 0x10C SWAP1 PUSH3 0x1AE JUMP JUMPDEST SWAP1 PUSH1 0x0 MSTORE PUSH1 0x20 PUSH1 0x0 KECCAK256 SWAP1 PUSH1 0x1F ADD PUSH1 0x20 SWAP1 DIV DUP2 ADD SWAP3 DUP3 PUSH3 0x130 JUMPI PUSH1 0x0 DUP6 SSTORE PUSH3 0x17C JUMP JUMPDEST DUP3 PUSH1 0x1F LT PUSH3 0x14B JUMPI DUP1 MLOAD PUSH1 0xFF NOT AND DUP4 DUP1 ADD OR DUP6 SSTORE PUSH3 0x17C JUMP JUMPDEST DUP3 DUP1 ADD PUSH1 0x1 ADD DUP6 SSTORE DUP3 ISZERO PUSH3 0x17C JUMPI SWAP2 DUP3 ADD JUMPDEST DUP3 DUP2 GT ISZERO PUSH3 0x17B JUMPI DUP3 MLOAD DUP3 SSTORE SWAP2 PUSH1 0x20 ADD SWAP2 SWAP1 PUSH1 0x1 ADD SWAP1 PUSH3 0x15E JUMP JUMPDEST JUMPDEST POP SWAP1 POP PUSH3 0x18B SWAP2 SWAP1 PUSH3 0x18F JUMP JUMPDEST POP SWAP1 JUMP JUMPDEST JUMPDEST DUP1 DUP3 GT ISZERO PUSH3 0x1AA JUMPI PUSH1 0x0 DUP2 PUSH1 0x0 SWAP1 SSTORE POP PUSH1 0x1 ADD PUSH3 0x190 JUMP JUMPDEST POP SWAP1 JUMP JUMPDEST PUSH1 0x0 PUSH1 0x2 DUP3 DIV SWAP1 POP PUSH1 0x1 DUP3 AND DUP1 PUSH3 0x1C7 JUMPI PUSH1 0x7F DUP3 AND SWAP2 POP JUMPDEST PUSH1 0x20 DUP3 LT DUP2 EQ ISZERO PUSH3 0x1DE JUMPI PUSH3 0x1DD PUSH3 0x1E4 JUMP JUMPDEST JUMPDEST POP SWAP2 SWAP1 POP JUMP JUMPDEST PUSH32 0x4E487B7100000000000000000000000000000000000000000000000000000000 PUSH1 0x0 MSTORE PUSH1 0x22 PUSH1 0x4 MSTORE PUSH1 0x24 PUSH1 0x0 REVERT JUMPDEST PUSH2 0x99A DUP1 PUSH3 0x223 PUSH1 0x0 CODECOPY PUSH1 0x0 RETURN INVALID PUSH1 0x80 PUSH1 0x40 MSTORE CALLVALUE DUP1 ISZERO PUSH2 0x10 JUMPI PUSH1 0x0 DUP1 REVERT JUMPDEST POP PUSH1 0x4 CALLDATASIZE LT PUSH2 0xEA JUMPI PUSH1 0x0 CALLDATALOAD PUSH1 0xE0 SHR DUP1 PUSH4 0x9A6FCBDD GT PUSH2 0x8C JUMPI DUP1 PUSH4 0xBE1C766B GT PUSH2 0x66 JUMPI DUP1 PUSH4 0xBE1C766B EQ PUSH2 0x211 JUMPI DUP1 PUSH4 0xE94D1F75 EQ PUSH2 0x22F JUMPI DUP1 PUSH4 0xE9B61909 EQ PUSH2 0x239 JUMPI DUP1 PUSH4 0xEDF0099B EQ PUSH2 0x257 JUMPI PUSH2 0xEA JUMP JUMPDEST DUP1 PUSH4 0x9A6FCBDD EQ PUSH2 0x1CD JUMPI DUP1 PUSH4 0x9C3DFAF6 EQ PUSH2 0x1D7 JUMPI DUP1 PUSH4 0xB0E4C85E EQ PUSH2 0x1F3 JUMPI PUSH2 0xEA JUMP JUMPDEST DUP1 PUSH4 0x4CC82215 GT PUSH2 0xC8 JUMPI DUP1 PUSH4 0x4CC82215 EQ PUSH2 0x147 JUMPI DUP1 PUSH4 0x71E5EE5F EQ PUSH2 0x163 JUMPI DUP1 PUSH4 0x78321EFB EQ PUSH2 0x193 JUMPI DUP1 PUSH4 0x83C1136E EQ PUSH2 0x1AF JUMPI PUSH2 0xEA JUMP JUMPDEST DUP1 PUSH4 0xADD6EF2 EQ PUSH2 0xEF JUMPI DUP1 PUSH4 0x3A7D22BC EQ PUSH2 0x10D JUMPI DUP1 PUSH4 0x3F3108F7 EQ PUSH2 0x13D JUMPI JUMPDEST PUSH1 0x0 DUP1 REVERT JUMPDEST PUSH2 0xF7 PUSH2 0x287 JUMP JUMPDEST PUSH1 0x40 MLOAD PUSH2 0x104 SWAP2 SWAP1 PUSH2 0x78B JUMP JUMPDEST PUSH1 0x40 MLOAD DUP1 SWAP2 SUB SWAP1 RETURN JUMPDEST PUSH2 0x127 PUSH1 0x4 DUP1 CALLDATASIZE SUB DUP2 ADD SWAP1 PUSH2 0x122 SWAP2 SWAP1 PUSH2 0x696 JUMP JUMPDEST PUSH2 0x29A JUMP JUMPDEST PUSH1 0x40 MLOAD PUSH2 0x134 SWAP2 SWAP1 PUSH2 0x770 JUMP JUMPDEST PUSH1 0x40 MLOAD DUP1 SWAP2 SUB SWAP1 RETURN JUMPDEST PUSH2 0x145 PUSH2 0x32B JUMP JUMPDEST STOP JUMPDEST PUSH2 0x161 PUSH1 0x4 DUP1 CALLDATASIZE SUB DUP2 ADD SWAP1 PUSH2 0x15C SWAP2 SWAP1 PUSH2 0x696 JUMP JUMPDEST PUSH2 0x3A6 JUMP JUMPDEST STOP JUMPDEST PUSH2 0x17D PUSH1 0x4 DUP1 CALLDATASIZE SUB DUP2 ADD SWAP1 PUSH2 0x178 SWAP2 SWAP1 PUSH2 0x696 JUMP JUMPDEST PUSH2 0x3F1 JUMP JUMPDEST PUSH1 0x40 MLOAD PUSH2 0x18A SWAP2 SWAP1 PUSH2 0x7E3 JUMP JUMPDEST PUSH1 0x40 MLOAD DUP1 SWAP2 SUB SWAP1 RETURN JUMPDEST PUSH2 0x1AD PUSH1 0x4 DUP1 CALLDATASIZE SUB DUP2 ADD SWAP1 PUSH2 0x1A8 SWAP2 SWAP1 PUSH2 0x696 JUMP JUMPDEST PUSH2 0x40C JUMP JUMPDEST STOP JUMPDEST PUSH2 0x1B7 PUSH2 0x438 JUMP JUMPDEST PUSH1 0x40 MLOAD PUSH2 0x1C4 SWAP2 SWAP1 PUSH2 0x7C1 JUMP JUMPDEST PUSH1 0x40 MLOAD DUP1 SWAP2 SUB SWAP1 RETURN JUMPDEST PUSH2 0x1D5 PUSH2 0x4C6 JUMP JUMPDEST STOP JUMPDEST PUSH2 0x1F1 PUSH1 0x4 DUP1 CALLDATASIZE SUB DUP2 ADD SWAP1 PUSH2 0x1EC SWAP2 SWAP1 PUSH2 0x6BF JUMP JUMPDEST PUSH2 0x516 JUMP JUMPDEST STOP JUMPDEST PUSH2 0x1FB PUSH2 0x563 JUMP JUMPDEST PUSH1 0x40 MLOAD PUSH2 0x208 SWAP2 SWAP1 PUSH2 0x7E3 JUMP JUMPDEST PUSH1 0x40 MLOAD DUP1 SWAP2 SUB SWAP1 RETURN JUMPDEST PUSH2 0x219 PUSH2 0x570 JUMP JUMPDEST PUSH1 0x40 MLOAD PUSH2 0x226 SWAP2 SWAP1 PUSH2 0x7E3 JUMP JUMPDEST PUSH1 0x40 MLOAD DUP1 SWAP2 SUB SWAP1 RETURN JUMPDEST PUSH2 0x237 PUSH2 0x586 JUMP JUMPDEST STOP JUMPDEST PUSH2 0x241 PUSH2 0x64A JUMP JUMPDEST PUSH1 0x40 MLOAD PUSH2 0x24E SWAP2 SWAP1 PUSH2 0x7A6 JUMP JUMPDEST PUSH1 0x40 MLOAD DUP1 SWAP2 SUB SWAP1 RETURN JUMPDEST PUSH2 0x271 PUSH1 0x4 DUP1 CALLDATASIZE SUB DUP2 ADD SWAP1 PUSH2 0x26C SWAP2 SWAP1 PUSH2 0x696 JUMP JUMPDEST PUSH2 0x65D JUMP JUMPDEST PUSH1 0x40 MLOAD PUSH2 0x27E SWAP2 SWAP1 PUSH2 0x7E3 JUMP JUMPDEST PUSH1 0x40 MLOAD DUP1 SWAP2 SUB SWAP1 RETURN JUMPDEST PUSH1 0x6 PUSH1 0x3 SWAP1 SLOAD SWAP1 PUSH2 0x100 EXP SWAP1 DIV PUSH1 0xF0 SHL DUP2 JUMP JUMPDEST PUSH1 0x0 PUSH1 0x7 DUP3 DUP2 SLOAD PUSH2 0x2AA SWAP1 PUSH2 0x8DB JUMP JUMPDEST DUP2 LT PUSH2 0x2DF JUMPI PUSH32 0x4E487B7100000000000000000000000000000000000000000000000000000000 PUSH1 0x0 MSTORE PUSH1 0x32 PUSH1 0x4 MSTORE PUSH1 0x24 PUSH1 0x0 REVERT JUMPDEST DUP2 SLOAD PUSH1 0x1 AND ISZERO PUSH2 0x2FE JUMPI SWAP1 PUSH1 0x0 MSTORE PUSH1 0x20 PUSH1 0x0 KECCAK256 SWAP1 PUSH1 0x20 SWAP2 DUP3 DUP3 DIV ADD SWAP2 SWAP1 MOD JUMPDEST SWAP1 SLOAD SWAP1 BYTE PUSH32 0x100000000000000000000000000000000000000000000000000000000000000 MUL SWAP1 POP SWAP2 SWAP1 POP JUMP JUMPDEST PUSH32 0x6162630000000000000000000000000000000000000000000000000000000000 PUSH1 0x6 PUSH1 0x0 PUSH2 0x100 EXP DUP2 SLOAD DUP2 PUSH3 0xFFFFFF MUL NOT AND SWAP1 DUP4 PUSH1 0xE8 SHR MUL OR SWAP1 SSTORE POP PUSH32 0x6162000000000000000000000000000000000000000000000000000000000000 PUSH1 0x6 PUSH1 0x3 PUSH2 0x100 EXP DUP2 SLOAD DUP2 PUSH2 0xFFFF MUL NOT AND SWAP1 DUP4 PUSH1 0xF0 SHR MUL OR SWAP1 SSTORE POP JUMP JUMPDEST PUSH1 0x5 DUP2 DUP2 SLOAD DUP2 LT PUSH2 0x3E0 JUMPI PUSH32 0x4E487B7100000000000000000000000000000000000000000000000000000000 PUSH1 0x0 MSTORE PUSH1 0x32 PUSH1 0x4 MSTORE PUSH1 0x24 PUSH1 0x0 REVERT JUMPDEST SWAP1 PUSH1 0x0 MSTORE PUSH1 0x20 PUSH1 0x0 KECCAK256 ADD PUSH1 0x0 SWAP1 SSTORE POP JUMP JUMPDEST PUSH1 0x0 DUP2 PUSH1 0x5 DUP2 LT PUSH2 0x401 JUMPI PUSH1 0x0 DUP1 REVERT JUMPDEST ADD PUSH1 0x0 SWAP2 POP SWAP1 POP SLOAD DUP2 JUMP JUMPDEST PUSH1 0x5 DUP2 SWAP1 DUP1 PUSH1 0x1 DUP2 SLOAD ADD DUP1 DUP3 SSTORE DUP1 SWAP2 POP POP PUSH1 0x1 SWAP1 SUB SWAP1 PUSH1 0x0 MSTORE PUSH1 0x20 PUSH1 0x0 KECCAK256 ADD PUSH1 0x0 SWAP1 SWAP2 SWAP1 SWAP2 SWAP1 SWAP2 POP SSTORE POP JUMP JUMPDEST PUSH1 0x7 DUP1 SLOAD PUSH2 0x445 SWAP1 PUSH2 0x8DB JUMP JUMPDEST DUP1 PUSH1 0x1F ADD PUSH1 0x20 DUP1 SWAP2 DIV MUL PUSH1 0x20 ADD PUSH1 0x40 MLOAD SWAP1 DUP2 ADD PUSH1 0x40 MSTORE DUP1 SWAP3 SWAP2 SWAP1 DUP2 DUP2 MSTORE PUSH1 0x20 ADD DUP3 DUP1 SLOAD PUSH2 0x471 SWAP1 PUSH2 0x8DB JUMP JUMPDEST DUP1 ISZERO PUSH2 0x4BE JUMPI DUP1 PUSH1 0x1F LT PUSH2 0x493 JUMPI PUSH2 0x100 DUP1 DUP4 SLOAD DIV MUL DUP4 MSTORE SWAP2 PUSH1 0x20 ADD SWAP2 PUSH2 0x4BE JUMP JUMPDEST DUP3 ADD SWAP2 SWAP1 PUSH1 0x0 MSTORE PUSH1 0x20 PUSH1 0x0 KECCAK256 SWAP1 JUMPDEST DUP2 SLOAD DUP2 MSTORE SWAP1 PUSH1 0x1 ADD SWAP1 PUSH1 0x20 ADD DUP1 DUP4 GT PUSH2 0x4A1 JUMPI DUP3 SWAP1 SUB PUSH1 0x1F AND DUP3 ADD SWAP2 JUMPDEST POP POP POP POP POP DUP2 JUMP JUMPDEST PUSH1 0x5 DUP1 SLOAD DUP1 PUSH2 0x4FE JUMPI PUSH32 0x4E487B7100000000000000000000000000000000000000000000000000000000 PUSH1 0x0 MSTORE PUSH1 0x31 PUSH1 0x4 MSTORE PUSH1 0x24 PUSH1 0x0 REVERT JUMPDEST PUSH1 0x1 SWAP1 SUB DUP2 DUP2 SWAP1 PUSH1 0x0 MSTORE PUSH1 0x20 PUSH1 0x0 KECCAK256 ADD PUSH1 0x0 SWAP1 SSTORE SWAP1 SSTORE JUMP JUMPDEST DUP1 PUSH1 0x5 DUP4 DUP2 SLOAD DUP2 LT PUSH2 0x551 JUMPI PUSH32 0x4E487B7100000000000000000000000000000000000000000000000000000000 PUSH1 0x0 MSTORE PUSH1 0x32 PUSH1 0x4 MSTORE PUSH1 0x24 PUSH1 0x0 REVERT JUMPDEST SWAP1 PUSH1 0x0 MSTORE PUSH1 0x20 PUSH1 0x0 KECCAK256 ADD DUP2 SWAP1 SSTORE POP POP POP JUMP JUMPDEST PUSH1 0x0 PUSH1 0x5 DUP1 SLOAD SWAP1 POP SWAP1 POP SWAP1 JUMP JUMPDEST PUSH1 0x0 PUSH1 0x7 DUP1 SLOAD PUSH2 0x57F SWAP1 PUSH2 0x8DB JUMP JUMPDEST SWAP1 POP SWAP1 POP SWAP1 JUMP JUMPDEST PUSH1 0x7 DUP1 DUP1 SLOAD DUP1 PUSH2 0x595 SWAP1 PUSH2 0x8DB JUMP JUMPDEST DUP1 PUSH1 0x1F DUP2 EQ PUSH2 0x5A3 JUMPI PUSH2 0x5B9 JUMP JUMPDEST DUP4 PUSH1 0x0 MSTORE PUSH1 0x20 PUSH1 0x0 KECCAK256 PUSH1 0xFF NOT DUP5 AND DUP2 SSTORE PUSH1 0x3F SWAP4 POP POP JUMPDEST POP PUSH1 0x2 DUP3 ADD DUP4 SSTORE PUSH1 0x1 DUP2 ADD SWAP3 POP POP POP PUSH1 0x1 SWAP1 SUB DUP2 SLOAD PUSH1 0x1 AND ISZERO PUSH2 0x5EB JUMPI SWAP1 PUSH1 0x0 MSTORE PUSH1 0x20 PUSH1 0x0 KECCAK256 SWAP1 PUSH1 0x20 SWAP2 DUP3 DUP3 DIV ADD SWAP2 SWAP1 MOD JUMPDEST PUSH32 0x6400000000000000000000000000000000000000000000000000000000000000 SWAP1 SWAP2 SWAP1 SWAP2 PUSH1 0x1F SUB PUSH2 0x100 EXP DUP2 SLOAD DUP2 PUSH1 0xFF MUL NOT AND SWAP1 PUSH32 0x100000000000000000000000000000000000000000000000000000000000000 DUP5 DIV MUL OR SWAP1 SSTORE POP JUMP JUMPDEST PUSH1 0x6 PUSH1 0x0 SWAP1 SLOAD SWAP1 PUSH2 0x100 EXP SWAP1 DIV PUSH1 0xE8 SHL DUP2 JUMP JUMPDEST PUSH1 0x5 DUP2 DUP2 SLOAD DUP2 LT PUSH2 0x66D JUMPI PUSH1 0x0 DUP1 REVERT JUMPDEST SWAP1 PUSH1 0x0 MSTORE PUSH1 0x20 PUSH1 0x0 KECCAK256 ADD PUSH1 0x0 SWAP2 POP SWAP1 POP SLOAD DUP2 JUMP JUMPDEST PUSH1 0x0 DUP2 CALLDATALOAD SWAP1 POP PUSH2 0x690 DUP2 PUSH2 0x94D JUMP JUMPDEST SWAP3 SWAP2 POP POP JUMP JUMPDEST PUSH1 0x0 PUSH1 0x20 DUP3 DUP5 SUB SLT ISZERO PUSH2 0x6A8 JUMPI PUSH1 0x0 DUP1 REVERT JUMPDEST PUSH1 0x0 PUSH2 0x6B6 DUP5 DUP3 DUP6 ADD PUSH2 0x681 JUMP JUMPDEST SWAP2 POP POP SWAP3 SWAP2 POP POP JUMP JUMPDEST PUSH1 0x0 DUP1 PUSH1 0x40 DUP4 DUP6 SUB SLT ISZERO PUSH2 0x6D2 JUMPI PUSH1 0x0 DUP1 REVERT JUMPDEST PUSH1 0x0 PUSH2 0x6E0 DUP6 DUP3 DUP7 ADD PUSH2 0x681 JUMP JUMPDEST SWAP3 POP POP PUSH1 0x20 PUSH2 0x6F1 DUP6 DUP3 DUP7 ADD PUSH2 0x681 JUMP JUMPDEST SWAP2 POP POP SWAP3 POP SWAP3 SWAP1 POP JUMP JUMPDEST PUSH2 0x704 DUP2 PUSH2 0x81A JUMP JUMPDEST DUP3 MSTORE POP POP JUMP JUMPDEST PUSH2 0x713 DUP2 PUSH2 0x846 JUMP JUMPDEST DUP3 MSTORE POP POP JUMP JUMPDEST PUSH2 0x722 DUP2 PUSH2 0x872 JUMP JUMPDEST DUP3 MSTORE POP POP JUMP JUMPDEST PUSH1 0x0 PUSH2 0x733 DUP3 PUSH2 0x7FE JUMP JUMPDEST PUSH2 0x73D DUP2 DUP6 PUSH2 0x809 JUMP JUMPDEST SWAP4 POP PUSH2 0x74D DUP2 DUP6 PUSH1 0x20 DUP7 ADD PUSH2 0x8A8 JUMP JUMPDEST PUSH2 0x756 DUP2 PUSH2 0x93C JUMP JUMPDEST DUP5 ADD SWAP2 POP POP SWAP3 SWAP2 POP POP JUMP JUMPDEST PUSH2 0x76A DUP2 PUSH2 0x89E JUMP JUMPDEST DUP3 MSTORE POP POP JUMP JUMPDEST PUSH1 0x0 PUSH1 0x20 DUP3 ADD SWAP1 POP PUSH2 0x785 PUSH1 0x0 DUP4 ADD DUP5 PUSH2 0x6FB JUMP JUMPDEST SWAP3 SWAP2 POP POP JUMP JUMPDEST PUSH1 0x0 PUSH1 0x20 DUP3 ADD SWAP1 POP PUSH2 0x7A0 PUSH1 0x0 DUP4 ADD DUP5 PUSH2 0x70A JUMP JUMPDEST SWAP3 SWAP2 POP POP JUMP JUMPDEST PUSH1 0x0 PUSH1 0x20 DUP3 ADD SWAP1 POP PUSH2 0x7BB PUSH1 0x0 DUP4 ADD DUP5 PUSH2 0x719 JUMP JUMPDEST SWAP3 SWAP2 POP POP JUMP JUMPDEST PUSH1 0x0 PUSH1 0x20 DUP3 ADD SWAP1 POP DUP2 DUP2 SUB PUSH1 0x0 DUP4 ADD MSTORE PUSH2 0x7DB DUP2 DUP5 PUSH2 0x728 JUMP JUMPDEST SWAP1 POP SWAP3 SWAP2 POP POP JUMP JUMPDEST PUSH1 0x0 PUSH1 0x20 DUP3 ADD SWAP1 POP PUSH2 0x7F8 PUSH1 0x0 DUP4 ADD DUP5 PUSH2 0x761 JUMP JUMPDEST SWAP3 SWAP2 POP POP JUMP JUMPDEST PUSH1 0x0 DUP2 MLOAD SWAP1 POP SWAP2 SWAP1 POP JUMP JUMPDEST PUSH1 0x0 DUP3 DUP3 MSTORE PUSH1 0x20 DUP3 ADD SWAP1 POP SWAP3 SWAP2 POP POP JUMP JUMPDEST PUSH1 0x0 PUSH32 0xFF00000000000000000000000000000000000000000000000000000000000000 DUP3 AND SWAP1 POP SWAP2 SWAP1 POP JUMP JUMPDEST PUSH1 0x0 PUSH32 0xFFFF000000000000000000000000000000000000000000000000000000000000 DUP3 AND SWAP1 POP SWAP2 SWAP1 POP JUMP JUMPDEST PUSH1 0x0 PUSH32 0xFFFFFF0000000000000000000000000000000000000000000000000000000000 DUP3 AND SWAP1 POP SWAP2 SWAP1 POP JUMP JUMPDEST PUSH1 0x0 DUP2 SWAP1 POP SWAP2 SWAP1 POP JUMP JUMPDEST PUSH1 0x0 JUMPDEST DUP4 DUP2 LT ISZERO PUSH2 0x8C6 JUMPI DUP1 DUP3 ADD MLOAD DUP2 DUP5 ADD MSTORE PUSH1 0x20 DUP2 ADD SWAP1 POP PUSH2 0x8AB JUMP JUMPDEST DUP4 DUP2 GT ISZERO PUSH2 0x8D5 JUMPI PUSH1 0x0 DUP5 DUP5 ADD MSTORE JUMPDEST POP POP POP POP JUMP JUMPDEST PUSH1 0x0 PUSH1 0x2 DUP3 DIV SWAP1 POP PUSH1 0x1 DUP3 AND DUP1 PUSH2 0x8F3 JUMPI PUSH1 0x7F DUP3 AND SWAP2 POP JUMPDEST PUSH1 0x20 DUP3 LT DUP2 EQ ISZERO PUSH2 0x907 JUMPI PUSH2 0x906 PUSH2 0x90D JUMP JUMPDEST JUMPDEST POP SWAP2 SWAP1 POP JUMP JUMPDEST PUSH32 0x4E487B7100000000000000000000000000000000000000000000000000000000 PUSH1 0x0 MSTORE PUSH1 0x22 PUSH1 0x4 MSTORE PUSH1 0x24 PUSH1 0x0 REVERT JUMPDEST PUSH1 0x0 PUSH1 0x1F NOT PUSH1 0x1F DUP4 ADD AND SWAP1 POP SWAP2 SWAP1 POP JUMP JUMPDEST PUSH2 0x956 DUP2 PUSH2 0x89E JUMP JUMPDEST DUP2 EQ PUSH2 0x961 JUMPI PUSH1 0x0 DUP1 REVERT JUMPDEST POP JUMP INVALID LOG2 PUSH5 0x6970667358 0x22 SLT KECCAK256 0x1E 0xAF PUSH4 0x7439BC92 SELFBALANCE PUSH11 0xD7698776A548AC7016725B MSIZE 0x25 0xCF INVALID DUP7 0xD8 CALLDATACOPY LOG2 MUL PUSH21 0x799964736F6C634300080000330000000000000000 "
		},
		"gasEstimates": {
			"creation": {
				"codeDepositCost": "491600",
				"executionCost": "infinite",
				"totalCost": "infinite"
			},
			"external": {
				"arr(uint256)": "infinite",
				"arr2(uint256)": "infinite",
				"b2()": "1245",
				"b3()": "1237",
				"dbyte()": "infinite",
				"getElement(uint256)": "3336",
				"getLength()": "1295",
				"lengthArr()": "1212",
				"popElement()": "26068",
				"pushElement(uint256)": "41396",
				"pushElementByte()": "64664",
				"remove(uint256)": "6318",
				"setValues(uint256,uint256)": "infinite",
				"setter()": "41996"
			}
		},
		"methodIdentifiers": {
			"arr(uint256)": "71e5ee5f",
			"arr2(uint256)": "edf0099b",
			"b2()": "0add6ef2",
			"b3()": "e9b61909",
			"dbyte()": "83c1136e",
			"getElement(uint256)": "3a7d22bc",
			"getLength()": "be1c766b",
			"lengthArr()": "b0e4c85e",
			"popElement()": "9a6fcbdd",
			"pushElement(uint256)": "78321efb",
			"pushElementByte()": "e94d1f75",
			"remove(uint256)": "4cc82215",
			"setValues(uint256,uint256)": "9c3dfaf6",
			"setter()": "3f3108f7"
		}
	},
	"abi": [
		{
			"inputs": [
				{
					"internalType": "uint256",
					"name": "",
					"type": "uint256"
				}
			],
			"name": "arr",
			"outputs": [
				{
					"internalType": "uint256",
					"name": "",
					"type": "uint256"
				}
			],
			"stateMutability": "view",
			"type": "function"
		},
		{
			"inputs": [
				{
					"internalType": "uint256",
					"name": "",
					"type": "uint256"
				}
			],
			"name": "arr2",
			"outputs": [
				{
					"internalType": "uint256",
					"name": "",
					"type": "uint256"
				}
			],
			"stateMutability": "view",
			"type": "function"
		},
		{
			"inputs": [],
			"name": "b2",
			"outputs": [
				{
					"internalType": "bytes2",
					"name": "",
					"type": "bytes2"
				}
			],
			"stateMutability": "view",
			"type": "function"
		},
		{
			"inputs": [],
			"name": "b3",
			"outputs": [
				{
					"internalType": "bytes3",
					"name": "",
					"type": "bytes3"
				}
			],
			"stateMutability": "view",
			"type": "function"
		},
		{
			"inputs": [],
			"name": "dbyte",
			"outputs": [
				{
					"internalType": "bytes",
					"name": "",
					"type": "bytes"
				}
			],
			"stateMutability": "view",
			"type": "function"
		},
		{
			"inputs": [
				{
					"internalType": "uint256",
					"name": "index",
					"type": "uint256"
				}
			],
			"name": "getElement",
			"outputs": [
				{
					"internalType": "bytes1",
					"name": "",
					"type": "bytes1"
				}
			],
			"stateMutability": "view",
			"type": "function"
		},
		{
			"inputs": [],
			"name": "getLength",
			"outputs": [
				{
					"internalType": "uint256",
					"name": "",
					"type": "uint256"
				}
			],
			"stateMutability": "view",
			"type": "function"
		},
		{
			"inputs": [],
			"name": "lengthArr",
			"outputs": [
				{
					"internalType": "uint256",
					"name": "",
					"type": "uint256"
				}
			],
			"stateMutability": "view",
			"type": "function"
		},
		{
			"inputs": [],
			"name": "popElement",
			"outputs": [],
			"stateMutability": "nonpayable",
			"type": "function"
		},
		{
			"inputs": [
				{
					"internalType": "uint256",
					"name": "x",
					"type": "uint256"
				}
			],
			"name": "pushElement",
			"outputs": [],
			"stateMutability": "nonpayable",
			"type": "function"
		},
		{
			"inputs": [],
			"name": "pushElementByte",
			"outputs": [],
			"stateMutability": "nonpayable",
			"type": "function"
		},
		{
			"inputs": [
				{
					"internalType": "uint256",
					"name": "index",
					"type": "uint256"
				}
			],
			"name": "remove",
			"outputs": [],
			"stateMutability": "nonpayable",
			"type": "function"
		},
		{
			"inputs": [
				{
					"internalType": "uint256",
					"name": "index",
					"type": "uint256"
				},
				{
					"internalType": "uint256",
					"name": "value",
					"type": "uint256"
				}
			],
			"name": "setValues",
			"outputs": [],
			"stateMutability": "nonpayable",
			"type": "function"
		},
		{
			"inputs": [],
			"name": "setter",
			"outputs": [],
			"stateMutability": "nonpayable",
			"type": "function"
		}
	]
}